{"abi":[{"type":"constructor","inputs":[{"name":"_owner","type":"address","internalType":"address"},{"name":"_autoCompounder","type":"address","internalType":"address"},{"name":"_token0","type":"address","internalType":"address"},{"name":"_token1","type":"address","internalType":"address"}],"stateMutability":"nonpayable"},{"type":"function","name":"BPS","inputs":[],"outputs":[{"name":"","type":"uint256","internalType":"uint256"}],"stateMutability":"view"},{"type":"function","name":"CLAIM_COOLDOWN","inputs":[],"outputs":[{"name":"","type":"uint256","internalType":"uint256"}],"stateMutability":"view"},{"type":"function","name":"MAX_CLAIM_BPS","inputs":[],"outputs":[{"name":"","type":"uint256","internalType":"uint256"}],"stateMutability":"view"},{"type":"function","name":"MAX_SINGLE_CLAIM_USD","inputs":[],"outputs":[{"name":"","type":"uint256","internalType":"uint256"}],"stateMutability":"view"},{"type":"function","name":"MIN_FUND_RATIO_BPS","inputs":[],"outputs":[{"name":"","type":"uint256","internalType":"uint256"}],"stateMutability":"view"},{"type":"function","name":"authorizedDepositors","inputs":[{"name":"","type":"address","internalType":"address"}],"outputs":[{"name":"","type":"bool","internalType":"bool"}],"stateMutability":"view"},{"type":"function","name":"autoCompounder","inputs":[],"outputs":[{"name":"","type":"address","internalType":"address"}],"stateMutability":"view"},{"type":"function","name":"deposit","inputs":[{"name":"amount0","type":"uint256","internalType":"uint256"},{"name":"amount1","type":"uint256","internalType":"uint256"}],"outputs":[],"stateMutability":"nonpayable"},{"type":"function","name":"emergencyPause","inputs":[],"outputs":[],"stateMutability":"nonpayable"},{"type":"function","name":"emergencyUnpause","inputs":[],"outputs":[],"stateMutability":"nonpayable"},{"type":"function","name":"fundBalance0","inputs":[],"outputs":[{"name":"","type":"uint256","internalType":"uint256"}],"stateMutability":"view"},{"type":"function","name":"fundBalance1","inputs":[],"outputs":[{"name":"","type":"uint256","internalType":"uint256"}],"stateMutability":"view"},{"type":"function","name":"getFundHealthBps","inputs":[],"outputs":[{"name":"","type":"uint256","internalType":"uint256"}],"stateMutability":"view"},{"type":"function","name":"getFundState","inputs":[],"outputs":[{"name":"","type":"tuple","internalType":"struct InsuranceFundState","components":[{"name":"balance0","type":"uint256","internalType":"uint256"},{"name":"balance1","type":"uint256","internalType":"uint256"},{"name":"totalClaimed0","type":"uint256","internalType":"uint256"},{"name":"totalClaimed1","type":"uint256","internalType":"uint256"},{"name":"pendingClaims","type":"uint256","internalType":"uint256"},{"name":"claimsSuspended","type":"bool","internalType":"bool"},{"name":"lastUpdatedBlock","type":"uint256","internalType":"uint256"}]}],"stateMutability":"view"},{"type":"function","name":"getMaxClaim","inputs":[{"name":"positionId","type":"bytes32","internalType":"bytes32"},{"name":"ilAmount0","type":"uint256","internalType":"uint256"},{"name":"ilAmount1","type":"uint256","internalType":"uint256"},{"name":"loyaltyScore","type":"uint256","internalType":"uint256"}],"outputs":[{"name":"maxToken0","type":"uint256","internalType":"uint256"},{"name":"maxToken1","type":"uint256","internalType":"uint256"}],"stateMutability":"view"},{"type":"function","name":"lastClaimTime","inputs":[{"name":"","type":"address","internalType":"address"}],"outputs":[{"name":"","type":"uint256","internalType":"uint256"}],"stateMutability":"view"},{"type":"function","name":"owner","inputs":[],"outputs":[{"name":"","type":"address","internalType":"address"}],"stateMutability":"view"},{"type":"function","name":"paused","inputs":[],"outputs":[{"name":"","type":"bool","internalType":"bool"}],"stateMutability":"view"},{"type":"function","name":"positionClaimed0","inputs":[{"name":"","type":"bytes32","internalType":"bytes32"}],"outputs":[{"name":"","type":"uint256","internalType":"uint256"}],"stateMutability":"view"},{"type":"function","name":"setAuthorizedDepositor","inputs":[{"name":"depositor","type":"address","internalType":"address"},{"name":"authorized","type":"bool","internalType":"bool"}],"outputs":[],"stateMutability":"nonpayable"},{"type":"function","name":"submitClaim","inputs":[{"name":"claim","type":"tuple","internalType":"struct InsuranceClaim","components":[{"name":"positionId","type":"bytes32","internalType":"bytes32"},{"name":"ilAmount0","type":"uint256","internalType":"uint256"},{"name":"ilAmount1","type":"uint256","internalType":"uint256"},{"name":"loyaltyScore","type":"uint256","internalType":"uint256"},{"name":"proof","type":"bytes","internalType":"bytes"}]}],"outputs":[{"name":"compensated0","type":"uint256","internalType":"uint256"},{"name":"compensated1","type":"uint256","internalType":"uint256"}],"stateMutability":"nonpayable"},{"type":"function","name":"token0","inputs":[],"outputs":[{"name":"","type":"address","internalType":"contract IERC20"}],"stateMutability":"view"},{"type":"function","name":"token1","inputs":[],"outputs":[{"name":"","type":"address","internalType":"contract IERC20"}],"stateMutability":"view"},{"type":"function","name":"totalDeposited0","inputs":[],"outputs":[{"name":"","type":"uint256","internalType":"uint256"}],"stateMutability":"view"},{"type":"function","name":"totalDeposited1","inputs":[],"outputs":[{"name":"","type":"uint256","internalType":"uint256"}],"stateMutability":"view"},{"type":"function","name":"totalPaidOut0","inputs":[],"outputs":[{"name":"","type":"uint256","internalType":"uint256"}],"stateMutability":"view"},{"type":"function","name":"totalPaidOut1","inputs":[],"outputs":[{"name":"","type":"uint256","internalType":"uint256"}],"stateMutability":"view"},{"type":"function","name":"totalTVL","inputs":[],"outputs":[{"name":"","type":"uint256","internalType":"uint256"}],"stateMutability":"view"},{"type":"function","name":"updateTVL","inputs":[{"name":"newTVL","type":"uint256","internalType":"uint256"}],"outputs":[],"stateMutability":"nonpayable"},{"type":"event","name":"ClaimPaid","inputs":[{"name":"positionId","type":"bytes32","indexed":true,"internalType":"bytes32"},{"name":"recipient","type":"address","indexed":true,"internalType":"address"},{"name":"amount0","type":"uint256","indexed":false,"internalType":"uint256"},{"name":"amount1","type":"uint256","indexed":false,"internalType":"uint256"}],"anonymous":false},{"type":"event","name":"ClaimsResumed","inputs":[],"anonymous":false},{"type":"event","name":"ClaimsSuspended","inputs":[{"name":"reason","type":"string","indexed":false,"internalType":"string"}],"anonymous":false},{"type":"event","name":"DepositorAuthorized","inputs":[{"name":"depositor","type":"address","indexed":true,"internalType":"address"},{"name":"authorized","type":"bool","indexed":false,"internalType":"bool"}],"anonymous":false},{"type":"event","name":"FundDeposited","inputs":[{"name":"source","type":"address","indexed":true,"internalType":"address"},{"name":"amount0","type":"uint256","indexed":false,"internalType":"uint256"},{"name":"amount1","type":"uint256","indexed":false,"internalType":"uint256"}],"anonymous":false},{"type":"event","name":"Paused","inputs":[{"name":"account","type":"address","indexed":false,"internalType":"address"}],"anonymous":false},{"type":"event","name":"TVLUpdated","inputs":[{"name":"newTVL","type":"uint256","indexed":false,"internalType":"uint256"}],"anonymous":false},{"type":"event","name":"Unpaused","inputs":[{"name":"account","type":"address","indexed":false,"internalType":"address"}],"anonymous":false},{"type":"error","name":"AddressEmptyCode","inputs":[{"name":"target","type":"address","internalType":"address"}]},{"type":"error","name":"AddressInsufficientBalance","inputs":[{"name":"account","type":"address","internalType":"address"}]},{"type":"error","name":"EnforcedPause","inputs":[]},{"type":"error","name":"ExpectedPause","inputs":[]},{"type":"error","name":"FailedInnerCall","inputs":[]},{"type":"error","name":"ReentrancyGuardReentrantCall","inputs":[]},{"type":"error","name":"SafeERC20FailedOperation","inputs":[{"name":"token","type":"address","internalType":"address"}]},{"type":"error","name":"Xenorize__Unauthorized","inputs":[{"name":"caller","type":"address","internalType":"address"},{"name":"required","type":"address","internalType":"address"}]},{"type":"error","name":"Xenorize__ZeroAddress","inputs":[]},{"type":"error","name":"Xenorize__ZeroAmount","inputs":[]}],"bytecode":{"object":"0x61010060405234801561001157600080fd5b5060405161164f38038061164f833981016040819052610030916100f9565b60016000819055805460ff191690556001600160a01b038416158061005c57506001600160a01b038316155b8061006e57506001600160a01b038216155b8061008057506001600160a01b038116155b1561009e57604051630aaffdf760e31b815260040160405180910390fd5b6001600160a01b0393841660805291831660a081905290831660c052911660e0526000908152600b60205260409020805460ff1916600117905561014d565b80516001600160a01b03811681146100f457600080fd5b919050565b6000806000806080858703121561010f57600080fd5b610118856100dd565b9350610126602086016100dd565b9250610134604086016100dd565b9150610142606086016100dd565b905092959194509250565b60805160a05160c05160e0516114606101ef6000396000818161043001528181610b420152610dea01526000818161023401528181610b070152610db00152600081816101f501528181610483015281816104c501528181610bd10152610c1301526000818161038b0152818161058f015281816105d10152818161063c0152818161067e015281816107b2015281816107f40152610a1e01526114606000f3fe608060405234801561001057600080fd5b50600436106101cf5760003560e01c8063575c5c60116101045780638ffd8cbb116100a2578063bb27b8ae11610071578063bb27b8ae1461041a578063d21220a71461042b578063e2bbb15814610452578063e2defcaf1461046557600080fd5b80638ffd8cbb146103c05780639ef1be68146103e8578063a8bc6f7c146103f1578063b77cf9c6146103fa57600080fd5b806372402e00116100de57806372402e00146103035780638a5f969c146103265780638da5cb5b146103865780638efc9dfa146103ad57600080fd5b8063575c5c60146102db5780635c06f684146102e35780635c975abb146102ec57600080fd5b80632f3d5bfd1161017157806337c909ec1161014b57806337c909ec146102ac5780634a02893c146102b65780634a4e3bd5146102cb57806351858e27146102d357600080fd5b80632f3d5bfd1461027a5780633296b182146102835780633768cc16146102a357600080fd5b80631a158d8d116101ad5780631a158d8d146102565780631fcf1db21461025f578063249d39e9146102685780632c3541421461027157600080fd5b806309f99b99146101d45780630a2e4835146101f05780630dfe16811461022f575b600080fd5b6101dd60065481565b6040519081526020015b60405180910390f35b6102177f000000000000000000000000000000000000000000000000000000000000000081565b6040516001600160a01b0390911681526020016101e7565b6102177f000000000000000000000000000000000000000000000000000000000000000081565b6101dd60025481565b6101dd61138881565b6101dd61271081565b6101dd60075481565b6101dd6101f481565b6101dd610291366004611245565b600a6020526000908152604090205481565b6101dd60035481565b6101dd62093a8081565b6102c96102c4366004611245565b610478565b005b6102c9610584565b6102c9610631565b6101dd610708565b6101dd60045481565b60015460ff165b60405190151581526020016101e7565b6102f361031136600461127a565b600b6020526000908152604090205460ff1681565b61032e610717565b6040516101e79190600060e082019050825182526020830151602083015260408301516040830152606083015160608301526080830151608083015260a0830151151560a083015260c083015160c083015292915050565b6102177f000000000000000000000000000000000000000000000000000000000000000081565b6102c96103bb3660046112a3565b6107a7565b6103d36103ce3660046112da565b6108a7565b604080519283526020830191909152016101e7565b6101dd60055481565b6101dd60085481565b6101dd61040836600461127a565b60096020526000908152604090205481565b6101dd69021e19e0c9bab240000081565b6102177f000000000000000000000000000000000000000000000000000000000000000081565b6102c961046036600461130c565b6109f0565b6103d361047336600461132e565b610bb3565b336001600160a01b037f000000000000000000000000000000000000000000000000000000000000000016146104f757604051630cc657bb60e41b81523360048201526001600160a01b037f00000000000000000000000000000000000000000000000000000000000000001660248201526044015b60405180910390fd5b60088190556040518181527fcdd2050b92e912b67dd7cf516539c622f008e1b40703b02bb791ea5afcee110c9060200160405180910390a160015460ff16801561054a57506101f4610547610e6c565b10155b1561058157610557610e9c565b6040517fd4b4dec04aef7dec06383e70811d0865c2dd9ef4448182e30991c1f16d5f712c90600090a15b50565b336001600160a01b037f000000000000000000000000000000000000000000000000000000000000000016146105fe57604051630cc657bb60e41b81523360048201526001600160a01b037f00000000000000000000000000000000000000000000000000000000000000001660248201526044016104ee565b610606610e9c565b6040517fd4b4dec04aef7dec06383e70811d0865c2dd9ef4448182e30991c1f16d5f712c90600090a1565b336001600160a01b037f000000000000000000000000000000000000000000000000000000000000000016146106ab57604051630cc657bb60e41b81523360048201526001600160a01b037f00000000000000000000000000000000000000000000000000000000000000001660248201526044016104ee565b6106b3610ee9565b7fe5ab1ae3c36bf7408059b477b77c77bb71d639b069c65ad827bfa96f7b3f8eb86040516106fe90602080825260099082015268456d657267656e637960b81b604082015260600190565b60405180910390a1565b6000610712610e6c565b905090565b6107596040518060e001604052806000815260200160008152602001600081526020016000815260200160008152602001600015158152602001600081525090565b6040518060e0016040528060025481526020016003548152602001600454815260200160055481526020016000815260200161079760015460ff1690565b1515815260200143815250905090565b336001600160a01b037f0000000000000000000000000000000000000000000000000000000000000000161461082157604051630cc657bb60e41b81523360048201526001600160a01b037f00000000000000000000000000000000000000000000000000000000000000001660248201526044016104ee565b6001600160a01b03821661084857604051630aaffdf760e31b815260040160405180910390fd5b6001600160a01b0382166000818152600b6020908152604091829020805460ff191685151590811790915591519182527fef3151b6a5db831387326a878aedf3ca24c3be8781462b37f692ea6ea3d78c86910160405180910390a25050565b600080841580156108b6575083155b156108c6575060009050806109e7565b60006127106108d76113888861137f565b6108e19190611396565b905060006127106108f46113888861137f565b6108fe9190611396565b9050600061271061090f878561137f565b6109199190611396565b9050600061271061092a888561137f565b6109349190611396565b60008b8152600a60205260408120549192509069021e19e0c9bab24000001161095e576000610981565b60008b8152600a60205260409020546109819069021e19e0c9bab24000006113b8565b90508083116109905782610992565b805b965081955060006109a1610e6c565b90506103e88110156109e0576127106109ba828a61137f565b6109c49190611396565b97506127106109d3828961137f565b6109dd9190611396565b96505b5050505050505b94509492505050565b6109f8610f24565b336000908152600b602052604090205460ff16158015610a415750336001600160a01b037f00000000000000000000000000000000000000000000000000000000000000001614155b15610a6857604051630cc657bb60e41b8152336004820152600060248201526044016104ee565b81158015610a74575080155b15610a925760405163297279b760e01b815260040160405180910390fd5b8160026000828254610aa491906113cb565b925050819055508060036000828254610abd91906113cb565b925050819055508160066000828254610ad691906113cb565b925050819055508060076000828254610aef91906113cb565b90915550508115610b2f57610b2f6001600160a01b037f000000000000000000000000000000000000000000000000000000000000000016333085610f4e565b8015610b6a57610b6a6001600160a01b037f000000000000000000000000000000000000000000000000000000000000000016333084610f4e565b604080518381526020810183905233917f5ff7d8cdff0131d15cd3138f3e47c904293b272b5fca47932fecb5768273632c910160405180910390a2610baf6001600055565b5050565b600080610bbe610f24565b610bc6610fbb565b336001600160a01b037f00000000000000000000000000000000000000000000000000000000000000001614610c4057604051630cc657bb60e41b81523360048201526001600160a01b037f00000000000000000000000000000000000000000000000000000000000000001660248201526044016104ee565b82356001600160a01b0381166000908152600960205260409020548015801590610c755750610c7262093a80826113cb565b42105b15610c8857600080935093505050610e5d565b610c90610fe1565b600080610cac8735602089013560408a013560608b01356108a7565b91509150816000148015610cbe575080155b15610cd3576000809550955050505050610e5d565b6002548211610ce25781610ce6565b6002545b95506003548111610cf75780610cfb565b6003545b94508560026000828254610d0f91906113b8565b925050819055508460036000828254610d2891906113b8565b925050819055508560046000828254610d4191906113cb565b925050819055508460056000828254610d5a91906113cb565b90915550506001600160a01b038416600090815260096020908152604080832042905589358352600a90915281208054889290610d989084906113cb565b90915550508515610dd757610dd76001600160a01b037f000000000000000000000000000000000000000000000000000000000000000016858861104e565b8415610e1157610e116001600160a01b037f000000000000000000000000000000000000000000000000000000000000000016858761104e565b60408051878152602081018790526001600160a01b038616918935917f5bd1b4cabba31195a675fc15f8b99931efd55c3a3509990ff45d5d4aa5ea658f910160405180910390a3505050505b610e676001600055565b915091565b6000600854600003610e7f575061271090565b600854612710600254610e92919061137f565b6107129190611396565b610ea4611084565b6001805460ff191690557f5db9ee0a495bf2e6ff9c91a7834c1ba4fdd244a5e8aa4e537bd38aeae4b073aa335b6040516001600160a01b0390911681526020016106fe565b610ef1610fbb565b6001805460ff1916811790557f62e78cea01bee320cd4e420270b5ea74000d11b0c9f74754ebdbfc544b05a25833610ed1565b600260005403610f4757604051633ee5aeb560e01b815260040160405180910390fd5b6002600055565b6040516001600160a01b038481166024830152838116604483015260648201839052610fb59186918216906323b872dd906084015b604051602081830303815290604052915060e01b6020820180516001600160e01b0383818316178352505050506110a7565b50505050565b60015460ff1615610fdf5760405163d93c066560e01b815260040160405180910390fd5b565b6101f4610fec610e6c565b1015610fdf57610ffa610ee9565b7fe5ab1ae3c36bf7408059b477b77c77bb71d639b069c65ad827bfa96f7b3f8eb86040516106fe9060208082526012908201527146756e642062656c6f77206d696e696d756d60701b604082015260600190565b6040516001600160a01b0383811660248301526044820183905261107f91859182169063a9059cbb90606401610f83565b505050565b60015460ff16610fdf57604051638dfc202b60e01b815260040160405180910390fd5b60006110bc6001600160a01b0384168361110a565b905080516000141580156110e15750808060200190518101906110df91906113de565b155b1561107f57604051635274afe760e01b81526001600160a01b03841660048201526024016104ee565b606061111883836000611121565b90505b92915050565b6060814710156111465760405163cd78605960e01b81523060048201526024016104ee565b600080856001600160a01b0316848660405161116291906113fb565b60006040518083038185875af1925050503d806000811461119f576040519150601f19603f3d011682016040523d82523d6000602084013e6111a4565b606091505b50915091506111b48683836111c0565b925050505b9392505050565b6060826111d5576111d08261121c565b6111b9565b81511580156111ec57506001600160a01b0384163b155b1561121557604051639996b31560e01b81526001600160a01b03851660048201526024016104ee565b50806111b9565b80511561122c5780518082602001fd5b604051630a12f52160e11b815260040160405180910390fd5b60006020828403121561125757600080fd5b5035919050565b80356001600160a01b038116811461127557600080fd5b919050565b60006020828403121561128c57600080fd5b6111188261125e565b801515811461058157600080fd5b600080604083850312156112b657600080fd5b6112bf8361125e565b915060208301356112cf81611295565b809150509250929050565b600080600080608085870312156112f057600080fd5b5050823594602084013594506040840135936060013592509050565b6000806040838503121561131f57600080fd5b50508035926020909101359150565b60006020828403121561134057600080fd5b813567ffffffffffffffff81111561135757600080fd5b820160a081850312156111b957600080fd5b634e487b7160e01b600052601160045260246000fd5b808202811582820484141761111b5761111b611369565b6000826113b357634e487b7160e01b600052601260045260246000fd5b500490565b8181038181111561111b5761111b611369565b8082018082111561111b5761111b611369565b6000602082840312156113f057600080fd5b81516111b981611295565b6000825160005b8181101561141c5760208186018101518583015201611402565b50600092019182525091905056fea26469706673582212206e9ff5f56e02acdfdf9a6e6cfc2066a9253b65e28d85a835514ffbec8b9c842164736f6c634300081a0033","linkReferences":{}},"methodIdentifiers":{"BPS()":"249d39e9","CLAIM_COOLDOWN()":"37c909ec","MAX_CLAIM_BPS()":"1fcf1db2","MAX_SINGLE_CLAIM_USD()":"bb27b8ae","MIN_FUND_RATIO_BPS()":"2f3d5bfd","authorizedDepositors(address)":"72402e00","autoCompounder()":"0a2e4835","deposit(uint256,uint256)":"e2bbb158","emergencyPause()":"51858e27","emergencyUnpause()":"4a4e3bd5","fundBalance0()":"1a158d8d","fundBalance1()":"3768cc16","getFundHealthBps()":"575c5c60","getFundState()":"8a5f969c","getMaxClaim(bytes32,uint256,uint256,uint256)":"8ffd8cbb","lastClaimTime(address)":"b77cf9c6","owner()":"8da5cb5b","paused()":"5c975abb","positionClaimed0(bytes32)":"3296b182","setAuthorizedDepositor(address,bool)":"8efc9dfa","submitClaim((bytes32,uint256,uint256,uint256,bytes))":"e2defcaf","token0()":"0dfe1681","token1()":"d21220a7","totalDeposited0()":"09f99b99","totalDeposited1()":"2c354142","totalPaidOut0()":"5c06f684","totalPaidOut1()":"9ef1be68","totalTVL()":"a8bc6f7c","updateTVL(uint256)":"4a02893c"},"id":29}