{"abi":[{"type":"constructor","inputs":[{"name":"_asset","type":"address","internalType":"address"},{"name":"_owner","type":"address","internalType":"address"},{"name":"_name","type":"string","internalType":"string"},{"name":"_symbol","type":"string","internalType":"string"}],"stateMutability":"nonpayable"},{"type":"function","name":"BPS","inputs":[],"outputs":[{"name":"","type":"uint256","internalType":"uint256"}],"stateMutability":"view"},{"type":"function","name":"CLAIM_COOLDOWN","inputs":[],"outputs":[{"name":"","type":"uint256","internalType":"uint256"}],"stateMutability":"view"},{"type":"function","name":"MAX_CLAIM_BPS","inputs":[],"outputs":[{"name":"","type":"uint256","internalType":"uint256"}],"stateMutability":"view"},{"type":"function","name":"MAX_SINGLE_CLAIM","inputs":[],"outputs":[{"name":"","type":"uint256","internalType":"uint256"}],"stateMutability":"view"},{"type":"function","name":"MIN_FUND_HEALTH_BPS","inputs":[],"outputs":[{"name":"","type":"uint256","internalType":"uint256"}],"stateMutability":"view"},{"type":"function","name":"allowance","inputs":[{"name":"owner","type":"address","internalType":"address"},{"name":"spender","type":"address","internalType":"address"}],"outputs":[{"name":"","type":"uint256","internalType":"uint256"}],"stateMutability":"view"},{"type":"function","name":"approve","inputs":[{"name":"spender","type":"address","internalType":"address"},{"name":"value","type":"uint256","internalType":"uint256"}],"outputs":[{"name":"","type":"bool","internalType":"bool"}],"stateMutability":"nonpayable"},{"type":"function","name":"asset","inputs":[],"outputs":[{"name":"","type":"address","internalType":"address"}],"stateMutability":"view"},{"type":"function","name":"authorizedDepositors","inputs":[{"name":"","type":"address","internalType":"address"}],"outputs":[{"name":"","type":"bool","internalType":"bool"}],"stateMutability":"view"},{"type":"function","name":"balanceOf","inputs":[{"name":"account","type":"address","internalType":"address"}],"outputs":[{"name":"","type":"uint256","internalType":"uint256"}],"stateMutability":"view"},{"type":"function","name":"convertToAssets","inputs":[{"name":"shares","type":"uint256","internalType":"uint256"}],"outputs":[{"name":"","type":"uint256","internalType":"uint256"}],"stateMutability":"view"},{"type":"function","name":"convertToShares","inputs":[{"name":"assets","type":"uint256","internalType":"uint256"}],"outputs":[{"name":"","type":"uint256","internalType":"uint256"}],"stateMutability":"view"},{"type":"function","name":"decimals","inputs":[],"outputs":[{"name":"","type":"uint8","internalType":"uint8"}],"stateMutability":"view"},{"type":"function","name":"deposit","inputs":[{"name":"assets","type":"uint256","internalType":"uint256"},{"name":"receiver","type":"address","internalType":"address"}],"outputs":[{"name":"","type":"uint256","internalType":"uint256"}],"stateMutability":"nonpayable"},{"type":"function","name":"depositFee","inputs":[{"name":"amount","type":"uint256","internalType":"uint256"}],"outputs":[],"stateMutability":"nonpayable"},{"type":"function","name":"emergencyPause","inputs":[],"outputs":[],"stateMutability":"nonpayable"},{"type":"function","name":"emergencyUnpause","inputs":[],"outputs":[],"stateMutability":"nonpayable"},{"type":"function","name":"getFundHealthBps","inputs":[],"outputs":[{"name":"","type":"uint256","internalType":"uint256"}],"stateMutability":"view"},{"type":"function","name":"getFundState","inputs":[],"outputs":[{"name":"","type":"tuple","internalType":"struct InsuranceFundState","components":[{"name":"balance0","type":"uint256","internalType":"uint256"},{"name":"balance1","type":"uint256","internalType":"uint256"},{"name":"totalClaimed0","type":"uint256","internalType":"uint256"},{"name":"totalClaimed1","type":"uint256","internalType":"uint256"},{"name":"pendingClaims","type":"uint256","internalType":"uint256"},{"name":"claimsSuspended","type":"bool","internalType":"bool"},{"name":"lastUpdatedBlock","type":"uint256","internalType":"uint256"}]}],"stateMutability":"view"},{"type":"function","name":"getMaxClaim","inputs":[{"name":"positionId","type":"bytes32","internalType":"bytes32"},{"name":"ilAmountUSD","type":"uint256","internalType":"uint256"},{"name":"","type":"uint256","internalType":"uint256"},{"name":"loyaltyScore","type":"uint256","internalType":"uint256"}],"outputs":[{"name":"maxToken0","type":"uint256","internalType":"uint256"},{"name":"maxToken1","type":"uint256","internalType":"uint256"}],"stateMutability":"view"},{"type":"function","name":"lastClaimTime","inputs":[{"name":"","type":"address","internalType":"address"}],"outputs":[{"name":"","type":"uint256","internalType":"uint256"}],"stateMutability":"view"},{"type":"function","name":"maxDeposit","inputs":[{"name":"","type":"address","internalType":"address"}],"outputs":[{"name":"","type":"uint256","internalType":"uint256"}],"stateMutability":"view"},{"type":"function","name":"maxMint","inputs":[{"name":"","type":"address","internalType":"address"}],"outputs":[{"name":"","type":"uint256","internalType":"uint256"}],"stateMutability":"view"},{"type":"function","name":"maxRedeem","inputs":[{"name":"owner","type":"address","internalType":"address"}],"outputs":[{"name":"","type":"uint256","internalType":"uint256"}],"stateMutability":"view"},{"type":"function","name":"maxWithdraw","inputs":[{"name":"owner","type":"address","internalType":"address"}],"outputs":[{"name":"","type":"uint256","internalType":"uint256"}],"stateMutability":"view"},{"type":"function","name":"mint","inputs":[{"name":"shares","type":"uint256","internalType":"uint256"},{"name":"receiver","type":"address","internalType":"address"}],"outputs":[{"name":"","type":"uint256","internalType":"uint256"}],"stateMutability":"nonpayable"},{"type":"function","name":"name","inputs":[],"outputs":[{"name":"","type":"string","internalType":"string"}],"stateMutability":"view"},{"type":"function","name":"owner","inputs":[],"outputs":[{"name":"","type":"address","internalType":"address"}],"stateMutability":"view"},{"type":"function","name":"paused","inputs":[],"outputs":[{"name":"","type":"bool","internalType":"bool"}],"stateMutability":"view"},{"type":"function","name":"positionTotalClaimed","inputs":[{"name":"","type":"bytes32","internalType":"bytes32"}],"outputs":[{"name":"","type":"uint256","internalType":"uint256"}],"stateMutability":"view"},{"type":"function","name":"previewDeposit","inputs":[{"name":"assets","type":"uint256","internalType":"uint256"}],"outputs":[{"name":"","type":"uint256","internalType":"uint256"}],"stateMutability":"view"},{"type":"function","name":"previewMint","inputs":[{"name":"shares","type":"uint256","internalType":"uint256"}],"outputs":[{"name":"","type":"uint256","internalType":"uint256"}],"stateMutability":"view"},{"type":"function","name":"previewRedeem","inputs":[{"name":"shares","type":"uint256","internalType":"uint256"}],"outputs":[{"name":"","type":"uint256","internalType":"uint256"}],"stateMutability":"view"},{"type":"function","name":"previewWithdraw","inputs":[{"name":"assets","type":"uint256","internalType":"uint256"}],"outputs":[{"name":"","type":"uint256","internalType":"uint256"}],"stateMutability":"view"},{"type":"function","name":"redeem","inputs":[{"name":"shares","type":"uint256","internalType":"uint256"},{"name":"receiver","type":"address","internalType":"address"},{"name":"owner","type":"address","internalType":"address"}],"outputs":[{"name":"","type":"uint256","internalType":"uint256"}],"stateMutability":"nonpayable"},{"type":"function","name":"setAuthorizedDepositor","inputs":[{"name":"depositor","type":"address","internalType":"address"},{"name":"authorized","type":"bool","internalType":"bool"}],"outputs":[],"stateMutability":"nonpayable"},{"type":"function","name":"submitClaim","inputs":[{"name":"claim","type":"tuple","internalType":"struct InsuranceClaim","components":[{"name":"positionId","type":"bytes32","internalType":"bytes32"},{"name":"recipient","type":"address","internalType":"address"},{"name":"ilAmountUSD","type":"uint256","internalType":"uint256"},{"name":"loyaltyScore","type":"uint256","internalType":"uint256"},{"name":"proof","type":"bytes","internalType":"bytes"}]}],"outputs":[{"name":"compensated0","type":"uint256","internalType":"uint256"},{"name":"compensated1","type":"uint256","internalType":"uint256"}],"stateMutability":"nonpayable"},{"type":"function","name":"symbol","inputs":[],"outputs":[{"name":"","type":"string","internalType":"string"}],"stateMutability":"view"},{"type":"function","name":"totalAssets","inputs":[],"outputs":[{"name":"","type":"uint256","internalType":"uint256"}],"stateMutability":"view"},{"type":"function","name":"totalFeeIncome","inputs":[],"outputs":[{"name":"","type":"uint256","internalType":"uint256"}],"stateMutability":"view"},{"type":"function","name":"totalPaidOut","inputs":[],"outputs":[{"name":"","type":"uint256","internalType":"uint256"}],"stateMutability":"view"},{"type":"function","name":"totalSupply","inputs":[],"outputs":[{"name":"","type":"uint256","internalType":"uint256"}],"stateMutability":"view"},{"type":"function","name":"totalTVL","inputs":[],"outputs":[{"name":"","type":"uint256","internalType":"uint256"}],"stateMutability":"view"},{"type":"function","name":"transfer","inputs":[{"name":"to","type":"address","internalType":"address"},{"name":"value","type":"uint256","internalType":"uint256"}],"outputs":[{"name":"","type":"bool","internalType":"bool"}],"stateMutability":"nonpayable"},{"type":"function","name":"transferFrom","inputs":[{"name":"from","type":"address","internalType":"address"},{"name":"to","type":"address","internalType":"address"},{"name":"value","type":"uint256","internalType":"uint256"}],"outputs":[{"name":"","type":"bool","internalType":"bool"}],"stateMutability":"nonpayable"},{"type":"function","name":"updateTVL","inputs":[{"name":"newTVL","type":"uint256","internalType":"uint256"}],"outputs":[],"stateMutability":"nonpayable"},{"type":"function","name":"withdraw","inputs":[{"name":"assets","type":"uint256","internalType":"uint256"},{"name":"receiver","type":"address","internalType":"address"},{"name":"owner","type":"address","internalType":"address"}],"outputs":[{"name":"","type":"uint256","internalType":"uint256"}],"stateMutability":"nonpayable"},{"type":"event","name":"Approval","inputs":[{"name":"owner","type":"address","indexed":true,"internalType":"address"},{"name":"spender","type":"address","indexed":true,"internalType":"address"},{"name":"value","type":"uint256","indexed":false,"internalType":"uint256"}],"anonymous":false},{"type":"event","name":"ClaimPaid","inputs":[{"name":"positionId","type":"bytes32","indexed":true,"internalType":"bytes32"},{"name":"recipient","type":"address","indexed":true,"internalType":"address"},{"name":"amount0","type":"uint256","indexed":false,"internalType":"uint256"},{"name":"amount1","type":"uint256","indexed":false,"internalType":"uint256"}],"anonymous":false},{"type":"event","name":"ClaimsResumed","inputs":[],"anonymous":false},{"type":"event","name":"ClaimsSuspended","inputs":[{"name":"reason","type":"string","indexed":false,"internalType":"string"}],"anonymous":false},{"type":"event","name":"Deposit","inputs":[{"name":"sender","type":"address","indexed":true,"internalType":"address"},{"name":"owner","type":"address","indexed":true,"internalType":"address"},{"name":"assets","type":"uint256","indexed":false,"internalType":"uint256"},{"name":"shares","type":"uint256","indexed":false,"internalType":"uint256"}],"anonymous":false},{"type":"event","name":"FeeDeposited","inputs":[{"name":"source","type":"address","indexed":true,"internalType":"address"},{"name":"amount","type":"uint256","indexed":false,"internalType":"uint256"}],"anonymous":false},{"type":"event","name":"Paused","inputs":[{"name":"account","type":"address","indexed":false,"internalType":"address"}],"anonymous":false},{"type":"event","name":"Transfer","inputs":[{"name":"from","type":"address","indexed":true,"internalType":"address"},{"name":"to","type":"address","indexed":true,"internalType":"address"},{"name":"value","type":"uint256","indexed":false,"internalType":"uint256"}],"anonymous":false},{"type":"event","name":"Unpaused","inputs":[{"name":"account","type":"address","indexed":false,"internalType":"address"}],"anonymous":false},{"type":"event","name":"Withdraw","inputs":[{"name":"sender","type":"address","indexed":true,"internalType":"address"},{"name":"receiver","type":"address","indexed":true,"internalType":"address"},{"name":"owner","type":"address","indexed":true,"internalType":"address"},{"name":"assets","type":"uint256","indexed":false,"internalType":"uint256"},{"name":"shares","type":"uint256","indexed":false,"internalType":"uint256"}],"anonymous":false},{"type":"error","name":"ERC20InsufficientAllowance","inputs":[{"name":"spender","type":"address","internalType":"address"},{"name":"allowance","type":"uint256","internalType":"uint256"},{"name":"needed","type":"uint256","internalType":"uint256"}]},{"type":"error","name":"ERC20InsufficientBalance","inputs":[{"name":"sender","type":"address","internalType":"address"},{"name":"balance","type":"uint256","internalType":"uint256"},{"name":"needed","type":"uint256","internalType":"uint256"}]},{"type":"error","name":"ERC20InvalidApprover","inputs":[{"name":"approver","type":"address","internalType":"address"}]},{"type":"error","name":"ERC20InvalidReceiver","inputs":[{"name":"receiver","type":"address","internalType":"address"}]},{"type":"error","name":"ERC20InvalidSender","inputs":[{"name":"sender","type":"address","internalType":"address"}]},{"type":"error","name":"ERC20InvalidSpender","inputs":[{"name":"spender","type":"address","internalType":"address"}]},{"type":"error","name":"ERC4626ExceededMaxDeposit","inputs":[{"name":"receiver","type":"address","internalType":"address"},{"name":"assets","type":"uint256","internalType":"uint256"},{"name":"max","type":"uint256","internalType":"uint256"}]},{"type":"error","name":"ERC4626ExceededMaxMint","inputs":[{"name":"receiver","type":"address","internalType":"address"},{"name":"shares","type":"uint256","internalType":"uint256"},{"name":"max","type":"uint256","internalType":"uint256"}]},{"type":"error","name":"ERC4626ExceededMaxRedeem","inputs":[{"name":"owner","type":"address","internalType":"address"},{"name":"shares","type":"uint256","internalType":"uint256"},{"name":"max","type":"uint256","internalType":"uint256"}]},{"type":"error","name":"ERC4626ExceededMaxWithdraw","inputs":[{"name":"owner","type":"address","internalType":"address"},{"name":"assets","type":"uint256","internalType":"uint256"},{"name":"max","type":"uint256","internalType":"uint256"}]},{"type":"error","name":"EnforcedPause","inputs":[]},{"type":"error","name":"ExpectedPause","inputs":[]},{"type":"error","name":"ReentrancyGuardReentrantCall","inputs":[]},{"type":"error","name":"SafeERC20FailedOperation","inputs":[{"name":"token","type":"address","internalType":"address"}]},{"type":"error","name":"Xenorize__Unauthorized","inputs":[{"name":"caller","type":"address","internalType":"address"},{"name":"required","type":"address","internalType":"address"}]},{"type":"error","name":"Xenorize__ZeroAddress","inputs":[]},{"type":"error","name":"Xenorize__ZeroAmount","inputs":[]}],"bytecode":{"object":"0x60e060405234610464576121958038038061001981610468565b928339810190608081830312610464576100328161048d565b9061003f6020820161048d565b60408201519091906001600160401b03811161046457846100619183016104a1565b60608201519094906001600160401b0381116104645761008192016104a1565b835190926001600160a01b0316906001600160401b03811161037557600354600181811c9116801561045a575b602082101461035757601f81116103f7575b50602094601f8211600114610394579481929394955f92610389575b50508160011b915f199060031b1c1916176003555b82516001600160401b03811161037557600454600181811c9116801561036b575b602082101461035757601f81116102f4575b506020601f821160011461029157819293945f92610286575b50508160011b915f199060031b1c1916176004555b63313ce56760e01b5f5260205f600481845afa5f5190601f3d1116610100821016801561027d57025b60a0528060805260017f9b779b17422d0df92223018b32b4d1fa46e071723d6817e2486d003becc55f005515801561026c575b61025d5760c08190526001600160a01b03165f908152600b602052604090819020805460ff1916600117905551611ca290816104f3823960805181818161075b01528181610c8701528181610d83015281816111cd015281816112c5015281816117bc015281816118570152611ae2015260a05181610de3015260c051818181610632015281816106c80152818161093c015281816109ec01528181610ab801528181610c130152610d150152f35b630aaffdf760e31b5f5260045ffd5b506001600160a01b038116156101ae565b5050601261017b565b015190505f8061013d565b601f1982169060045f52805f20915f5b8181106102dc575095836001959697106102c4575b505050811b01600455610152565b01515f1960f88460031b161c191690555f80806102b6565b9192602060018192868b0151815501940192016102a1565b60045f527f8a35acfbc15ff81a39ae7d344fd709f28e8600b4aa8c65c6b64bfe7fe36bd19b601f830160051c8101916020841061034d575b601f0160051c01905b8181106103425750610124565b5f8155600101610335565b909150819061032c565b634e487b7160e01b5f52602260045260245ffd5b90607f1690610112565b634e487b7160e01b5f52604160045260245ffd5b015190505f806100dc565b601f1982169560035f52805f20915f5b8881106103df575083600195969798106103c7575b505050811b016003556100f1565b01515f1960f88460031b161c191690555f80806103b9565b919260206001819286850151815501940192016103a4565b60035f527fc2575a0e9e593c00f959f8c92f12db2869c3395a3b0502d05e2516446f71f85b601f830160051c81019160208410610450575b601f0160051c01905b81811061044557506100c0565b5f8155600101610438565b909150819061042f565b90607f16906100ae565b5f80fd5b6040519190601f01601f191682016001600160401b0381118382101761037557604052565b51906001600160a01b038216820361046457565b81601f82011215610464578051906001600160401b038211610375576104d0601f8301601f1916602001610468565b928284526020838301011161046457815f9260208093018386015e830101529056fe60806040526004361015610011575f80fd5b5f3560e01c806301e1d1141461105557806306fdde0314610f9a57806307a2d13a14610aa1578063095ea7b314610ef25780630a28a47714610ed45780631357e1dc14610eb757806318160ddd14610e9a5780631fcf1db214610e7e57806323b872dd14610e46578063249d39e914610e2a578063313ce56714610dcf57806337c909ec14610db257806338d52e0f14610d6e578063402d267d146102dd578063419d8b8e14610d44578063423c485a14610c425780634a02893c14610b5a5780634a4e3bd514610aa65780634cdad50614610aa157806351858e27146109da578063575c5c60146109c05780635c975abb1461099e5780636e553f651461096b57806370a0823114610277578063710a6ab71461089a57806372402e001461085d57806374e77345146108405780638a5f969c146106f75780638da5cb5b146106b35780638efc9dfa146106095780638ffd8cbb146105d857806394bf804d146105a557806395d89b41146104a157806396e43a7514610485578063a8bc6f7c14610468578063a9059cbb14610437578063b3d7f6b914610419578063b460af94146103aa578063b77cf9c614610372578063ba08765214610306578063bf3c6e35146102e2578063c63d75b6146102dd578063c6e6f5921461021e578063ce96cb77146102b7578063d905777e14610277578063dd62ed3e146102235763ef8b30f71461021e575f80fd5b611142565b346102735760403660031901126102735761023c6110b7565b6102446110cd565b6001600160a01b039182165f908152600160209081526040808320949093168252928352819020549051908152f35b5f80fd5b346102735760203660031901126102735760206102af6102956110b7565b6001600160a01b03165f9081526020819052604090205490565b604051908152f35b346102735760203660031901126102735760206102af6102d86102956110b7565b6114b4565b6110e3565b34610273575f36600319011261027357602060405169021e19e0c9bab24000008152f35b346102735761031436611108565b90916103308260018060a01b03165f525f60205260405f205490565b8082116103515750806020936103486102af936114b4565b93849133611a3d565b91632e52afbb60e21b5f5260018060a01b031660045260245260445260645ffd5b34610273576020366003190112610273576001600160a01b036103936110b7565b165f526009602052602060405f2054604051908152f35b34610273576103b836611108565b90916103d76102d88360018060a01b03165f525f60205260405f205490565b8082116103f85750602092816103ef6102af936114e1565b93849233611a3d565b91633fa733bb60e21b5f5260018060a01b031660045260245260445260645ffd5b346102735760203660031901126102735760206102af600435611483565b346102735760403660031901126102735761045d6104536110b7565b60243590336115df565b602060405160018152f35b34610273575f366003190112610273576020600654604051908152f35b34610273575f3660031901126102735760206040516101f48152f35b34610273575f366003190112610273576040515f6004548060011c9060018116801561059b575b602083108114610587578285529081156105635750600114610505575b610501836104f581850382611190565b6040519182918261106f565b0390f35b91905060045f527f8a35acfbc15ff81a39ae7d344fd709f28e8600b4aa8c65c6b64bfe7fe36bd19b915f905b808210610549575090915081016020016104f56104e5565b919260018160209254838588010152019101909291610531565b60ff191660208086019190915291151560051b840190910191506104f590506104e5565b634e487b7160e01b5f52602260045260245ffd5b91607f16916104c8565b346102735760403660031901126102735760206004356102af6105c66110cd565b916105d081611483565b80933361184e565b346102735760803660031901126102735760406105fc606435602435600435611935565b81519081525f6020820152f35b34610273576040366003190112610273576106226110b7565b60243590811515809203610273577f00000000000000000000000000000000000000000000000000000000000000006001600160a01b03163381900361069d57506001600160a01b0316801561068e575f52600b60205260405f209060ff801983541691161790555f80f35b630aaffdf760e31b5f5260045ffd5b630cc657bb60e41b5f523360045260245260445ffd5b34610273575f366003190112610273576040517f00000000000000000000000000000000000000000000000000000000000000006001600160a01b03168152602090f35b34610273575f366003190112610273575f60c060405161071681611160565b8281528260208201528260408201528260608201528260808201528260a082015201526040516370a0823160e01b815230600482015260208160248160018060a01b037f0000000000000000000000000000000000000000000000000000000000000000165afa8015610835575f90610802575b60e09060075460ff600554166040516107a281611160565b83815260208101925f84526040820190815260608201905f825260c060808401935f855260a081019515158652019443865260405196875251602087015251604086015251606085015251608084015251151560a08301525160c0820152f35b506020813d60201161082d575b8161081c60209383611190565b810103126102735760e0905161078a565b3d915061080f565b6040513d5f823e3d90fd5b34610273575f366003190112610273576020600854604051908152f35b34610273576020366003190112610273576001600160a01b0361087e6110b7565b165f52600b602052602060ff60405f2054166040519015158152f35b346102735760203660031901126102735760043567ffffffffffffffff81116102735760a06003198236030112610273576108d361169c565b6108db61191a565b335f52600b60205260ff60405f2054161580610938575b61092157610904604091600401611244565b60015f80516020611c4d8339815191525582519182526020820152f35b630cc657bb60e41b5f52336004525f60245260445ffd5b50337f00000000000000000000000000000000000000000000000000000000000000006001600160a01b031614156108f2565b346102735760403660031901126102735760206004356102af61098c6110cd565b6109958361150f565b9283913361184e565b34610273575f36600319011261027357602060ff600554166040519015158152f35b34610273575f3660031901126102735760206102af611797565b34610273575f366003190112610273577f00000000000000000000000000000000000000000000000000000000000000006001600160a01b03163381900361069d57610a2461191a565b600160ff1960055416176005557f62e78cea01bee320cd4e420270b5ea74000d11b0c9f74754ebdbfc544b05a2586020604051338152a17fe5ab1ae3c36bf7408059b477b77c77bb71d639b069c65ad827bfa96f7b3f8eb86060604051602081526009602082015268456d657267656e637960b81b6040820152a1005b611099565b34610273575f366003190112610273577f00000000000000000000000000000000000000000000000000000000000000006001600160a01b03163381900361069d5760055460ff811615610b4b5760ff19166005557f5db9ee0a495bf2e6ff9c91a7834c1ba4fdd244a5e8aa4e537bd38aeae4b073aa6020604051338152a17fd4b4dec04aef7dec06383e70811d0865c2dd9ef4448182e30991c1f16d5f712c5f80a1005b638dfc202b60e01b5f5260045ffd5b3461027357602036600319011261027357335f52600b60205260ff60405f2054161580610c0f575b6109215760043560065560055460ff81168080610bfc575b610ba057005b15610b4b5760ff19166005557f5db9ee0a495bf2e6ff9c91a7834c1ba4fdd244a5e8aa4e537bd38aeae4b073aa6020604051338152a17fd4b4dec04aef7dec06383e70811d0865c2dd9ef4448182e30991c1f16d5f712c5f80a1005b506101f4610c08611797565b1015610b9a565b50337f00000000000000000000000000000000000000000000000000000000000000006001600160a01b03161415610b82565b3461027357602036600319011261027357600435610c5e61169c565b335f52600b60205260ff60405f2054161580610d11575b610921578015610d0257610cb48130337f00000000000000000000000000000000000000000000000000000000000000006001600160a01b03166116d4565b610cc081600854611237565b6008556040519081527f630c125b5b9a3b15925e9e1a35a6032d751b7b3377cca746663d5c45094e91d160203392a260015f80516020611c4d83398151915255005b63297279b760e01b5f5260045ffd5b50337f00000000000000000000000000000000000000000000000000000000000000006001600160a01b03161415610c75565b34610273576020366003190112610273576004355f52600a602052602060405f2054604051908152f35b34610273575f366003190112610273576040517f00000000000000000000000000000000000000000000000000000000000000006001600160a01b03168152602090f35b34610273575f36600319011261027357602060405162093a808152f35b34610273575f3660031901126102735760ff7f00000000000000000000000000000000000000000000000000000000000000001660ff8111610e1657602090604051908152f35b634e487b7160e01b5f52601160045260245ffd5b34610273575f3660031901126102735760206040516127108152f35b346102735760603660031901126102735761045d610e626110b7565b610e6a6110cd565b60443591610e7983338361153c565b6115df565b34610273575f3660031901126102735760206040516113888152f35b34610273575f366003190112610273576020600254604051908152f35b34610273575f366003190112610273576020600754604051908152f35b346102735760203660031901126102735760206102af6004356114e1565b3461027357604036600319011261027357610f0b6110b7565b602435903315610f87576001600160a01b0316908115610f7457335f52600160205260405f20825f526020528060405f20556040519081527f8c5be1e5ebec7d5bd14f71427d1e84f3dd0314c0f7b2291e5b200ac8c7c3b92560203392a3602060405160018152f35b634a1406b160e11b5f525f60045260245ffd5b63e602df0560e01b5f525f60045260245ffd5b34610273575f366003190112610273576040515f6003548060011c9060018116801561104b575b602083108114610587578285529081156105635750600114610fed57610501836104f581850382611190565b91905060035f527fc2575a0e9e593c00f959f8c92f12db2869c3395a3b0502d05e2516446f71f85b915f905b808210611031575090915081016020016104f56104e5565b919260018160209254838588010152019101909291611019565b91607f1691610fc1565b34610273575f3660031901126102735760206102af6111b2565b602060409281835280519182918282860152018484015e5f828201840152601f01601f1916010190565b346102735760203660031901126102735760206102af6004356114b4565b600435906001600160a01b038216820361027357565b602435906001600160a01b038216820361027357565b34610273576020366003190112610273576110fc6110b7565b5060206040515f198152f35b606090600319011261027357600435906024356001600160a01b038116810361027357906044356001600160a01b03811681036102735790565b346102735760203660031901126102735760206102af60043561150f565b60e0810190811067ffffffffffffffff82111761117c57604052565b634e487b7160e01b5f52604160045260245ffd5b90601f8019910116810190811067ffffffffffffffff82111761117c57604052565b6040516370a0823160e01b81523060048201526020816024817f00000000000000000000000000000000000000000000000000000000000000006001600160a01b03165afa908115610835575f91611208575090565b90506020813d60201161122f575b8161122360209383611190565b81010312610273575190565b3d9150611216565b91908201809211610e1657565b906020820135906001600160a01b03821680830361027357801561147a57805f52600960205260405f205462093a808101809111610e1657421061147a576101f461128d611797565b106113de575b6112a98435946040606082013591013586611935565b9384156113d4576040516370a0823160e01b81523060048201527f00000000000000000000000000000000000000000000000000000000000000006001600160a01b0316956020826024818a5afa918215610835575f926113a0575b50818111156113985750935b84955f951561138c5761135b91879161132c83600754611237565b600755855f5260096020524260405f2055845f52600a60205260405f20611354848254611237565b90556119e5565b7f5bd1b4cabba31195a675fc15f8b99931efd55c3a3509990ff45d5d4aa5ea658f604080518781525f6020820152a3565b505f9550859450505050565b905093611311565b9091506020813d6020116113cc575b816113bc60209383611190565b810103126102735751905f611305565b3d91506113af565b505f935083925050565b6113e661191a565b600160ff1960055416176005557f62e78cea01bee320cd4e420270b5ea74000d11b0c9f74754ebdbfc544b05a2586020604051338152a17fe5ab1ae3c36bf7408059b477b77c77bb71d639b069c65ad827bfa96f7b3f8eb8606060405160208152601860208201527f46756e642062656c6f77206d696e696d756d20726174696f00000000000000006040820152a1611293565b505f9250829150565b61148b6111b2565b9060018201809211610e165760025460018101809111610e16576114b192600192611b50565b90565b6114bc6111b2565b9060018201809211610e165760025460018101809111610e16576114b1925f92611b50565b6002549060018201809211610e16576114f86111b2565b60018101809111610e16576114b192600192611b50565b6002549060018201809211610e16576115266111b2565b60018101809111610e16576114b1925f92611b50565b6001600160a01b039081165f818152600160209081526040808320948616835293905291909120549291905f198410611576575b50505050565b8284106115bc578015610f87576001600160a01b03821615610f74575f52600160205260405f209060018060a01b03165f5260205260405f20910390555f808080611570565b508290637dc7a0d960e11b5f5260018060a01b031660045260245260445260645ffd5b6001600160a01b0316908115611689576001600160a01b031691821561167657815f525f60205260405f205481811061165d57817fddf252ad1be2c89b69c2b068fc378daa952ba7f163c4a11628f55a4df523b3ef92602092855f525f84520360405f2055845f525f825260405f20818154019055604051908152a3565b8263391434e360e21b5f5260045260245260445260645ffd5b63ec442f0560e01b5f525f60045260245ffd5b634b637e8f60e11b5f525f60045260245ffd5b60025f80516020611c4d83398151915254146116c55760025f80516020611c4d83398151915255565b633ee5aeb560e01b5f5260045ffd5b6040516323b872dd60e01b5f9081526001600160a01b039384166004529290931660245260449390935260209060648180865af19060015f5114821615611745575b6040525f606052156117255750565b635274afe760e01b5f9081526001600160a01b0391909116600452602490fd5b90600181151661175d57823b15153d15161690611716565b503d5f823e3d90fd5b81810292918115918404141715610e1657565b8115611783570490565b634e487b7160e01b5f52601260045260245ffd5b6006548015611847576040516370a0823160e01b8152306004820152906020826024817f00000000000000000000000000000000000000000000000000000000000000006001600160a01b03165afa918215610835575f92611813575b506127108202918083046127101490151715610e16576114b191611779565b9091506020813d60201161183f575b8161182f60209383611190565b810103126102735751905f6117f4565b3d9150611822565b5061271090565b906118848330847f00000000000000000000000000000000000000000000000000000000000000006001600160a01b03166116d4565b6001600160a01b0316928315611676577fdcbc1c05240f31ff3ad067ef1ee35ce4997762752e3a095284754544f4c709d791816118c5604093600254611237565b600255855f525f602052825f20818154019055855f7fddf252ad1be2c89b69c2b068fc378daa952ba7f163c4a11628f55a4df523b3ef60208651858152a3825194855260208501526001600160a01b031692a3565b60ff6005541661192657565b63d93c066560e01b5f5260045ffd5b919080156119de57611388810290810461138803610e1657612710918261195c9204611766565b04905f52600a60205260405f20548069021e19e0c9bab2400000115f146119d75769021e19e0c9bab24000000369021e19e0c9bab24000008111610e16575b808210156119d057505b806119ae611797565b906103e882106119bd57505090565b6127109250906119cc91611766565b0490565b90506119a5565b505f61199b565b5050505f90565b916040519163a9059cbb60e01b5f5260018060a01b031660045260245260205f60448180865af19060015f5114821615611a25575b604052156117255750565b90600181151661175d57823b15153d15161690611a1a565b6001600160a01b03808416959082169390918290878603611b3f575b505050841561168957845f525f60205260405f2054818110611b265791816040927ffbde797d201c681b91056529119e0b02407c7bb96a4a2c75c01fc9667232c8db94885f525f60205203835f205580600254036002555f877fddf252ad1be2c89b69c2b068fc378daa952ba7f163c4a11628f55a4df523b3ef60208651858152a3611b0f86837f00000000000000000000000000000000000000000000000000000000000000006001600160a01b03166119e5565b825195865260208601526001600160a01b031693a4565b8563391434e360e21b5f5260045260245260445260645ffd5b611b489261153c565b5f8181611a59565b9291611b5d818386611bae565b926004811015611b9a576001809116149182611b83575b50506114b19250151590611237565b9080925015611783576114b1930915155f80611b74565b634e487b7160e01b5f52602160045260245ffd5b90915f198383099280830292838086109503948086039514611c3f5784831115611c275790829109815f0382168092046002816003021880820260020302808202600203028082026002030280820260020302808202600203028091026002030293600183805f03040190848311900302920304170290565b82634e487b715f52156003026011186020526024601cfd5b5050906114b1925061177956fe9b779b17422d0df92223018b32b4d1fa46e071723d6817e2486d003becc55f00a2646970667358221220bdbed1074a94a79ae6dfc9b7cde959d48d7ef6646c66baf08aaecf851afe1d6864736f6c634300081a0033","linkReferences":{}},"methodIdentifiers":{"BPS()":"249d39e9","CLAIM_COOLDOWN()":"37c909ec","MAX_CLAIM_BPS()":"1fcf1db2","MAX_SINGLE_CLAIM()":"bf3c6e35","MIN_FUND_HEALTH_BPS()":"96e43a75","allowance(address,address)":"dd62ed3e","approve(address,uint256)":"095ea7b3","asset()":"38d52e0f","authorizedDepositors(address)":"72402e00","balanceOf(address)":"70a08231","convertToAssets(uint256)":"07a2d13a","convertToShares(uint256)":"c6e6f592","decimals()":"313ce567","deposit(uint256,address)":"6e553f65","depositFee(uint256)":"423c485a","emergencyPause()":"51858e27","emergencyUnpause()":"4a4e3bd5","getFundHealthBps()":"575c5c60","getFundState()":"8a5f969c","getMaxClaim(bytes32,uint256,uint256,uint256)":"8ffd8cbb","lastClaimTime(address)":"b77cf9c6","maxDeposit(address)":"402d267d","maxMint(address)":"c63d75b6","maxRedeem(address)":"d905777e","maxWithdraw(address)":"ce96cb77","mint(uint256,address)":"94bf804d","name()":"06fdde03","owner()":"8da5cb5b","paused()":"5c975abb","positionTotalClaimed(bytes32)":"419d8b8e","previewDeposit(uint256)":"ef8b30f7","previewMint(uint256)":"b3d7f6b9","previewRedeem(uint256)":"4cdad506","previewWithdraw(uint256)":"0a28a477","redeem(uint256,address,address)":"ba087652","setAuthorizedDepositor(address,bool)":"8efc9dfa","submitClaim((bytes32,address,uint256,uint256,bytes))":"710a6ab7","symbol()":"95d89b41","totalAssets()":"01e1d114","totalFeeIncome()":"74e77345","totalPaidOut()":"1357e1dc","totalSupply()":"18160ddd","totalTVL()":"a8bc6f7c","transfer(address,uint256)":"a9059cbb","transferFrom(address,address,uint256)":"23b872dd","updateTVL(uint256)":"4a02893c","withdraw(uint256,address,address)":"b460af94"},"id":62}