{"abi":[{"type":"constructor","inputs":[{"name":"_owner","type":"address","internalType":"address"},{"name":"_autoCompounder","type":"address","internalType":"address"},{"name":"_token0","type":"address","internalType":"address"},{"name":"_token1","type":"address","internalType":"address"}],"stateMutability":"nonpayable"},{"type":"function","name":"BPS","inputs":[],"outputs":[{"name":"","type":"uint256","internalType":"uint256"}],"stateMutability":"view"},{"type":"function","name":"CLAIM_COOLDOWN","inputs":[],"outputs":[{"name":"","type":"uint256","internalType":"uint256"}],"stateMutability":"view"},{"type":"function","name":"MAX_CLAIM_BPS","inputs":[],"outputs":[{"name":"","type":"uint256","internalType":"uint256"}],"stateMutability":"view"},{"type":"function","name":"MAX_SINGLE_CLAIM_USD","inputs":[],"outputs":[{"name":"","type":"uint256","internalType":"uint256"}],"stateMutability":"view"},{"type":"function","name":"MIN_FUND_RATIO_BPS","inputs":[],"outputs":[{"name":"","type":"uint256","internalType":"uint256"}],"stateMutability":"view"},{"type":"function","name":"authorizedDepositors","inputs":[{"name":"","type":"address","internalType":"address"}],"outputs":[{"name":"","type":"bool","internalType":"bool"}],"stateMutability":"view"},{"type":"function","name":"autoCompounder","inputs":[],"outputs":[{"name":"","type":"address","internalType":"address"}],"stateMutability":"view"},{"type":"function","name":"deposit","inputs":[{"name":"amount0","type":"uint256","internalType":"uint256"},{"name":"amount1","type":"uint256","internalType":"uint256"}],"outputs":[],"stateMutability":"nonpayable"},{"type":"function","name":"emergencyPause","inputs":[],"outputs":[],"stateMutability":"nonpayable"},{"type":"function","name":"emergencyUnpause","inputs":[],"outputs":[],"stateMutability":"nonpayable"},{"type":"function","name":"fundBalance0","inputs":[],"outputs":[{"name":"","type":"uint256","internalType":"uint256"}],"stateMutability":"view"},{"type":"function","name":"fundBalance1","inputs":[],"outputs":[{"name":"","type":"uint256","internalType":"uint256"}],"stateMutability":"view"},{"type":"function","name":"getFundHealthBps","inputs":[],"outputs":[{"name":"","type":"uint256","internalType":"uint256"}],"stateMutability":"view"},{"type":"function","name":"getFundState","inputs":[],"outputs":[{"name":"","type":"tuple","internalType":"struct InsuranceFundState","components":[{"name":"balance0","type":"uint256","internalType":"uint256"},{"name":"balance1","type":"uint256","internalType":"uint256"},{"name":"totalClaimed0","type":"uint256","internalType":"uint256"},{"name":"totalClaimed1","type":"uint256","internalType":"uint256"},{"name":"pendingClaims","type":"uint256","internalType":"uint256"},{"name":"claimsSuspended","type":"bool","internalType":"bool"},{"name":"lastUpdatedBlock","type":"uint256","internalType":"uint256"}]}],"stateMutability":"view"},{"type":"function","name":"getMaxClaim","inputs":[{"name":"positionId","type":"bytes32","internalType":"bytes32"},{"name":"ilAmount0","type":"uint256","internalType":"uint256"},{"name":"ilAmount1","type":"uint256","internalType":"uint256"},{"name":"loyaltyScore","type":"uint256","internalType":"uint256"}],"outputs":[{"name":"maxToken0","type":"uint256","internalType":"uint256"},{"name":"maxToken1","type":"uint256","internalType":"uint256"}],"stateMutability":"view"},{"type":"function","name":"lastClaimTime","inputs":[{"name":"","type":"address","internalType":"address"}],"outputs":[{"name":"","type":"uint256","internalType":"uint256"}],"stateMutability":"view"},{"type":"function","name":"owner","inputs":[],"outputs":[{"name":"","type":"address","internalType":"address"}],"stateMutability":"view"},{"type":"function","name":"paused","inputs":[],"outputs":[{"name":"","type":"bool","internalType":"bool"}],"stateMutability":"view"},{"type":"function","name":"positionClaimed0","inputs":[{"name":"","type":"bytes32","internalType":"bytes32"}],"outputs":[{"name":"","type":"uint256","internalType":"uint256"}],"stateMutability":"view"},{"type":"function","name":"setAuthorizedDepositor","inputs":[{"name":"depositor","type":"address","internalType":"address"},{"name":"authorized","type":"bool","internalType":"bool"}],"outputs":[],"stateMutability":"nonpayable"},{"type":"function","name":"submitClaim","inputs":[{"name":"claim","type":"tuple","internalType":"struct InsuranceClaim","components":[{"name":"positionId","type":"bytes32","internalType":"bytes32"},{"name":"ilAmount0","type":"uint256","internalType":"uint256"},{"name":"ilAmount1","type":"uint256","internalType":"uint256"},{"name":"loyaltyScore","type":"uint256","internalType":"uint256"},{"name":"proof","type":"bytes","internalType":"bytes"}]}],"outputs":[{"name":"compensated0","type":"uint256","internalType":"uint256"},{"name":"compensated1","type":"uint256","internalType":"uint256"}],"stateMutability":"nonpayable"},{"type":"function","name":"token0","inputs":[],"outputs":[{"name":"","type":"address","internalType":"contract IERC20"}],"stateMutability":"view"},{"type":"function","name":"token1","inputs":[],"outputs":[{"name":"","type":"address","internalType":"contract IERC20"}],"stateMutability":"view"},{"type":"function","name":"totalDeposited0","inputs":[],"outputs":[{"name":"","type":"uint256","internalType":"uint256"}],"stateMutability":"view"},{"type":"function","name":"totalDeposited1","inputs":[],"outputs":[{"name":"","type":"uint256","internalType":"uint256"}],"stateMutability":"view"},{"type":"function","name":"totalPaidOut0","inputs":[],"outputs":[{"name":"","type":"uint256","internalType":"uint256"}],"stateMutability":"view"},{"type":"function","name":"totalPaidOut1","inputs":[],"outputs":[{"name":"","type":"uint256","internalType":"uint256"}],"stateMutability":"view"},{"type":"function","name":"totalTVL","inputs":[],"outputs":[{"name":"","type":"uint256","internalType":"uint256"}],"stateMutability":"view"},{"type":"function","name":"updateTVL","inputs":[{"name":"newTVL","type":"uint256","internalType":"uint256"}],"outputs":[],"stateMutability":"nonpayable"},{"type":"event","name":"ClaimPaid","inputs":[{"name":"positionId","type":"bytes32","indexed":true,"internalType":"bytes32"},{"name":"recipient","type":"address","indexed":true,"internalType":"address"},{"name":"amount0","type":"uint256","indexed":false,"internalType":"uint256"},{"name":"amount1","type":"uint256","indexed":false,"internalType":"uint256"}],"anonymous":false},{"type":"event","name":"ClaimsResumed","inputs":[],"anonymous":false},{"type":"event","name":"ClaimsSuspended","inputs":[{"name":"reason","type":"string","indexed":false,"internalType":"string"}],"anonymous":false},{"type":"event","name":"DepositorAuthorized","inputs":[{"name":"depositor","type":"address","indexed":true,"internalType":"address"},{"name":"authorized","type":"bool","indexed":false,"internalType":"bool"}],"anonymous":false},{"type":"event","name":"FundDeposited","inputs":[{"name":"source","type":"address","indexed":true,"internalType":"address"},{"name":"amount0","type":"uint256","indexed":false,"internalType":"uint256"},{"name":"amount1","type":"uint256","indexed":false,"internalType":"uint256"}],"anonymous":false},{"type":"event","name":"Paused","inputs":[{"name":"account","type":"address","indexed":false,"internalType":"address"}],"anonymous":false},{"type":"event","name":"TVLUpdated","inputs":[{"name":"newTVL","type":"uint256","indexed":false,"internalType":"uint256"}],"anonymous":false},{"type":"event","name":"Unpaused","inputs":[{"name":"account","type":"address","indexed":false,"internalType":"address"}],"anonymous":false},{"type":"error","name":"AddressEmptyCode","inputs":[{"name":"target","type":"address","internalType":"address"}]},{"type":"error","name":"AddressInsufficientBalance","inputs":[{"name":"account","type":"address","internalType":"address"}]},{"type":"error","name":"EnforcedPause","inputs":[]},{"type":"error","name":"ExpectedPause","inputs":[]},{"type":"error","name":"FailedInnerCall","inputs":[]},{"type":"error","name":"ReentrancyGuardReentrantCall","inputs":[]},{"type":"error","name":"SafeERC20FailedOperation","inputs":[{"name":"token","type":"address","internalType":"address"}]},{"type":"error","name":"Xenorize__Unauthorized","inputs":[{"name":"caller","type":"address","internalType":"address"},{"name":"required","type":"address","internalType":"address"}]},{"type":"error","name":"Xenorize__ZeroAddress","inputs":[]},{"type":"error","name":"Xenorize__ZeroAmount","inputs":[]}],"bytecode":{"object":"0x6101003461019057601f61131d38819003918201601f19168301916001600160401b038311848410176101945780849260809460405283398101031261019057610048816101a8565b610054602083016101a8565b9161006d6060610066604084016101a8565b92016101a8565b60015f819055805460ff19169055916001600160a01b03811615801561017f575b801561016e575b801561015d575b61014e5760805260a08390526001600160a01b0390811660c05290811660e052165f908152600b602052604090819020805460ff191660011790555161116090816101bd8239608051818181610360015281816104c50152818161056f0152818161071101526107d7015260a05181818161019e0152818161088f0152610abc015260c05181818161030501528181610a780152610e0f015260e0518181816102d4015281816103a40152610ddf0152f35b630aaffdf760e31b5f5260045ffd5b506001600160a01b0383161561009c565b506001600160a01b03821615610095565b506001600160a01b0384161561008e565b5f80fd5b634e487b7160e01b5f52604160045260245ffd5b51906001600160a01b03821682036101905756fe6080806040526004361015610012575f80fd5b5f3560e01c90816309f99b9914610aeb575080630a2e483514610aa75780630dfe168114610a635780631a158d8d14610a465780631fcf1db214610a2a578063249d39e914610a0e5780632c354142146109f15780632f3d5bfd146109d55780633296b182146109ab5780633768cc161461098e57806337c909ec146109715780634a02893c146108795780634a4e3bd5146107c557806351858e27146106ff578063575c5c60146106dd5780635c06f684146106c05780635c975abb1461069e57806372402e00146106615780638a5f969c1461059e5780638da5cb5b1461055a5780638efc9dfa1461049c5780638ffd8cbb146104695780639ef1be681461044c578063a8bc6f7c1461042f578063b77cf9c6146103f7578063bb27b8ae146103d3578063d21220a71461038f578063e2bbb158146102065763e2defcaf1461015b575f80fd5b346102025760203660031901126102025760043567ffffffffffffffff81116102025760a0600319823603011261020257610194610f5a565b61019c610fc3565b7f00000000000000000000000000000000000000000000000000000000000000006001600160a01b0316338190036101ec5760406101dc83600401610cba565b60015f5582519182526020820152f35b630cc657bb60e41b5f523360045260245260445ffd5b5f80fd5b3461020257604036600319011261020257600435602435610225610f5a565b335f52600b60205260ff60405f205416158061035c575b610345578115808061033d575b61032e5761025983600254610cad565b60025561026882600354610cad565b60035561027783600654610cad565b60065561028682600754610cad565b600755156102fd575b806102cc575b60405191825260208201527f5ff7d8cdff0131d15cd3138f3e47c904293b272b5fca47932fecb5768273632c60403392a260015f55005b6102f88130337f0000000000000000000000000000000000000000000000000000000000000000610f78565b610295565b6103298230337f0000000000000000000000000000000000000000000000000000000000000000610f78565b61028f565b63297279b760e01b5f5260045ffd5b508115610249565b630cc657bb60e41b5f52336004525f60245260445ffd5b50337f00000000000000000000000000000000000000000000000000000000000000006001600160a01b0316141561023c565b34610202575f366003190112610202576040517f00000000000000000000000000000000000000000000000000000000000000006001600160a01b03168152602090f35b34610202575f36600319011261020257602060405169021e19e0c9bab24000008152f35b34610202576020366003190112610202576001600160a01b03610418610b05565b165f526009602052602060405f2054604051908152f35b34610202575f366003190112610202576020600854604051908152f35b34610202575f366003190112610202576020600554604051908152f35b34610202576080366003190112610202576040610490606435604435602435600435610ba1565b82519182526020820152f35b34610202576040366003190112610202576104b5610b05565b60243590811515809203610202577f00000000000000000000000000000000000000000000000000000000000000006001600160a01b0316338190036101ec57506001600160a01b031690811561054b5760207fef3151b6a5db831387326a878aedf3ca24c3be8781462b37f692ea6ea3d78c8691835f52600b825260405f2060ff1981541660ff8316179055604051908152a2005b630aaffdf760e31b5f5260045ffd5b34610202575f366003190112610202576040517f00000000000000000000000000000000000000000000000000000000000000006001600160a01b03168152602090f35b34610202575f366003190112610202575f60c06040516105bd81610b1b565b8281528260208201528260408201528260608201528260808201528260a0820152015260e06002546003546004546005549060ff60015416916040519161060383610b1b565b85835260208301948552604083019081526060830191825260c060808401935f855260a081019515158652019443865260405196875251602087015251604086015251606085015251608084015251151560a08301525160c0820152f35b34610202576020366003190112610202576001600160a01b03610682610b05565b165f52600b602052602060ff60405f2054166040519015158152f35b34610202575f36600319011261020257602060ff600154166040519015158152f35b34610202575f366003190112610202576020600454604051908152f35b34610202575f3660031901126102025760206106f7610f2e565b604051908152f35b34610202575f366003190112610202577f00000000000000000000000000000000000000000000000000000000000000006001600160a01b0316338190036101ec57610749610fc3565b600160ff19815416176001557f62e78cea01bee320cd4e420270b5ea74000d11b0c9f74754ebdbfc544b05a2586020604051338152a17fe5ab1ae3c36bf7408059b477b77c77bb71d639b069c65ad827bfa96f7b3f8eb86060604051602081526009602082015268456d657267656e637960b81b6040820152a1005b34610202575f366003190112610202577f00000000000000000000000000000000000000000000000000000000000000006001600160a01b0316338190036101ec5760015460ff81161561086a5760ff19166001557f5db9ee0a495bf2e6ff9c91a7834c1ba4fdd244a5e8aa4e537bd38aeae4b073aa6020604051338152a17fd4b4dec04aef7dec06383e70811d0865c2dd9ef4448182e30991c1f16d5f712c5f80a1005b638dfc202b60e01b5f5260045ffd5b34610202576020366003190112610202576004357f00000000000000000000000000000000000000000000000000000000000000006001600160a01b0316338190036101ec577fcdd2050b92e912b67dd7cf516539c622f008e1b40703b02bb791ea5afcee110c60208380600855604051908152a160015460ff8116808061095e575b61090257005b1561086a5760ff19166001557f5db9ee0a495bf2e6ff9c91a7834c1ba4fdd244a5e8aa4e537bd38aeae4b073aa6020604051338152a17fd4b4dec04aef7dec06383e70811d0865c2dd9ef4448182e30991c1f16d5f712c5f80a1005b506101f461096a610f2e565b10156108fc565b34610202575f36600319011261020257602060405162093a808152f35b34610202575f366003190112610202576020600354604051908152f35b34610202576020366003190112610202576004355f52600a602052602060405f2054604051908152f35b34610202575f3660031901126102025760206040516101f48152f35b34610202575f366003190112610202576020600754604051908152f35b34610202575f3660031901126102025760206040516127108152f35b34610202575f3660031901126102025760206040516113888152f35b34610202575f366003190112610202576020600254604051908152f35b34610202575f366003190112610202576040517f00000000000000000000000000000000000000000000000000000000000000006001600160a01b03168152602090f35b34610202575f366003190112610202576040517f00000000000000000000000000000000000000000000000000000000000000006001600160a01b03168152602090f35b34610202575f366003190112610202576020906006548152f35b600435906001600160a01b038216820361020257565b60e0810190811067ffffffffffffffff821117610b3757604052565b634e487b7160e01b5f52604160045260245ffd5b90601f8019910116810190811067ffffffffffffffff821117610b3757604052565b81810292918115918404141715610b8057565b634e487b7160e01b5f52601160045260245ffd5b91908203918211610b8057565b93929080158080610ca5575b610c99576113888202918204611388141715610b80576113888302928084046113881490151715610b80578161271080610bed819582610bf59604610b6d565b049404610b6d565b0492805f52600a60205260405f205469021e19e0c9bab2400000115f14610c91575f52600a60205260405f205469021e19e0c9bab24000000369021e19e0c9bab24000008111610b8057905b81811115610c895750905b81928092610c58610f2e565b906103e88210610c6757505050565b610c85929550612710939450610c7e828592610b6d565b0494610b6d565b0490565b905090610c4c565b505f90610c41565b5050505090505f905f90565b508315610bad565b91908201809211610b8057565b9081359060018060a01b03821692835f52600960205260405f20548015159081610f17575b50610f0e57610d0f906101f4610cf3610f2e565b10610e7e575b6060810135906020604082013591013585610ba1565b939092831580610e76575b610e6c576002549384811115610e4357507f5bd1b4cabba31195a675fc15f8b99931efd55c3a3509990ff45d5d4aa5ea658f6040855b8097600354908181115f14610e385750610d7981805b610d7185839c610b94565b600255610b94565b600355610d8882600454610cad565b600455610d9781600554610cad565b600555855f52600960205242835f2055845f52600a602052825f20610dbd838254610cad565b905581610e08575b80610dd8575b82519182526020820152a3565b610e0381877f0000000000000000000000000000000000000000000000000000000000000000610fde565b610dcb565b610e3382877f0000000000000000000000000000000000000000000000000000000000000000610fde565b610dc5565b610d79908092610d66565b60407f5bd1b4cabba31195a675fc15f8b99931efd55c3a3509990ff45d5d4aa5ea658f91610d50565b505f935083925050565b508415610d1a565b610e86610fc3565b600160ff19815416176001557f62e78cea01bee320cd4e420270b5ea74000d11b0c9f74754ebdbfc544b05a2586020604051338152a17fe5ab1ae3c36bf7408059b477b77c77bb71d639b069c65ad827bfa96f7b3f8eb8606060405160208152601260208201527146756e642062656c6f77206d696e696d756d60701b6040820152a1610cf9565b505f9250829150565b905062093a808101809111610b805742105f610cdf565b6008548015610f53576002546127108102908082046127101490151715610b80570490565b5061271090565b60025f5414610f695760025f55565b633ee5aeb560e01b5f5260045ffd5b6040516323b872dd60e01b60208201526001600160a01b039283166024820152929091166044830152606480830193909352918152610fc191610fbc608483610b4b565b611019565b565b60ff60015416610fcf57565b63d93c066560e01b5f5260045ffd5b60405163a9059cbb60e01b60208201526001600160a01b039092166024830152604480830193909352918152610fc191610fbc606483610b4b565b81516001600160a01b03909116915f91829160200182855af13d156110c0573d67ffffffffffffffff8111610b375761107491604051916110646020601f19601f8401160184610b4b565b82523d5f602084013e5b836110cc565b805190811515918261109c575b505061108a5750565b635274afe760e01b5f5260045260245ffd5b81925090602091810103126102025760200151801590811503610202575f80611081565b6110749060609061106e565b906110f057508051156110e157805190602001fd5b630a12f52160e11b5f5260045ffd5b81511580611121575b611101575090565b639996b31560e01b5f9081526001600160a01b0391909116600452602490fd5b50803b156110f956fea264697066735822122071c352dfcc5ea52f6d6074dfc5e4678488ab23f6e0d74c2cc2daf74ea1bb303264736f6c634300081a0033","linkReferences":{}},"methodIdentifiers":{"BPS()":"249d39e9","CLAIM_COOLDOWN()":"37c909ec","MAX_CLAIM_BPS()":"1fcf1db2","MAX_SINGLE_CLAIM_USD()":"bb27b8ae","MIN_FUND_RATIO_BPS()":"2f3d5bfd","authorizedDepositors(address)":"72402e00","autoCompounder()":"0a2e4835","deposit(uint256,uint256)":"e2bbb158","emergencyPause()":"51858e27","emergencyUnpause()":"4a4e3bd5","fundBalance0()":"1a158d8d","fundBalance1()":"3768cc16","getFundHealthBps()":"575c5c60","getFundState()":"8a5f969c","getMaxClaim(bytes32,uint256,uint256,uint256)":"8ffd8cbb","lastClaimTime(address)":"b77cf9c6","owner()":"8da5cb5b","paused()":"5c975abb","positionClaimed0(bytes32)":"3296b182","setAuthorizedDepositor(address,bool)":"8efc9dfa","submitClaim((bytes32,uint256,uint256,uint256,bytes))":"e2defcaf","token0()":"0dfe1681","token1()":"d21220a7","totalDeposited0()":"09f99b99","totalDeposited1()":"2c354142","totalPaidOut0()":"5c06f684","totalPaidOut1()":"9ef1be68","totalTVL()":"a8bc6f7c","updateTVL(uint256)":"4a02893c"},"id":47}