{"abi":[{"type":"constructor","inputs":[{"name":"_poolManager","type":"address","internalType":"contract IPoolManager"},{"name":"_owner","type":"address","internalType":"address"},{"name":"_gasFeed","type":"address","internalType":"address"}],"stateMutability":"nonpayable"},{"type":"function","name":"VOL_WINDOW","inputs":[],"outputs":[{"name":"","type":"uint256","internalType":"uint256"}],"stateMutability":"view"},{"type":"function","name":"WAD","inputs":[],"outputs":[{"name":"","type":"uint256","internalType":"uint256"}],"stateMutability":"view"},{"type":"function","name":"gasFeed","inputs":[],"outputs":[{"name":"","type":"address","internalType":"contract AggregatorV3Interface"}],"stateMutability":"view"},{"type":"function","name":"getGasCostUSD","inputs":[],"outputs":[{"name":"gasCostUSD","type":"uint256","internalType":"uint256"}],"stateMutability":"view"},{"type":"function","name":"getSuggestedRange","inputs":[{"name":"poolId","type":"bytes32","internalType":"bytes32"},{"name":"profile","type":"uint8","internalType":"enum RiskProfile"}],"outputs":[{"name":"tickLower","type":"int24","internalType":"int24"},{"name":"tickUpper","type":"int24","internalType":"int24"},{"name":"confidence","type":"uint256","internalType":"uint256"}],"stateMutability":"view"},{"type":"function","name":"getTokenPriceUSD","inputs":[{"name":"token","type":"address","internalType":"address"}],"outputs":[{"name":"priceUSD","type":"uint256","internalType":"uint256"},{"name":"updatedAt","type":"uint256","internalType":"uint256"}],"stateMutability":"view"},{"type":"function","name":"getVolatility","inputs":[{"name":"poolId","type":"bytes32","internalType":"bytes32"}],"outputs":[{"name":"volatilityBps","type":"uint256","internalType":"uint256"}],"stateMutability":"view"},{"type":"function","name":"oracleMaxAge","inputs":[],"outputs":[{"name":"","type":"uint256","internalType":"uint256"}],"stateMutability":"view"},{"type":"function","name":"owner","inputs":[],"outputs":[{"name":"","type":"address","internalType":"address"}],"stateMutability":"view"},{"type":"function","name":"poolManager","inputs":[],"outputs":[{"name":"","type":"address","internalType":"contract IPoolManager"}],"stateMutability":"view"},{"type":"function","name":"priceFeeds","inputs":[{"name":"","type":"address","internalType":"address"}],"outputs":[{"name":"","type":"address","internalType":"contract AggregatorV3Interface"}],"stateMutability":"view"},{"type":"function","name":"recordPrice","inputs":[{"name":"poolId","type":"bytes32","internalType":"bytes32"},{"name":"token","type":"address","internalType":"address"}],"outputs":[],"stateMutability":"nonpayable"},{"type":"function","name":"setFeed","inputs":[{"name":"token","type":"address","internalType":"address"},{"name":"feed","type":"address","internalType":"address"}],"outputs":[],"stateMutability":"nonpayable"},{"type":"function","name":"setGasFeed","inputs":[{"name":"feed","type":"address","internalType":"address"}],"outputs":[],"stateMutability":"nonpayable"},{"type":"function","name":"setOracleMaxAge","inputs":[{"name":"maxAge","type":"uint256","internalType":"uint256"}],"outputs":[],"stateMutability":"nonpayable"},{"type":"event","name":"FeedSet","inputs":[{"name":"token","type":"address","indexed":true,"internalType":"address"},{"name":"feed","type":"address","indexed":true,"internalType":"address"}],"anonymous":false},{"type":"event","name":"GasFeedSet","inputs":[{"name":"feed","type":"address","indexed":true,"internalType":"address"}],"anonymous":false},{"type":"event","name":"PriceRecorded","inputs":[{"name":"poolId","type":"bytes32","indexed":true,"internalType":"bytes32"},{"name":"price","type":"uint256","indexed":false,"internalType":"uint256"}],"anonymous":false},{"type":"error","name":"Xenorize__OracleInvalidPrice","inputs":[{"name":"price","type":"int256","internalType":"int256"}]},{"type":"error","name":"Xenorize__OracleStalePrice","inputs":[{"name":"lastUpdate","type":"uint256","internalType":"uint256"},{"name":"maxAge","type":"uint256","internalType":"uint256"}]},{"type":"error","name":"Xenorize__Unauthorized","inputs":[{"name":"caller","type":"address","internalType":"address"},{"name":"required","type":"address","internalType":"address"}]},{"type":"error","name":"Xenorize__ZeroAddress","inputs":[]}],"bytecode":{"object":"0x60c0346100f857601f610eee38819003918201601f19168301916001600160401b038311848410176100fc578084926060946040528339810103126100f85780516001600160a01b03811691908281036100f85761006b604061006460208501610110565b9301610110565b92610e106001551580156100e7575b6100d85760805260a0525f80546001600160a01b0319166001600160a01b0392909216919091179055604051610dc9908161012582396080518161013b015260a05181818160d4015281816101dc0152818161029501526103490152f35b630aaffdf760e31b5f5260045ffd5b506001600160a01b0382161561007a565b5f80fd5b634e487b7160e01b5f52604160045260245ffd5b51906001600160a01b03821682036100f85756fe6080806040526004361015610012575f80fd5b5f3560e01c908163042a2be71461045a5750806309b029231461044057806317f58ccc1461041a5780632a2cef0a146103eb57806340b1eb101461032557806344ae51971461030a57806358a346dc1461027a5780636a146024146102585780637cb2823914610232578063888541581461020b5780638da5cb5b146101c75780639c56b272146101aa5780639dcb511a1461016a578063dc4c90d3146101265763f0218a94146100c1575f80fd5b34610122576020366003190112610122577f00000000000000000000000000000000000000000000000000000000000000006001600160a01b03163381900361010c57600435600155005b630cc657bb60e41b5f523360045260245260445ffd5b5f80fd5b34610122575f366003190112610122576040517f00000000000000000000000000000000000000000000000000000000000000006001600160a01b03168152602090f35b34610122576020366003190112610122576001600160a01b0361018b610678565b165f526002602052602060018060a01b0360405f205416604051908152f35b34610122575f366003190112610122576020600154604051908152f35b34610122575f366003190112610122576040517f00000000000000000000000000000000000000000000000000000000000000006001600160a01b03168152602090f35b34610122575f366003190112610122575f546040516001600160a01b039091168152602090f35b346101225760403660031901126101225761025661024e61068e565b600435610b85565b005b34610122575f366003190112610122576020604051670de0b6b3a76400008152f35b3461012257602036600319011261012257610293610678565b7f00000000000000000000000000000000000000000000000000000000000000006001600160a01b03163381900361010c57505f80546001600160a01b0319166001600160a01b039290921691821781557f8ca13aacdeea2afd0e57ff3927409f2dea8c650677a97ba21dccda26199e06d29080a2005b34610122575f36600319011261012257602060405160078152f35b346101225760403660031901126101225761033e610678565b61034661068e565b907f00000000000000000000000000000000000000000000000000000000000000006001600160a01b03163381900361010c57506001600160a01b03169081156103dc5760018060a01b031690805f52600260205260405f20826bffffffffffffffffffffffff60a01b8254161790557f3206e79c8cb385b303820bc579358c388d2f7539de2fa2f24644faf6bd0354d15f80a3005b630aaffdf760e31b5f5260045ffd5b3461012257602036600319011261012257604061040e610409610678565b610a10565b82519182526020820152f35b34610122576020366003190112610122576020610438600435610890565b604051908152f35b34610122575f366003190112610122576020610438610764565b3461012257604036600319011261012257602435906003821015610122576305fd633360e21b81526004803590820152602081602481305afa90811561066d575f9161063b575b505f918015801561061e5760ff601e5b169361060a57156105f3575060c8915b6103e88102908082046103e814901517156105d0576104eb6104e5614a9c92610d4c565b83610733565b048061066d029061066d820481036105d05764264cf6cd0002908082046305f5e10014901517156105d057641747de518062ffffff91041660020b61052f83610cff565b60020b81126105e4575b60020b91825f03627fffff8113627fffff198212176105d057816105608161056593610d2a565b610d13565b91627fffff8413627fffff198512176105d05761058b8261056061ffff94606097610d2a565b90610bb88110156105b55750612328905b6040519360020b845260020b6020840152166040820152f35b611b5811156105c857611d4c5b9061059c565b6117706105c2565b634e487b7160e01b5f52601160045260245ffd5b506105ee82610cff565b610539565b60010361060357603c5b916104c1565b600a6105fd565b634e487b7160e01b5f52602160045260245ffd5b5f9350600182036106325760ff60076104b1565b60ff60016104b1565b90506020813d602011610665575b81610656602093836106a4565b810103126101225751826104a1565b3d9150610649565b6040513d5f823e3d90fd5b600435906001600160a01b038216820361012257565b602435906001600160a01b038216820361012257565b90601f8019910116810190811067ffffffffffffffff8211176106c657604052565b634e487b7160e01b5f52604160045260245ffd5b519069ffffffffffffffffffff8216820361012257565b908160a091031261012257610705816106da565b916020820151916040810151916107236080606084015193016106da565b90565b919082039182116105d057565b818102929181159184041417156105d057565b8115610750570490565b634e487b7160e01b5f52601260045260245ffd5b5f546001600160a01b031680156108535760a060049160405192838092633fabe5a360e21b82525afa805f925f9261081a575b506107ab575b50506706f05b59d3b2000090565b5f82139081610804575b506107c0578061079d565b6402540be4008102908082046402540be40014901517156105d0574862030d400262030d40810448036105d057670de0b6b3a76400009161080091610733565b0490565b61080f915042610726565b60015410155f6107b5565b90925061083f915060a03d60a01161084c575b61083781836106a4565b8101906106f1565b509392505091905f610797565b503d61082d565b506706f05b59d3b2000090565b600782101561086f5701905f90565b634e487b7160e01b5f52603260045260245ffd5b919082018092116105d057565b805f52600560205260ff60405f20541690600282106109f7575f52600360205260405f2090600781105f146109ee57905b5f82815b8183106109c5576108d69250610746565b80156109bc57905f915f915b84831061092a575050506108fe916108f991610746565b610d4c565b60bf81029080820460bf14901517156105d057600a900490620186a0821161092257565b620186a09150565b909192826109388584610860565b90549060031b1c115f1461099d57610960836109548685610860565b90549060031b1c610726565b61271081029080820461271014901517156105d05760019161098e6109888661099494610746565b80610733565b90610883565b930191906108e2565b6109b76109aa8584610860565b90549060031b1c84610726565b610960565b505050610bb890565b600191506109e4906109d78486610860565b90549060031b1c90610883565b91019083906108c5565b506007906108c1565b5050610bb890565b60ff16604d81116105d057600a0a90565b6001600160a01b039081165f9081526002602052604090205416908115610b7657604051633fabe5a360e21b815260a081600481865afa92831561066d575f915f94610b4e575b50610a628442610726565b600154809111610b3857505f821315610b255760206004916040519283809263313ce56760e01b82525afa801561066d575f90610ae8575b60ff16905060128111610ac9576012039060ff82116105d057610abf610ac5926109ff565b90610733565b9190565b601119019060ff82116105d057610ae2610ac5926109ff565b90610746565b506020813d602011610b1d575b81610b02602093836106a4565b81010312610122575160ff811681036101225760ff90610a9a565b3d9150610af5565b506335deecd560e11b5f5260045260245ffd5b8463036e3b8d60e21b5f5260045260245260445ffd5b909350610b6a915060a03d60a01161084c5761083781836106a4565b5092505090925f610a57565b670de0b6b3a764000091504290565b6001600160a01b039182165f908152600260205260409020549091168015610cc05760a060049160405192838092633fabe5a360e21b82525afa801561066d575f915f91610cd9575b505f821390811591610cc4575b50610cc057815f526003602052600160405f20835f526004602052610c0860ff60405f2054168092610860565b81549060031b9085821b915f19901b19161790550160ff81116105d057825f52600460205260ff8060078160405f20941606161660ff19825416179055815f526005602052600760ff60405f20541610610c8a575b60207fd35d3793a967eb243cb736256c5dc39032c5d5c4c3ad1a6f35fd621bdc62ab5b91604051908152a2565b815f52600560205260405f209060ff8254169060ff82146105d057825460ff191660019290920160ff1691909117909155610c5d565b5050565b610ccf915042610726565b600154105f610bdb565b9050610cf4915060a03d60a01161084c5761083781836106a4565b50925050905f610bce565b60020b60011b908160020b9182036105d057565b9060020b9060020b02908160020b9182036105d057565b60020b9060020b90811561075057627fffff1981145f198314166105d0570590565b908115610d8e5781600181018082116105d05760011c905b838210610d6f575050565b909250610d8583610d808184610746565b610883565b60011c90610d64565b5f915056fea26469706673582212208cb26ef68822e520ef904d1fc4b811cf159c0642f8a8b79a0c024262bbe0893364736f6c634300081a0033","linkReferences":{}},"methodIdentifiers":{"VOL_WINDOW()":"44ae5197","WAD()":"6a146024","gasFeed()":"88854158","getGasCostUSD()":"09b02923","getSuggestedRange(bytes32,uint8)":"042a2be7","getTokenPriceUSD(address)":"2a2cef0a","getVolatility(bytes32)":"17f58ccc","oracleMaxAge()":"9c56b272","owner()":"8da5cb5b","poolManager()":"dc4c90d3","priceFeeds(address)":"9dcb511a","recordPrice(bytes32,address)":"7cb28239","setFeed(address,address)":"40b1eb10","setGasFeed(address)":"58a346dc","setOracleMaxAge(uint256)":"f0218a94"},"id":51}