{"abi":[{"type":"constructor","inputs":[{"name":"_owner","type":"address","internalType":"address"},{"name":"_poolManager","type":"address","internalType":"contract IPoolManager"},{"name":"_insuranceFund","type":"address","internalType":"address"},{"name":"_token0","type":"address","internalType":"address"},{"name":"_token1","type":"address","internalType":"address"},{"name":"_oracle","type":"address","internalType":"address"}],"stateMutability":"nonpayable"},{"type":"function","name":"adjustRange","inputs":[{"name":"id","type":"bytes32","internalType":"bytes32"},{"name":"newTickLower","type":"int24","internalType":"int24"},{"name":"newTickUpper","type":"int24","internalType":"int24"}],"outputs":[],"stateMutability":"nonpayable"},{"type":"function","name":"autoCompound","inputs":[{"name":"id","type":"bytes32","internalType":"bytes32"}],"outputs":[{"name":"result","type":"tuple","internalType":"struct CompoundResult","components":[{"name":"newCapital0","type":"uint256","internalType":"uint256"},{"name":"newCapital1","type":"uint256","internalType":"uint256"},{"name":"newTickLower","type":"int24","internalType":"int24"},{"name":"newTickUpper","type":"int24","internalType":"int24"},{"name":"feesCollected0","type":"uint256","internalType":"uint256"},{"name":"feesCollected1","type":"uint256","internalType":"uint256"},{"name":"ilRealized0","type":"uint256","internalType":"uint256"},{"name":"gasCostWei","type":"uint256","internalType":"uint256"},{"name":"protocolFee0","type":"uint256","internalType":"uint256"},{"name":"protocolFee1","type":"uint256","internalType":"uint256"}]}],"stateMutability":"nonpayable"},{"type":"function","name":"closePosition","inputs":[{"name":"id","type":"bytes32","internalType":"bytes32"}],"outputs":[{"name":"returned0","type":"uint256","internalType":"uint256"},{"name":"returned1","type":"uint256","internalType":"uint256"}],"stateMutability":"nonpayable"},{"type":"function","name":"compoundManual","inputs":[{"name":"id","type":"bytes32","internalType":"bytes32"}],"outputs":[{"name":"result","type":"tuple","internalType":"struct CompoundResult","components":[{"name":"newCapital0","type":"uint256","internalType":"uint256"},{"name":"newCapital1","type":"uint256","internalType":"uint256"},{"name":"newTickLower","type":"int24","internalType":"int24"},{"name":"newTickUpper","type":"int24","internalType":"int24"},{"name":"feesCollected0","type":"uint256","internalType":"uint256"},{"name":"feesCollected1","type":"uint256","internalType":"uint256"},{"name":"ilRealized0","type":"uint256","internalType":"uint256"},{"name":"gasCostWei","type":"uint256","internalType":"uint256"},{"name":"protocolFee0","type":"uint256","internalType":"uint256"},{"name":"protocolFee1","type":"uint256","internalType":"uint256"}]}],"stateMutability":"nonpayable"},{"type":"function","name":"compoundPosition","inputs":[{"name":"id","type":"bytes32","internalType":"bytes32"},{"name":"newTickLower","type":"int24","internalType":"int24"},{"name":"newTickUpper","type":"int24","internalType":"int24"}],"outputs":[{"name":"result","type":"tuple","internalType":"struct CompoundResult","components":[{"name":"newCapital0","type":"uint256","internalType":"uint256"},{"name":"newCapital1","type":"uint256","internalType":"uint256"},{"name":"newTickLower","type":"int24","internalType":"int24"},{"name":"newTickUpper","type":"int24","internalType":"int24"},{"name":"feesCollected0","type":"uint256","internalType":"uint256"},{"name":"feesCollected1","type":"uint256","internalType":"uint256"},{"name":"ilRealized0","type":"uint256","internalType":"uint256"},{"name":"gasCostWei","type":"uint256","internalType":"uint256"},{"name":"protocolFee0","type":"uint256","internalType":"uint256"},{"name":"protocolFee1","type":"uint256","internalType":"uint256"}]}],"stateMutability":"nonpayable"},{"type":"function","name":"emergencyPause","inputs":[],"outputs":[],"stateMutability":"nonpayable"},{"type":"function","name":"emergencyUnpause","inputs":[],"outputs":[],"stateMutability":"nonpayable"},{"type":"function","name":"getAIRecommendation","inputs":[{"name":"id","type":"bytes32","internalType":"bytes32"}],"outputs":[{"name":"tickLower","type":"int24","internalType":"int24"},{"name":"tickUpper","type":"int24","internalType":"int24"},{"name":"confidence","type":"uint256","internalType":"uint256"}],"stateMutability":"view"},{"type":"function","name":"getCompoundUrgency","inputs":[{"name":"id","type":"bytes32","internalType":"bytes32"}],"outputs":[{"name":"","type":"uint8","internalType":"enum CompoundUrgency"}],"stateMutability":"view"},{"type":"function","name":"getConfig","inputs":[{"name":"id","type":"bytes32","internalType":"bytes32"}],"outputs":[{"name":"","type":"tuple","internalType":"struct CompoundConfig","components":[{"name":"minProfitUSD","type":"uint256","internalType":"uint256"},{"name":"gasCushionBps","type":"uint256","internalType":"uint256"},{"name":"slippageBps","type":"uint256","internalType":"uint256"},{"name":"maxCompoundsPerDay","type":"uint256","internalType":"uint256"},{"name":"aiRangeEnabled","type":"bool","internalType":"bool"},{"name":"autoRebalance","type":"bool","internalType":"bool"}]}],"stateMutability":"view"},{"type":"function","name":"getPosition","inputs":[{"name":"id","type":"bytes32","internalType":"bytes32"}],"outputs":[{"name":"","type":"tuple","internalType":"struct Position","components":[{"name":"owner","type":"address","internalType":"address"},{"name":"poolId","type":"bytes32","internalType":"bytes32"},{"name":"poolKey","type":"tuple","internalType":"struct PoolKey","components":[{"name":"currency0","type":"address","internalType":"Currency"},{"name":"currency1","type":"address","internalType":"Currency"},{"name":"fee","type":"uint24","internalType":"uint24"},{"name":"tickSpacing","type":"int24","internalType":"int24"},{"name":"hooks","type":"address","internalType":"contract IHooks"}]},{"name":"tickLower","type":"int24","internalType":"int24"},{"name":"tickUpper","type":"int24","internalType":"int24"},{"name":"liquidity","type":"uint128","internalType":"uint128"},{"name":"depositTime","type":"uint256","internalType":"uint256"},{"name":"lastCompound","type":"uint256","internalType":"uint256"},{"name":"compoundCount","type":"uint256","internalType":"uint256"},{"name":"initialCapital0","type":"uint256","internalType":"uint256"},{"name":"initialCapital1","type":"uint256","internalType":"uint256"},{"name":"totalFees0","type":"uint256","internalType":"uint256"},{"name":"totalFees1","type":"uint256","internalType":"uint256"},{"name":"totalIL0","type":"uint256","internalType":"uint256"},{"name":"riskProfile","type":"uint8","internalType":"enum RiskProfile"},{"name":"status","type":"uint8","internalType":"enum PositionStatus"},{"name":"aiManaged","type":"bool","internalType":"bool"}]}],"stateMutability":"view"},{"type":"function","name":"getPositionsByOwner","inputs":[{"name":"a","type":"address","internalType":"address"}],"outputs":[{"name":"","type":"bytes32[]","internalType":"bytes32[]"}],"stateMutability":"view"},{"type":"function","name":"insuranceFund","inputs":[],"outputs":[{"name":"","type":"address","internalType":"contract IInsuranceFund"}],"stateMutability":"view"},{"type":"function","name":"isAIManaged","inputs":[{"name":"id","type":"bytes32","internalType":"bytes32"}],"outputs":[{"name":"","type":"bool","internalType":"bool"}],"stateMutability":"view"},{"type":"function","name":"isInRange","inputs":[{"name":"id","type":"bytes32","internalType":"bytes32"}],"outputs":[{"name":"","type":"bool","internalType":"bool"}],"stateMutability":"view"},{"type":"function","name":"keeperRewardBps","inputs":[],"outputs":[{"name":"","type":"uint256","internalType":"uint256"}],"stateMutability":"view"},{"type":"function","name":"lastCompoundBlock","inputs":[{"name":"","type":"bytes32","internalType":"bytes32"}],"outputs":[{"name":"","type":"uint256","internalType":"uint256"}],"stateMutability":"view"},{"type":"function","name":"maxTVLCap","inputs":[],"outputs":[{"name":"","type":"uint256","internalType":"uint256"}],"stateMutability":"view"},{"type":"function","name":"minDepositAmount","inputs":[],"outputs":[{"name":"","type":"uint256","internalType":"uint256"}],"stateMutability":"view"},{"type":"function","name":"openPosition","inputs":[{"name":"key","type":"tuple","internalType":"struct PoolKey","components":[{"name":"currency0","type":"address","internalType":"Currency"},{"name":"currency1","type":"address","internalType":"Currency"},{"name":"fee","type":"uint24","internalType":"uint24"},{"name":"tickSpacing","type":"int24","internalType":"int24"},{"name":"hooks","type":"address","internalType":"contract IHooks"}]},{"name":"tickLower","type":"int24","internalType":"int24"},{"name":"tickUpper","type":"int24","internalType":"int24"},{"name":"amount0","type":"uint256","internalType":"uint256"},{"name":"amount1","type":"uint256","internalType":"uint256"},{"name":"riskProfile","type":"uint8","internalType":"enum RiskProfile"},{"name":"config","type":"tuple","internalType":"struct CompoundConfig","components":[{"name":"minProfitUSD","type":"uint256","internalType":"uint256"},{"name":"gasCushionBps","type":"uint256","internalType":"uint256"},{"name":"slippageBps","type":"uint256","internalType":"uint256"},{"name":"maxCompoundsPerDay","type":"uint256","internalType":"uint256"},{"name":"aiRangeEnabled","type":"bool","internalType":"bool"},{"name":"autoRebalance","type":"bool","internalType":"bool"}]}],"outputs":[{"name":"positionId","type":"bytes32","internalType":"bytes32"}],"stateMutability":"nonpayable"},{"type":"function","name":"openPositionAI","inputs":[{"name":"key","type":"tuple","internalType":"struct PoolKey","components":[{"name":"currency0","type":"address","internalType":"Currency"},{"name":"currency1","type":"address","internalType":"Currency"},{"name":"fee","type":"uint24","internalType":"uint24"},{"name":"tickSpacing","type":"int24","internalType":"int24"},{"name":"hooks","type":"address","internalType":"contract IHooks"}]},{"name":"amount0","type":"uint256","internalType":"uint256"},{"name":"amount1","type":"uint256","internalType":"uint256"},{"name":"riskProfile","type":"uint8","internalType":"enum RiskProfile"},{"name":"config","type":"tuple","internalType":"struct CompoundConfig","components":[{"name":"minProfitUSD","type":"uint256","internalType":"uint256"},{"name":"gasCushionBps","type":"uint256","internalType":"uint256"},{"name":"slippageBps","type":"uint256","internalType":"uint256"},{"name":"maxCompoundsPerDay","type":"uint256","internalType":"uint256"},{"name":"aiRangeEnabled","type":"bool","internalType":"bool"},{"name":"autoRebalance","type":"bool","internalType":"bool"}]}],"outputs":[{"name":"positionId","type":"bytes32","internalType":"bytes32"}],"stateMutability":"nonpayable"},{"type":"function","name":"oracle","inputs":[],"outputs":[{"name":"","type":"address","internalType":"contract IXenorizeOracle"}],"stateMutability":"view"},{"type":"function","name":"owner","inputs":[],"outputs":[{"name":"","type":"address","internalType":"address"}],"stateMutability":"view"},{"type":"function","name":"paused","inputs":[],"outputs":[{"name":"","type":"bool","internalType":"bool"}],"stateMutability":"view"},{"type":"function","name":"poolManager","inputs":[],"outputs":[{"name":"","type":"address","internalType":"contract IPoolManager"}],"stateMutability":"view"},{"type":"function","name":"protocolFeeBps","inputs":[],"outputs":[{"name":"","type":"uint256","internalType":"uint256"}],"stateMutability":"view"},{"type":"function","name":"rangeWidthTicks","inputs":[{"name":"","type":"uint8","internalType":"enum RiskProfile"}],"outputs":[{"name":"","type":"int24","internalType":"int24"}],"stateMutability":"view"},{"type":"function","name":"setMaxTVLCap","inputs":[{"name":"cap","type":"uint256","internalType":"uint256"}],"outputs":[],"stateMutability":"nonpayable"},{"type":"function","name":"setOracle","inputs":[{"name":"a","type":"address","internalType":"address"}],"outputs":[],"stateMutability":"nonpayable"},{"type":"function","name":"setProtocolFee","inputs":[{"name":"bps","type":"uint256","internalType":"uint256"}],"outputs":[],"stateMutability":"nonpayable"},{"type":"function","name":"token0","inputs":[],"outputs":[{"name":"","type":"address","internalType":"contract IERC20"}],"stateMutability":"view"},{"type":"function","name":"token1","inputs":[],"outputs":[{"name":"","type":"address","internalType":"contract IERC20"}],"stateMutability":"view"},{"type":"function","name":"totalPositions","inputs":[],"outputs":[{"name":"","type":"uint256","internalType":"uint256"}],"stateMutability":"view"},{"type":"function","name":"totalTVL","inputs":[],"outputs":[{"name":"","type":"uint256","internalType":"uint256"}],"stateMutability":"view"},{"type":"function","name":"unlockCallback","inputs":[{"name":"data","type":"bytes","internalType":"bytes"}],"outputs":[{"name":"","type":"bytes","internalType":"bytes"}],"stateMutability":"nonpayable"},{"type":"event","name":"AIRangeApplied","inputs":[{"name":"id","type":"bytes32","indexed":true,"internalType":"bytes32"},{"name":"tL","type":"int24","indexed":false,"internalType":"int24"},{"name":"tU","type":"int24","indexed":false,"internalType":"int24"},{"name":"confidence","type":"uint256","indexed":false,"internalType":"uint256"}],"anonymous":false},{"type":"event","name":"FeesCollected","inputs":[{"name":"id","type":"bytes32","indexed":true,"internalType":"bytes32"},{"name":"f0","type":"uint256","indexed":false,"internalType":"uint256"},{"name":"f1","type":"uint256","indexed":false,"internalType":"uint256"}],"anonymous":false},{"type":"event","name":"Paused","inputs":[{"name":"account","type":"address","indexed":false,"internalType":"address"}],"anonymous":false},{"type":"event","name":"PositionClosed","inputs":[{"name":"id","type":"bytes32","indexed":true,"internalType":"bytes32"},{"name":"owner","type":"address","indexed":true,"internalType":"address"},{"name":"r0","type":"uint256","indexed":false,"internalType":"uint256"},{"name":"r1","type":"uint256","indexed":false,"internalType":"uint256"},{"name":"tf0","type":"uint256","indexed":false,"internalType":"uint256"},{"name":"tf1","type":"uint256","indexed":false,"internalType":"uint256"},{"name":"il","type":"uint256","indexed":false,"internalType":"uint256"},{"name":"cycles","type":"uint256","indexed":false,"internalType":"uint256"}],"anonymous":false},{"type":"event","name":"PositionCompounded","inputs":[{"name":"id","type":"bytes32","indexed":true,"internalType":"bytes32"},{"name":"cycle","type":"uint256","indexed":false,"internalType":"uint256"},{"name":"tL","type":"int24","indexed":false,"internalType":"int24"},{"name":"tU","type":"int24","indexed":false,"internalType":"int24"},{"name":"f0","type":"uint256","indexed":false,"internalType":"uint256"},{"name":"f1","type":"uint256","indexed":false,"internalType":"uint256"},{"name":"il","type":"uint256","indexed":false,"internalType":"uint256"},{"name":"net","type":"uint256","indexed":false,"internalType":"uint256"}],"anonymous":false},{"type":"event","name":"PositionOpened","inputs":[{"name":"id","type":"bytes32","indexed":true,"internalType":"bytes32"},{"name":"owner","type":"address","indexed":true,"internalType":"address"},{"name":"poolId","type":"bytes32","indexed":true,"internalType":"PoolId"},{"name":"tL","type":"int24","indexed":false,"internalType":"int24"},{"name":"tU","type":"int24","indexed":false,"internalType":"int24"},{"name":"a0","type":"uint256","indexed":false,"internalType":"uint256"},{"name":"a1","type":"uint256","indexed":false,"internalType":"uint256"}],"anonymous":false},{"type":"event","name":"RangeAdjusted","inputs":[{"name":"id","type":"bytes32","indexed":true,"internalType":"bytes32"},{"name":"oldTL","type":"int24","indexed":false,"internalType":"int24"},{"name":"oldTU","type":"int24","indexed":false,"internalType":"int24"},{"name":"newTL","type":"int24","indexed":false,"internalType":"int24"},{"name":"newTU","type":"int24","indexed":false,"internalType":"int24"}],"anonymous":false},{"type":"event","name":"Unpaused","inputs":[{"name":"account","type":"address","indexed":false,"internalType":"address"}],"anonymous":false},{"type":"error","name":"AddressEmptyCode","inputs":[{"name":"target","type":"address","internalType":"address"}]},{"type":"error","name":"AddressInsufficientBalance","inputs":[{"name":"account","type":"address","internalType":"address"}]},{"type":"error","name":"EnforcedPause","inputs":[]},{"type":"error","name":"ExpectedPause","inputs":[]},{"type":"error","name":"FailedInnerCall","inputs":[]},{"type":"error","name":"ReentrancyGuardReentrantCall","inputs":[]},{"type":"error","name":"SafeERC20FailedOperation","inputs":[{"name":"token","type":"address","internalType":"address"}]},{"type":"error","name":"Xenorize__CompoundRateLimited","inputs":[{"name":"nextAllowed","type":"uint256","internalType":"uint256"}]},{"type":"error","name":"Xenorize__InvalidFeeRate","inputs":[{"name":"rate","type":"uint256","internalType":"uint256"},{"name":"max","type":"uint256","internalType":"uint256"}]},{"type":"error","name":"Xenorize__InvalidRange","inputs":[{"name":"lower","type":"int24","internalType":"int24"},{"name":"upper","type":"int24","internalType":"int24"}]},{"type":"error","name":"Xenorize__PositionNotActive","inputs":[{"name":"positionId","type":"bytes32","internalType":"bytes32"}]},{"type":"error","name":"Xenorize__PositionNotOwned","inputs":[{"name":"positionId","type":"bytes32","internalType":"bytes32"},{"name":"caller","type":"address","internalType":"address"}]},{"type":"error","name":"Xenorize__TVLCapExceeded","inputs":[{"name":"current","type":"uint256","internalType":"uint256"},{"name":"cap","type":"uint256","internalType":"uint256"}]},{"type":"error","name":"Xenorize__ZeroAddress","inputs":[]},{"type":"error","name":"Xenorize__ZeroAmount","inputs":[]}],"bytecode":{"object":"0x610120346102e157601f613f5e38819003918201601f19168301916001600160401b038311848410176102e55780849260c0946040528339810103126102e157610048816102f9565b60208201516001600160a01b03811692908381036102e15761006c604083016102f9565b610078606084016102f9565b9161009160a061008a608087016102f9565b95016102f9565b60015f8190555460c86002556032600355690a968163f0a57b40000060045568056bc75e2d63100000600555969095906001600160a01b038216159081156102d8575b5080156102c7575b80156102b6575b80156102a5575b6102965760a0526080526001600160a01b0390811660c05290811660e05216610100526001600160a81b031990911660089190911b610100600160a81b031617600155600b6020527fdf7de25b7f1fd6d0b5205f0e18f1f35bd7b8d84cce336588d184533ce43a6f76805462ffffff19908116611f40179091557f72c6bfb7988af3a1efa6568f02a999bc52252641c659d85961ca3d372b57d5cf80548216610bb817905560025f527fa50eece07c7db1631545c0069bd8f5f54d5935e215d59097edf258a44ba9163480549091166103e8179055604051613c50908161030e823960805181818161031e0152818161056201528181610a7f01528181610da001528181611daa0152818161284701526132e3015260a0518181816104ee015281816113e80152818161142a015281816114f30152818161155e01528181611f4a0152611fca015260c051816111e2015260e05181818161047501528181610bde01528181611ece0152818161235201528181612ba2015261339d01526101005181818161043901528181610bad01528181610ca101528181611e9d01528181612a9a01526133db0152f35b630aaffdf760e31b5f5260045ffd5b506001600160a01b038516156100ea565b506001600160a01b038416156100e3565b506001600160a01b038316156100dc565b9050155f6100d4565b5f80fd5b634e487b7160e01b5f52604160045260245ffd5b51906001600160a01b03821682036102e15756fe6080806040526004361015610012575f80fd5b5f3560e01c9081630dfe168114612340575080631928b3cb146120a2578063226b1e5f1461206357806335659fb8146120465780634a4e3bd514611fb857806351858e2714611f385780635c975abb14611f165780635cd51f1614611942578063645006ca146119255780636704256e146117525780636a5d8e8f1461169e5780636dd5b69d146115cf5780636fa19314146115b2578063787dce3d146115485780637adbf973146114d85780637dc0d1d0146114ac578063873b7797146114775780638945ff66146114175780638da5cb5b146113d357806391dd7346146113685780639b6d40c1146112b6578063a8bc6f7c14611299578063b3a2b30014611254578063b5f188f814611211578063b7902303146111cd578063ba89852214611034578063c7224fff14610ff7578063ca80b34a14610ced578063cfd6d5e914610cd0578063d21220a714610c8c578063dbb4810414610591578063dc4c90d31461054d578063e54a2ad5146101e8578063fd443aa5146101be5763fda1fa5f1461019d575f80fd5b346101ba575f3660031901126101ba576020600754604051908152f35b5f80fd5b346101ba5760203660031901126101ba576004355f52600c602052602060405f2054604051908152f35b346101ba5760203660031901126101ba5760043561020461322a565b805f526008602052600260ff600e60405f20015460081c16610225816123c4565b14801561052f575b61051d57805f52600860205260018060a01b0360405f205416331415806104ea575b6104d45780610319915f52600860205260405f20600e810161020061ff00198254161790555f6102f16102ff60058401546102956001600160801b038260301c16613204565b604051916102a2836124ab565b600183528760208401526102b860028801612522565b60408401528060020b606084015260181c60020b608083015260a08201528360c08201528360e0820152604051928391602083016126a2565b03601f198101835282612500565b604051809581926348c8949160e01b835260048301612406565b0381837f00000000000000000000000000000000000000000000000000000000000000006001600160a01b03165af19283156104c95760409361036d915f916104a7575b5060208082518301019101613214565b919092600654600983015490600a840154906103898284612575565b81111561049e576103a29261039d91613157565b613157565b60065583610462575b82610426575b7f2d482a44386b3e3962eae57f97710f4c8095b7f26664357dc5e5c10b808a4bdf60c060018060a01b0384541693600b81015490600c810154906008600d820154910154918a51938a85528960208601528b8501526060840152608083015260a0820152a360015f5582519182526020820152f35b815461045d9084906001600160a01b03167f0000000000000000000000000000000000000000000000000000000000000000613883565b6103b1565b81546104999085906001600160a01b03167f0000000000000000000000000000000000000000000000000000000000000000613883565b6103ab565b5050505f6103a2565b6104c391503d805f833e6104bb8183612500565b81019061272c565b8561035d565b6040513d5f823e3d90fd5b63e049870b60e01b5f526004523360245260445ffd5b50337f00000000000000000000000000000000000000000000000000000000000000006001600160a01b0316141561024f565b630931e2e960e01b5f5260045260245ffd5b505f818152600860205260409020546001600160a01b03161561022d565b346101ba575f3660031901126101ba576040517f00000000000000000000000000000000000000000000000000000000000000006001600160a01b03168152602090f35b346101ba5736600319016101c081126101ba5760a0136101ba5760c43560a435600360e43510156101ba5760c0366101031901126101ba576105d161322a565b6105d9613248565b8015908180610c84575b610c075760a06105f236612582565b2060015490929060081c6001600160a01b03168015610c745760606044916040519283809263042a2be760e01b825288600483015261063260e4356123c4565b60e43560248301525afa9081156104c9575f80915f93610c41575b509091925b8260020b908260020b9180831215610c2b5761066e8988612575565b9160065461067c8482612575565b90600454809211610c165750506005548310610c075715610bd6575b88610ba5575b60a06106a936612582565b206007546040513360601b6bffffffffffffffffffffffff191660208201908152603482019390935260e887811b605483015288901b605782015242605a820152607a8101919091526106ff81609a81016102f1565b51902097604051906107108261245e565b338252602082015261072136612582565b60408201528360608201528160808201525f60a08201524260c08201524260e08201525f61010082015287610120820152896101408201525f6101608201525f6101808201525f6101a082015261077960e4356123c4565b60e4356101c08201525f6101e0820181905260016102008084018290528b835260086020908152604093849020855181546001600160a01b039182166001600160a01b03199182161783558388015195830195909555858701518051600284018054918416918816919091179055928301516003830180549785015160608087015160b81b62ffffff60b81b1662ffffff60a01b60a09390931b929092169385166001600160d01b0319909a16999099179290921791909117905560809283015160048301805491909216951694909417909355928401516005830180549486015160181b65ffffff0000001662ffffff90921665ffffffffffff199095169490941717835591600e919061089d905b6001600160801b0360a08701511690612609565b60c0840151600682015560e0840151600782015561010084015160088201556101208401516009820155610140840151600a820155610160840151600b820155610180840151600c8201556101a0840151600d82015501916101c0810151610904816123c4565b61090d816123c4565b60ff801985541691161783556109316101e082015161092b816123c4565b84612635565b0151815462ff0000191690151560101b62ff0000161790555f888152600960205260409020610104358155610124356001820155610144356002820155610164356003820155600401906101843580151581036101ba57825490151560ff1660ff19919091161782556101a43593841515918286036101ba576109ec5f956102f195610a6095610a7a995061ff0082549160081b169061ff001916179055338752600a6020526109e48d60408920612654565b600654612575565b6006556109fa600754612694565b600755610a0636612582565b50610a118c8b612575565b9060405192610a1f846124ab565b8684528c6020850152610a3136612582565b60408501526060840152608083015260a08201528860c08201528a60e0820152604051928391602083016126a2565b604051809381926348c8949160e01b835260048301612406565b0381837f00000000000000000000000000000000000000000000000000000000000000006001600160a01b03165af19384156104c9576020978796610af7610ae45f80516020613bfb83398151915298610b7c965f91610b8b575b508c808251830101910161278f565b895f5260088c52600560405f2001612609565b877fc37ba4d3406ee4ad8eacd274a0649799c4cca5f7c0f96860345e7510d6a26139610b5660a0610b2736612582565b209460405191829133968c8c8590949392606092608083019660020b835260020b602083015260408201520152565b0390a460405193849384604091949392606082019560020b825260020b60208201520152565b0390a260015f55604051908152f35b610b9f91503d805f833e6104bb8183612500565b8d610ad5565b610bd18930337f0000000000000000000000000000000000000000000000000000000000000000613263565b61069e565b610c028730337f0000000000000000000000000000000000000000000000000000000000000000613263565b610698565b63297279b760e01b5f5260045ffd5b630627db8360e11b5f5260045260245260445ffd5b826399bd702f60e01b5f5260045260245260445ffd5b915050610c66915060603d606011610c6d575b610c5e8183612500565b810190612818565b918761064d565b503d610c54565b50603b19603c9061138892610652565b5082156105e3565b346101ba575f3660031901126101ba576040517f00000000000000000000000000000000000000000000000000000000000000006001600160a01b03168152602090f35b346101ba575f3660031901126101ba576020600354604051908152f35b346101ba57610cfb36612430565b610d0361322a565b610d0b613248565b825f526008602052600260ff600e60405f20015460081c16610d2c816123c4565b148015610fd9575b610fc6575f83815260086020526040902080549091906001600160a01b03163303610faf578060020b8360020b81811215610f9a57856005850193845494610e1c8660020b96885f6102f16102ff8460181c60020b98610dcc6001600160801b03600260018060a01b037f00000000000000000000000000000000000000000000000000000000000000001697019760301c16613204565b60405191610dd9836124ab565b600183526020830152610deb87612522565b60408301528d60608301528a608083015260a08201528360c08201528360e0820152604051928391602083016126a2565b038183855af1998a156104c957610eac8d610ec8946102f1935f9e978f98610f82575b50600a600982015491015491610e5481612522565b50610e7d610e628484612575565b9160405195610e70876124ab565b8b87526020870152612522565b60408501528c60608501528d608085015260a084015260c083015260e0820152604051928391602083016126a2565b6040519a8b809481936348c8949160e01b835260048301612406565b03925af19687156104c9577f615ebe8f6e8c19a2dde83f53a6cdbaf9a712350449ee6ed7e329fe31f61bbc1298608098610f4894610f42935f92610f64575b50845460189190911b65ffffff0000001662ffffff9390931665ffffffffffff19909116179190911783555b6020808251830101910161278f565b90612609565b604051938452602084015260408301526060820152a260015f55005b610f339250610f7c903d805f833e6104bb8183612500565b91610f07565b610f95903d808b833e6104bb8183612500565b610e3f565b6399bd702f60e01b5f5260045260245260445ffd5b8363e049870b60e01b5f526004523360245260445ffd5b82630931e2e960e01b5f5260045260245ffd5b505f838152600860205260409020546001600160a01b031615610d34565b346101ba5760203660031901126101ba576004355f526008602052602060ff600e60405f20015460081c1661102b816123c4565b60405190158152f35b346101ba5760203660031901126101ba576004356110506127ae565b5061105961322a565b611061613248565b805f526008602052600260ff600e60405f20015460081c16611082816123c4565b1480156111af575b61051d57805f52600860205260405f2060ff600e82015460101c1661119857815f52600c60205260405f20544314611167578160056110e892611163945f52600c6020524360405f20550154908160181c60020b9160020b906132c1565b60015f5560405191829182919091610120806101408301948051845260208101516020850152604081015160020b6040850152606081015160020b60608501526080810151608085015260a081015160a085015260c081015160c085015260e081015160e08501526101008101516101008501520151910152565b0390f35b6001430180431161118457636ba7cbdb60e11b5f5260045260245ffd5b634e487b7160e01b5f52601160045260245ffd5b5063e049870b60e01b5f526004523360245260445ffd5b505f818152600860205260409020546001600160a01b03161561108a565b346101ba575f3660031901126101ba576040517f00000000000000000000000000000000000000000000000000000000000000006001600160a01b03168152602090f35b346101ba5760203660031901126101ba5761122d600435613182565b6040516005821015611240576020918152f35b634e487b7160e01b5f52602160045260245ffd5b346101ba5760203660031901126101ba576111636112736004356130a4565b60409391935193849384604091949392606082019560020b825260020b60208201520152565b346101ba575f3660031901126101ba576020600654604051908152f35b346101ba576112c436612430565b916112cd6127ae565b506112d661322a565b6112de613248565b805f526008602052600260ff600e60405f20015460081c166112ff816123c4565b14801561134a575b61051d57805f52600c60205260405f20544314611167578260020b8260020b81811215610f9a576111636110e8868686805f52600c6020524360405f20556132c1565b505f818152600860205260409020546001600160a01b031615611307565b346101ba5760203660031901126101ba5760043567ffffffffffffffff81116101ba57366023820112156101ba5780600401359067ffffffffffffffff82116101ba5736602483830101116101ba576111639160246113c79201612841565b60405191829182612406565b346101ba575f3660031901126101ba576040517f00000000000000000000000000000000000000000000000000000000000000006001600160a01b03168152602090f35b346101ba5760203660031901126101ba577f00000000000000000000000000000000000000000000000000000000000000006001600160a01b0316330361146057600480359055005b63e049870b60e01b5f525f6004523360245260445ffd5b346101ba5760203660031901126101ba576004355f526008602052602060ff600e60405f20015460101c166040519015158152f35b346101ba575f3660031901126101ba5760015460405160089190911c6001600160a01b03168152602090f35b346101ba5760203660031901126101ba576114f16123dc565b7f00000000000000000000000000000000000000000000000000000000000000006001600160a01b031633036114605760018054610100600160a81b03191660089290921b610100600160a81b0316919091179055005b346101ba5760203660031901126101ba576004357f00000000000000000000000000000000000000000000000000000000000000006001600160a01b03163303611460576103e8811161159a57600255005b63110f339560e21b5f526004526103e860245260445ffd5b346101ba575f3660031901126101ba576020600454604051908152f35b346101ba5760203660031901126101ba575f60a06040516115ef816124c8565b82815282602082015282604082015282606082015282608082015201526004355f52600960205260c060405f2060405190611629826124c8565b8054918281526001820154916020820192835260028101546040830190815260046003830154926060850193845201549360ff60a0608086019582881615158752019560081c1615158552604051958652516020860152516040850152516060840152511515608083015251151560a0820152f35b346101ba5760203660031901126101ba576001600160a01b036116bf6123dc565b165f52600a60205260405f20604051806020835491828152019081935f5260205f20905f5b81811061173c57505050816116fa910382612500565b604051918291602083019060208452518091526040830191905f5b818110611723575050500390f35b8251845285945060209384019390920191600101611715565b82548452602090930192600192830192016116e4565b346101ba5760203660031901126101ba5760043561176e6127ae565b5061177761322a565b61177f613248565b805f526008602052600260ff600e60405f20015460081c166117a0816123c4565b148015611907575b61051d57805f52600860205260405f2090600e82019060ff825460101c16156104d457805f52600c60205260405f20544314611167575f818152600c6020526040902043905560015460081c6001600160a01b03169182156118d357604460ff60016060949596015492541691604051958693849263042a2be760e01b84526004840152611835816123c4565b60248301525afa80156104c957611163926110e8925f80925f94611898575b505f80516020613bfb833981519152611890839294955b604051918291888884604091949392606082019560020b825260020b60208201520152565b0390a26132c1565b61189094505f80516020613bfb83398151915293508291506118c89060603d606011610c6d57610c5e8183612500565b955093909150611854565b506110e8915060056111639301548060020b9060181c60020b91805f80516020613bfb83398151915261189061138861186b565b505f818152600860205260409020546001600160a01b0316156117a8565b346101ba575f3660031901126101ba576020600554604051908152f35b346101ba57366003190161020081126101ba5760a0136101ba5760a4358060020b908181036101ba5760c435918260020b918284036101ba5760e435610104359260036101243510156101ba5760c0366101431901126101ba576119a461322a565b6119ac613248565b81158080611f0e575b610c075785821215611ef7576119cb8584612575565b906006546119d98382612575565b90600454809211610c165750506005548210610c075715611ec6575b84611e95575b60a0611a0636612582565b206007546040513360601b6bffffffffffffffffffffffff191660208201908152603482019390935260e887811b60548301528a901b605782015242605a820152607a810191909152611a5c81609a81016102f1565b5190209560a0611a6b36612582565b2060405190611a798261245e565b3382526020820152611a8a36612582565b60408201528360608201528160808201525f60a08201524260c08201524260e08201525f61010082015284610120820152866101408201525f6101608201525f6101808201525f6101a0820152611ae3610124356123c4565b610124356101c08201525f6101e0820181905261020080830182905289825260086020908152604092839020845181546001600160a01b039182166001600160a01b0319918216178355838701516001840155858701518051600285018054918516918416919091179055938401516003840180549786015160608088015160b81b62ffffff60b81b1662ffffff60a01b60a09390931b929092169386166001600160d01b0319909a169990991792909217919091179055608093840151600484018054919093169116179055928401516005840180549286015160181b65ffffff0000001662ffffff90921665ffffffffffff19909316929092171781559091600e91611bf090610889565b60c0840151600682015560e0840151600782015561010084015160088201556101208401516009820155610140840151600a820155610160840151600b820155610180840151600c8201556101a0840151600d82015501916101c0810151611c57816123c4565b611c60816123c4565b60ff80198554169116178355611c7e6101e082015161092b816123c4565b0151815462ff0000191690151560101b62ff0000161790555f8781526009602052604090206101443581556101643560018201556101843560028201556101a4356003820155600401906101c43580151581036101ba57825490151560ff1660ff19919091161782556101e43593841515918286036101ba57611d315f956102f195610a6095611da5995061ff0082549160081b169061ff001916179055338752600a6020526109e48c60408920612654565b600655611d3f600754612694565b600755611d4b36612582565b50611d568988612575565b9060405192611d64846124ab565b8684528b6020850152611d7636612582565b60408501526060840152608083015260a08201528560c08201528760e0820152604051928391602083016126a2565b0381837f00000000000000000000000000000000000000000000000000000000000000006001600160a01b03165af19182156104c957602096611e31611e1e88957fc37ba4d3406ee4ad8eacd274a0649799c4cca5f7c0f96860345e7510d6a26139955f91611e7b575b508a808251830101910161278f565b855f5260088a52600560405f2001612609565b611e6c60a0611e3f36612582565b209660405193849333988590949392606092608083019660020b835260020b602083015260408201520152565b0390a460015f55604051908152f35b611e8f91503d805f833e6104bb8183612500565b8b611e0f565b611ec18530337f0000000000000000000000000000000000000000000000000000000000000000613263565b6119fb565b611ef28330337f0000000000000000000000000000000000000000000000000000000000000000613263565b6119f5565b85826399bd702f60e01b5f5260045260245260445ffd5b5084156119b5565b346101ba575f3660031901126101ba57602060ff600154166040519015158152f35b346101ba575f3660031901126101ba577f00000000000000000000000000000000000000000000000000000000000000006001600160a01b0316330361146057611f80613248565b600160ff19815416176001557f62e78cea01bee320cd4e420270b5ea74000d11b0c9f74754ebdbfc544b05a2586020604051338152a1005b346101ba575f3660031901126101ba577f00000000000000000000000000000000000000000000000000000000000000006001600160a01b031633036114605760015460ff8116156120375760ff19166001557f5db9ee0a495bf2e6ff9c91a7834c1ba4fdd244a5e8aa4e537bd38aeae4b073aa6020604051338152a1005b638dfc202b60e01b5f5260045ffd5b346101ba575f3660031901126101ba576020600254604051908152f35b346101ba5760203660031901126101ba5760043560038110156101ba57612089816123c4565b5f52600b602052602060405f205460020b604051908152f35b346101ba5760203660031901126101ba575f6102006040516120c38161245e565b8281528260208201526040516120d88161248f565b83815283602082015283604082015283606082015283608082015260408201528260608201528260808201528260a08201528260c08201528260e08201528261010082015282610120820152826101408201528261016082015282610180820152826101a0820152826101c0820152826101e082015201526004355f5260086020526102a060405f2060ff600e604051926121728461245e565b80546001600160a01b031684526001810154602085015261219560028201612522565b60408501526001600160801b0360058201548060020b60608701528060181c60020b608087015260301c1660a0850152600681015460c0850152600781015460e085015260088101546101008501526009810154610120850152600a810154610140850152600b810154610160850152600c810154610180850152600d8101546101a08501520154818116612229816123c4565b6101c0840152818160081c1661223e816123c4565b6101e084015260101c1615156102008201526102006040519160018060a01b0381511683526020810151602084015261227f60408201516040850190612381565b606081015160020b60e0840152608081015160020b6101008401526001600160801b0360a08201511661012084015260c081015161014084015260e08101516101608401526101008101516101808401526101208101516101a08401526101408101516101c08401526101608101516101e0840152610180810151828401526101a08101516102208401526101c0810151612319816123c4565b6102408401526101e081015161232e816123c4565b61026084015201511515610280820152f35b346101ba575f3660031901126101ba577f00000000000000000000000000000000000000000000000000000000000000006001600160a01b03168152602090f35b80516001600160a01b03908116835260208083015182169084015260408083015162ffffff169084015260608083015160020b9084015260809182015116910152565b6003111561124057565b35908160020b82036101ba57565b600435906001600160a01b03821682036101ba57565b35906001600160a01b03821682036101ba57565b602060409281835280519182918282860152018484015e5f828201840152601f01601f1916010190565b60609060031901126101ba57600435906024358060020b81036101ba57906044358060020b81036101ba5790565b610220810190811067ffffffffffffffff82111761247b57604052565b634e487b7160e01b5f52604160045260245ffd5b60a0810190811067ffffffffffffffff82111761247b57604052565b610100810190811067ffffffffffffffff82111761247b57604052565b60c0810190811067ffffffffffffffff82111761247b57604052565b6080810190811067ffffffffffffffff82111761247b57604052565b90601f8019910116810190811067ffffffffffffffff82111761247b57604052565b9060405161252f8161248f565b82546001600160a01b0390811682526001840154808216602084015260a081901c62ffffff16604084015260b81c600290810b6060840152909301549092166080830152565b9190820180921161118457565b60a09060031901126101ba576040519061259b8261248f565b816004356001600160a01b03811681036101ba5781526024356001600160a01b03811681036101ba57602082015260443562ffffff811681036101ba5760408201526064358060020b81036101ba576060820152608435906001600160a01b03821682036101ba5760800152565b906601000000000000600160b01b0382549160301b16906601000000000000600160b01b031916179055565b9061263f816123c4565b61ff0082549160081b169061ff001916179055565b8054906801000000000000000082101561247b5760018201808255821015612680575f5260205f200155565b634e487b7160e01b5f52603260045260245ffd5b5f1981146111845760010190565b91909161016060e061018083019480516126bb816123c4565b8452602081015160208501526126d960408201516040860190612381565b606081015160020b82850152608081015160020b61010085015260a081015161012085015260c08101516101408501520151910152565b67ffffffffffffffff811161247b57601f01601f191660200190565b6020818303126101ba5780519067ffffffffffffffff82116101ba570181601f820112156101ba5780519061276082612710565b9261276e6040519485612500565b828452602083830101116101ba57815f9260208093018386015e8301015290565b908160209103126101ba57516001600160801b03811681036101ba5790565b60405190610140820182811067ffffffffffffffff82111761247b576040525f610120838281528260208201528260408201528260608201528260808201528260a08201528260c08201528260e0820152826101008201520152565b51908160020b82036101ba57565b908160609103126101ba5761282c8161280a565b91604061283b6020840161280a565b92015190565b606092917f00000000000000000000000000000000000000000000000000000000000000006001600160a01b03163381900361146057825f928101039061018082126101ba57604051612893816124ab565b843560038110156101ba57815260a0602082019360208701358552603f1901126101ba57604051926128c48461248f565b6128d0604087016123f2565b84526128dd8887016123f2565b6020850152608086013562ffffff811681036101ba57604085015261290460a087016123ce565b8489015260c08601356001600160a01b03811681036101ba5760808501526040820193845261293560e087016123ce565b9780830198895261294961010088016123ce565b926080810193845261016060a08201986101208101358a5261014081013560c0840152013560e0820152805161297e816123c4565b612987816123c4565b612c68575050906129dd976040928551915160020b925160020b9088519051918551946129b3866124e4565b855260208501528484015260608301528251632d35e7ed60e11b8152988992839260048401613806565b038186855af1958615612c5d578396612c2b575b508560801d95600f0b958381600f0b12612b48575b50828612612a3a575b5050506001600160801b03919250511660405190602082015260208152612a37604082612500565b90565b6001600160801b03612a4c8497613854565b9251602001519216916001600160a01b0316813b15612b445760405190632961046560e21b82526004820152838160248183865af1908115612b20578491612b2b575b5050612abe602092827f0000000000000000000000000000000000000000000000000000000000000000613883565b600460405180948193630476982d60e21b83525af18015612b20576001600160801b03939450612af1575b839281612a0f565b612b129060203d602011612b19575b612b0a8183612500565b810190613874565b505f612ae9565b503d612b00565b6040513d86823e3d90fd5b81612b3591612500565b612b4057825f612a8f565b8280fd5b8380fd5b612b596001600160801b0391613854565b8351519116906001600160a01b0316823b15612c275760405190632961046560e21b82526004820152848160248183875af18015612c1c57908591612c07575b5050612bc690827f0000000000000000000000000000000000000000000000000000000000000000613883565b604051630476982d60e21b815260208160048187865af18015612b205715612a0657612c009060203d602011612b1957612b0a8183612500565b505f612a06565b81612c1191612500565b612b4457835f612b99565b6040513d87823e3d90fd5b8480fd5b612c4e91965060403d604011612c56575b612c468183612500565b810190613214565b50945f6129f1565b503d612c3c565b6040513d85823e3d90fd5b6001909994979395969951612c7c816123c4565b612c85816123c4565b03612e73575091612cde95969793916040938651925160020b935160020b9151905191855194612cb4866124e4565b855260208501528484015260608301528251632d35e7ed60e11b8152958692839260048401613806565b038184885af1928315612e66578193612e44575b50809381938060801d8381600f0b13612dc6575b508281600f0b13612d33575b50505050604051916020830152604082015260408152612a37606082612500565b9251602001516001600160801b03909316935090916001600160a01b0316813b15612b4057604051630b0d9c0960e01b81526001600160a01b03919091166004820152306024820152604481018490529082908290606490829084905af18015612dbb57612da3575b8080612d12565b612dae828092612500565b612db85780612d9c565b80fd5b6040513d84823e3d90fd5b8451516001600160801b039190911696506001600160a01b0316823b15612b4457604051630b0d9c0960e01b81526001600160a01b0391909116600482015230602482015260448101879052838160648183875af18015612b2057908491612e2f575b50612d06565b81612e3991612500565b612b4057825f612e29565b612e5e91935060403d604011612c5657612c468183612500565b50915f612cf2565b50604051903d90823e3d90fd5b94915091612ec3936040918351905160020b915160020b855190845193612e99856124e4565b845260208401525f84840152878301528251632d35e7ed60e11b8152958692839260048401613806565b03815f895af19283156104c9575f93613081575b505f945f938060801d5f81600f0b1361300c575b508881600f0b13612f75575b505050600c6040612a3795969783518152600860205220600b8101612f1d888254612575565b905501612f2b838254612575565b9055517f4257047a82edf43bf1bef92176ac66a3c63ee849651929eabf6dbd8492817ac560408051878152846020820152a260405193602085015260408401526040835282612500565b9151602001516001600160801b0390921693509087906001600160a01b0316823b1561300857604051630b0d9c0960e01b81526001600160a01b0391909116600482015230602482015260448101859052918290606490829084905af18015612ffd57612fe4575b8080612ef7565b612fef878092612500565b612ff9575f612fdd565b8580fd5b6040513d89823e3d90fd5b5080fd5b8351516001600160801b039190911697506001600160a01b0316823b156101ba57604051630b0d9c0960e01b81526001600160a01b03919091166004820152306024820152604481018890525f8160648183875af180156104c95715612eeb576130799199505f90612500565b5f975f612eeb565b61309b91935060403d604011612c5657612c468183612500565b9050915f612ed7565b5f52600860205260405f209060018060a01b0360015460081c1691821561313d5780604460ff600e600160609501549301541691604051958693849263042a2be760e01b845260048401526130f8816123c4565b60248301525afa9081156104c9575f80935f93613116575b50929190565b91935050613133915060603d606011610c6d57610c5e8183612500565b929092915f613110565b60059192500154908160020b9160181c60020b9061138890565b9190820391821161118457565b811561316e570490565b634e487b7160e01b5f52601260045260245ffd5b5f52600860205260405f2060ff600e82015460081c166131a1816123c4565b600281146131fe576001906131b5816123c4565b146131f8576131cb6007610e1092015442613157565b04603081116131f257601881116131ec576006106131e7575f90565b600190565b50600290565b50600390565b50600490565b50505f90565b600160ff1b8114611184575f0390565b91908260409103126101ba576020825192015190565b60025f54146132395760025f55565b633ee5aeb560e01b5f5260045ffd5b60ff6001541661325457565b63d93c066560e01b5f5260045ffd5b6040516323b872dd60e01b60208201526001600160a01b0392831660248201529290911660448301526064808301939093529181526132ac916132a7608483612500565b6138be565b565b8181029291811591840414171561118457565b9092916132cc6127ae565b93825f52600860205260405f209060018060a01b037f0000000000000000000000000000000000000000000000000000000000000000166133726002840194600585015f6102f16102ff835460405190613325826124ab565b600282528c60208301526133388c612522565b60408301528060020b606083015260181c60020b60808201528360a08201528360c08201528360e0820152604051928391602083016126a2565b038183885af19283156104c9578a9361339b915f916137ec575060208082518301019101613214565b7f00000000000000000000000000000000000000000000000000000000000000009790939192908a6133d56001600160a01b038b1661395a565b916134087f00000000000000000000000000000000000000000000000000000000000000006001600160a01b031661395a565b90886134226009830193845496600a8501978854906139f9565b9c8d60c083019e8f5261343a600d8501918254612575565b90556127106134608a6101008361345460025480946132ae565b0495019485528c6132ae565b04918a6101208d019c8d9485525f935f958d60018060a01b038954163303613792575b6080840152505060a00152845461349b908b90612575565b90516134a691613157565b906134b091613157565b99898654906134be91612575565b90516134c991613157565b906134d391613157565b958d86548060301c6001600160801b03166134ed90613204565b91604051966134fb886124ab565b60018852602088015261350d90612522565b60408701528060020b606087015260181c60020b608086015260a085015260c084015f905260e084015f90526040518094602082019061354c916126a2565b03601f198101855261355e9085612500565b8a6040518080966348c8949160e01b8252600482019061357d91612406565b03815a5f948591f19384156104c9578f948f90916135a09261377a575b50612522565b506135ab878b612575565b9d604051946135b9866124ab565b5f865260208601526135ca90612522565b60408501528b60020b9a8b60608601528160020b9e8f608087015260a08601528a60c08601528760e086015260405180956020820190613609916126a2565b03601f198101865261361b9086612500565b6040516348c8949160e01b8152948590819061363a9060048301612406565b03815a5f948591f19586156104c95787968b955f91613760575b5080518101602001906020019061366a9161278f565b600884019283549e62ffffff198454169062ffffff161783556136a690839081549060181b65ffffff000000169065ffffff0000001916179055565b6136af91612609565b42600783015580546136c090612694565b9055600b8101878154906136d391612575565b9055600c01878154906136e591612575565b90555555838b5260208b01528360408b01528660608b015260018501809511611184577ffa3851a924c72b43de4876c68a3990ccd9ae6a2a8c38a9a4bb7fc5aec00133a39661373860e097519480613157565b94604051968752602087015260408601526060850152608084015260a083015260c0820152a2565b61377491503d805f833e6104bb8183612500565b5f613654565b61378d903d805f833e6104bb8183612500565b61359a565b6127109297506137c99196506137aa90865190613157565b6137c4836137bb60035480946132ae565b04975186613157565b6132ae565b049484806137da575b508e8d613483565b6137e5913390613883565b5f846137d2565b61380091503d805f833e6104bb8183612500565b5f61035d565b906101609261381783606093612381565b805160020b60a0840152602081015160020b60c0840152604081015160e084015201516101008201526101406101208201525f6101408201520190565b600f0b6f7fffffffffffffffffffffffffffffff198114611184575f0390565b908160209103126101ba575190565b60405163a9059cbb60e01b60208201526001600160a01b0390921660248301526044808301939093529181526132ac916132a7606483612500565b5f806139069260018060a01b03169360208151910182865af13d15613952573d906138e882612710565b916138f66040519384612500565b82523d5f602084013e5b83613b9c565b805190811515918261392e575b505061391c5750565b635274afe760e01b5f5260045260245ffd5b81925090602091810103126101ba57602001518015908115036101ba575f80613913565b606090613900565b60015460081c6001600160a01b03169081156139eb5760408051631516778560e11b81526001600160a01b0390921660048301529091829060249082905afa5f91816139c9575b506139b35750670de0b6b3a764000090565b80156139bc5790565b50670de0b6b3a764000090565b6139e391925060403d604011612c5657612c468183612500565b50905f6139a1565b5050670de0b6b3a764000090565b918315613ad957670de0b6b3a7640000810290808204670de0b6b3a764000014901517156111845783613a2b91613164565b613a3481613b11565b600181901b91906001600160ff1b0381160361118457670de0b6b3a76400000180670de0b6b3a7640000116111845780613ae15750505f905b670de0b6b3a763ffff198201918213600116611184575f821215613ad957670de0b6b3a7640000810290808204670de0b6b3a7640000149015171561118457613acf613ad593613ac9670de0b6b3a7640000966137c494613164565b90612575565b91613204565b0490565b505050505f90565b670de0b6b3a7640000820291808304670de0b6b3a7640000149015171561118457613b0b91613164565b90613a6d565b908115613b9757670de0b6b3a7640000821015613b9157670de0b6b3a7640000915b670de0b6b3a7640000818102918204141583816111845780613ac9613b5a92859495613164565b60011c5b848110613b6a57505050565b93509083816111845780613b81613b869285613164565b612575565b60011c909190613b5e565b81613b33565b5f9150565b90613bc05750805115613bb157805190602001fd5b630a12f52160e11b5f5260045ffd5b81511580613bf1575b613bd1575090565b639996b31560e01b5f9081526001600160a01b0391909116600452602490fd5b50803b15613bc956fe326266e0ed0197f9920f5118b0456a39d4b2ee01a56a4d600ff644c86fc92658a2646970667358221220f21bf6b9e6f32b40c570e0e747f15961a81e156d0bc500ec8341d7392e81ee9464736f6c634300081a0033","linkReferences":{}},"methodIdentifiers":{"adjustRange(bytes32,int24,int24)":"ca80b34a","autoCompound(bytes32)":"6704256e","closePosition(bytes32)":"e54a2ad5","compoundManual(bytes32)":"ba898522","compoundPosition(bytes32,int24,int24)":"9b6d40c1","emergencyPause()":"51858e27","emergencyUnpause()":"4a4e3bd5","getAIRecommendation(bytes32)":"b3a2b300","getCompoundUrgency(bytes32)":"b5f188f8","getConfig(bytes32)":"6dd5b69d","getPosition(bytes32)":"1928b3cb","getPositionsByOwner(address)":"6a5d8e8f","insuranceFund()":"b7902303","isAIManaged(bytes32)":"873b7797","isInRange(bytes32)":"c7224fff","keeperRewardBps()":"cfd6d5e9","lastCompoundBlock(bytes32)":"fd443aa5","maxTVLCap()":"6fa19314","minDepositAmount()":"645006ca","openPosition((address,address,uint24,int24,address),int24,int24,uint256,uint256,uint8,(uint256,uint256,uint256,uint256,bool,bool))":"5cd51f16","openPositionAI((address,address,uint24,int24,address),uint256,uint256,uint8,(uint256,uint256,uint256,uint256,bool,bool))":"dbb48104","oracle()":"7dc0d1d0","owner()":"8da5cb5b","paused()":"5c975abb","poolManager()":"dc4c90d3","protocolFeeBps()":"35659fb8","rangeWidthTicks(uint8)":"226b1e5f","setMaxTVLCap(uint256)":"8945ff66","setOracle(address)":"7adbf973","setProtocolFee(uint256)":"787dce3d","token0()":"0dfe1681","token1()":"d21220a7","totalPositions()":"fda1fa5f","totalTVL()":"a8bc6f7c","unlockCallback(bytes)":"91dd7346"},"id":46}