{"abi":[{"type":"constructor","inputs":[{"name":"_owner","type":"address","internalType":"address"},{"name":"_poolManager","type":"address","internalType":"contract IPoolManager"},{"name":"_insuranceFund","type":"address","internalType":"address"},{"name":"_token0","type":"address","internalType":"address"},{"name":"_token1","type":"address","internalType":"address"},{"name":"_oracle","type":"address","internalType":"address"}],"stateMutability":"nonpayable"},{"type":"function","name":"adjustRange","inputs":[{"name":"id","type":"bytes32","internalType":"bytes32"},{"name":"newTickLower","type":"int24","internalType":"int24"},{"name":"newTickUpper","type":"int24","internalType":"int24"}],"outputs":[],"stateMutability":"nonpayable"},{"type":"function","name":"autoCompound","inputs":[{"name":"id","type":"bytes32","internalType":"bytes32"}],"outputs":[{"name":"result","type":"tuple","internalType":"struct CompoundResult","components":[{"name":"newCapital0","type":"uint256","internalType":"uint256"},{"name":"newCapital1","type":"uint256","internalType":"uint256"},{"name":"newTickLower","type":"int24","internalType":"int24"},{"name":"newTickUpper","type":"int24","internalType":"int24"},{"name":"feesCollected0","type":"uint256","internalType":"uint256"},{"name":"feesCollected1","type":"uint256","internalType":"uint256"},{"name":"ilRealized0","type":"uint256","internalType":"uint256"},{"name":"gasCostWei","type":"uint256","internalType":"uint256"},{"name":"protocolFee0","type":"uint256","internalType":"uint256"},{"name":"protocolFee1","type":"uint256","internalType":"uint256"}]}],"stateMutability":"nonpayable"},{"type":"function","name":"closePosition","inputs":[{"name":"id","type":"bytes32","internalType":"bytes32"}],"outputs":[{"name":"returned0","type":"uint256","internalType":"uint256"},{"name":"returned1","type":"uint256","internalType":"uint256"}],"stateMutability":"nonpayable"},{"type":"function","name":"compoundManual","inputs":[{"name":"id","type":"bytes32","internalType":"bytes32"}],"outputs":[{"name":"result","type":"tuple","internalType":"struct CompoundResult","components":[{"name":"newCapital0","type":"uint256","internalType":"uint256"},{"name":"newCapital1","type":"uint256","internalType":"uint256"},{"name":"newTickLower","type":"int24","internalType":"int24"},{"name":"newTickUpper","type":"int24","internalType":"int24"},{"name":"feesCollected0","type":"uint256","internalType":"uint256"},{"name":"feesCollected1","type":"uint256","internalType":"uint256"},{"name":"ilRealized0","type":"uint256","internalType":"uint256"},{"name":"gasCostWei","type":"uint256","internalType":"uint256"},{"name":"protocolFee0","type":"uint256","internalType":"uint256"},{"name":"protocolFee1","type":"uint256","internalType":"uint256"}]}],"stateMutability":"nonpayable"},{"type":"function","name":"compoundPosition","inputs":[{"name":"id","type":"bytes32","internalType":"bytes32"},{"name":"newTickLower","type":"int24","internalType":"int24"},{"name":"newTickUpper","type":"int24","internalType":"int24"}],"outputs":[{"name":"result","type":"tuple","internalType":"struct CompoundResult","components":[{"name":"newCapital0","type":"uint256","internalType":"uint256"},{"name":"newCapital1","type":"uint256","internalType":"uint256"},{"name":"newTickLower","type":"int24","internalType":"int24"},{"name":"newTickUpper","type":"int24","internalType":"int24"},{"name":"feesCollected0","type":"uint256","internalType":"uint256"},{"name":"feesCollected1","type":"uint256","internalType":"uint256"},{"name":"ilRealized0","type":"uint256","internalType":"uint256"},{"name":"gasCostWei","type":"uint256","internalType":"uint256"},{"name":"protocolFee0","type":"uint256","internalType":"uint256"},{"name":"protocolFee1","type":"uint256","internalType":"uint256"}]}],"stateMutability":"nonpayable"},{"type":"function","name":"emergencyPause","inputs":[],"outputs":[],"stateMutability":"nonpayable"},{"type":"function","name":"emergencyUnpause","inputs":[],"outputs":[],"stateMutability":"nonpayable"},{"type":"function","name":"getAIRecommendation","inputs":[{"name":"id","type":"bytes32","internalType":"bytes32"}],"outputs":[{"name":"tickLower","type":"int24","internalType":"int24"},{"name":"tickUpper","type":"int24","internalType":"int24"},{"name":"confidence","type":"uint256","internalType":"uint256"}],"stateMutability":"view"},{"type":"function","name":"getCompoundUrgency","inputs":[{"name":"id","type":"bytes32","internalType":"bytes32"}],"outputs":[{"name":"","type":"uint8","internalType":"enum CompoundUrgency"}],"stateMutability":"view"},{"type":"function","name":"getConfig","inputs":[{"name":"id","type":"bytes32","internalType":"bytes32"}],"outputs":[{"name":"","type":"tuple","internalType":"struct CompoundConfig","components":[{"name":"minProfitUSD","type":"uint256","internalType":"uint256"},{"name":"gasCushionBps","type":"uint256","internalType":"uint256"},{"name":"slippageBps","type":"uint256","internalType":"uint256"},{"name":"maxCompoundsPerDay","type":"uint256","internalType":"uint256"},{"name":"aiRangeEnabled","type":"bool","internalType":"bool"},{"name":"autoRebalance","type":"bool","internalType":"bool"}]}],"stateMutability":"view"},{"type":"function","name":"getPosition","inputs":[{"name":"id","type":"bytes32","internalType":"bytes32"}],"outputs":[{"name":"","type":"tuple","internalType":"struct Position","components":[{"name":"owner","type":"address","internalType":"address"},{"name":"poolId","type":"bytes32","internalType":"bytes32"},{"name":"poolKey","type":"tuple","internalType":"struct PoolKey","components":[{"name":"currency0","type":"address","internalType":"Currency"},{"name":"currency1","type":"address","internalType":"Currency"},{"name":"fee","type":"uint24","internalType":"uint24"},{"name":"tickSpacing","type":"int24","internalType":"int24"},{"name":"hooks","type":"address","internalType":"contract IHooks"}]},{"name":"tickLower","type":"int24","internalType":"int24"},{"name":"tickUpper","type":"int24","internalType":"int24"},{"name":"liquidity","type":"uint128","internalType":"uint128"},{"name":"depositTime","type":"uint256","internalType":"uint256"},{"name":"lastCompound","type":"uint256","internalType":"uint256"},{"name":"compoundCount","type":"uint256","internalType":"uint256"},{"name":"initialCapital0","type":"uint256","internalType":"uint256"},{"name":"initialCapital1","type":"uint256","internalType":"uint256"},{"name":"totalFees0","type":"uint256","internalType":"uint256"},{"name":"totalFees1","type":"uint256","internalType":"uint256"},{"name":"totalIL0","type":"uint256","internalType":"uint256"},{"name":"riskProfile","type":"uint8","internalType":"enum RiskProfile"},{"name":"status","type":"uint8","internalType":"enum PositionStatus"},{"name":"aiManaged","type":"bool","internalType":"bool"},{"name":"entryPrice0USD","type":"uint256","internalType":"uint256"}]}],"stateMutability":"view"},{"type":"function","name":"getPositionsByOwner","inputs":[{"name":"a","type":"address","internalType":"address"}],"outputs":[{"name":"","type":"bytes32[]","internalType":"bytes32[]"}],"stateMutability":"view"},{"type":"function","name":"insuranceFund","inputs":[],"outputs":[{"name":"","type":"address","internalType":"contract IInsuranceFund"}],"stateMutability":"view"},{"type":"function","name":"isAIManaged","inputs":[{"name":"id","type":"bytes32","internalType":"bytes32"}],"outputs":[{"name":"","type":"bool","internalType":"bool"}],"stateMutability":"view"},{"type":"function","name":"isInRange","inputs":[{"name":"id","type":"bytes32","internalType":"bytes32"}],"outputs":[{"name":"","type":"bool","internalType":"bool"}],"stateMutability":"view"},{"type":"function","name":"keeperRewardBps","inputs":[],"outputs":[{"name":"","type":"uint256","internalType":"uint256"}],"stateMutability":"view"},{"type":"function","name":"lastCompoundBlock","inputs":[{"name":"","type":"bytes32","internalType":"bytes32"}],"outputs":[{"name":"","type":"uint256","internalType":"uint256"}],"stateMutability":"view"},{"type":"function","name":"maxTVLCap","inputs":[],"outputs":[{"name":"","type":"uint256","internalType":"uint256"}],"stateMutability":"view"},{"type":"function","name":"minDepositAmount","inputs":[],"outputs":[{"name":"","type":"uint256","internalType":"uint256"}],"stateMutability":"view"},{"type":"function","name":"openPosition","inputs":[{"name":"key","type":"tuple","internalType":"struct PoolKey","components":[{"name":"currency0","type":"address","internalType":"Currency"},{"name":"currency1","type":"address","internalType":"Currency"},{"name":"fee","type":"uint24","internalType":"uint24"},{"name":"tickSpacing","type":"int24","internalType":"int24"},{"name":"hooks","type":"address","internalType":"contract IHooks"}]},{"name":"tickLower","type":"int24","internalType":"int24"},{"name":"tickUpper","type":"int24","internalType":"int24"},{"name":"amount0","type":"uint256","internalType":"uint256"},{"name":"amount1","type":"uint256","internalType":"uint256"},{"name":"riskProfile","type":"uint8","internalType":"enum RiskProfile"},{"name":"config","type":"tuple","internalType":"struct CompoundConfig","components":[{"name":"minProfitUSD","type":"uint256","internalType":"uint256"},{"name":"gasCushionBps","type":"uint256","internalType":"uint256"},{"name":"slippageBps","type":"uint256","internalType":"uint256"},{"name":"maxCompoundsPerDay","type":"uint256","internalType":"uint256"},{"name":"aiRangeEnabled","type":"bool","internalType":"bool"},{"name":"autoRebalance","type":"bool","internalType":"bool"}]}],"outputs":[{"name":"positionId","type":"bytes32","internalType":"bytes32"}],"stateMutability":"nonpayable"},{"type":"function","name":"openPositionAI","inputs":[{"name":"key","type":"tuple","internalType":"struct PoolKey","components":[{"name":"currency0","type":"address","internalType":"Currency"},{"name":"currency1","type":"address","internalType":"Currency"},{"name":"fee","type":"uint24","internalType":"uint24"},{"name":"tickSpacing","type":"int24","internalType":"int24"},{"name":"hooks","type":"address","internalType":"contract IHooks"}]},{"name":"amount0","type":"uint256","internalType":"uint256"},{"name":"amount1","type":"uint256","internalType":"uint256"},{"name":"riskProfile","type":"uint8","internalType":"enum RiskProfile"},{"name":"config","type":"tuple","internalType":"struct CompoundConfig","components":[{"name":"minProfitUSD","type":"uint256","internalType":"uint256"},{"name":"gasCushionBps","type":"uint256","internalType":"uint256"},{"name":"slippageBps","type":"uint256","internalType":"uint256"},{"name":"maxCompoundsPerDay","type":"uint256","internalType":"uint256"},{"name":"aiRangeEnabled","type":"bool","internalType":"bool"},{"name":"autoRebalance","type":"bool","internalType":"bool"}]}],"outputs":[{"name":"positionId","type":"bytes32","internalType":"bytes32"}],"stateMutability":"nonpayable"},{"type":"function","name":"oracle","inputs":[],"outputs":[{"name":"","type":"address","internalType":"contract IXenorizeOracle"}],"stateMutability":"view"},{"type":"function","name":"owner","inputs":[],"outputs":[{"name":"","type":"address","internalType":"address"}],"stateMutability":"view"},{"type":"function","name":"paused","inputs":[],"outputs":[{"name":"","type":"bool","internalType":"bool"}],"stateMutability":"view"},{"type":"function","name":"poolManager","inputs":[],"outputs":[{"name":"","type":"address","internalType":"contract IPoolManager"}],"stateMutability":"view"},{"type":"function","name":"protocolFeeBps","inputs":[],"outputs":[{"name":"","type":"uint256","internalType":"uint256"}],"stateMutability":"view"},{"type":"function","name":"rangeWidthTicks","inputs":[{"name":"","type":"uint8","internalType":"enum RiskProfile"}],"outputs":[{"name":"","type":"int24","internalType":"int24"}],"stateMutability":"view"},{"type":"function","name":"setMaxTVLCap","inputs":[{"name":"cap","type":"uint256","internalType":"uint256"}],"outputs":[],"stateMutability":"nonpayable"},{"type":"function","name":"setOracle","inputs":[{"name":"a","type":"address","internalType":"address"}],"outputs":[],"stateMutability":"nonpayable"},{"type":"function","name":"setProtocolFee","inputs":[{"name":"bps","type":"uint256","internalType":"uint256"}],"outputs":[],"stateMutability":"nonpayable"},{"type":"function","name":"token0","inputs":[],"outputs":[{"name":"","type":"address","internalType":"contract IERC20"}],"stateMutability":"view"},{"type":"function","name":"token1","inputs":[],"outputs":[{"name":"","type":"address","internalType":"contract IERC20"}],"stateMutability":"view"},{"type":"function","name":"totalPositions","inputs":[],"outputs":[{"name":"","type":"uint256","internalType":"uint256"}],"stateMutability":"view"},{"type":"function","name":"totalTVL","inputs":[],"outputs":[{"name":"","type":"uint256","internalType":"uint256"}],"stateMutability":"view"},{"type":"function","name":"unlockCallback","inputs":[{"name":"data","type":"bytes","internalType":"bytes"}],"outputs":[{"name":"","type":"bytes","internalType":"bytes"}],"stateMutability":"nonpayable"},{"type":"event","name":"AIRangeApplied","inputs":[{"name":"id","type":"bytes32","indexed":true,"internalType":"bytes32"},{"name":"tL","type":"int24","indexed":false,"internalType":"int24"},{"name":"tU","type":"int24","indexed":false,"internalType":"int24"},{"name":"confidence","type":"uint256","indexed":false,"internalType":"uint256"}],"anonymous":false},{"type":"event","name":"FeesCollected","inputs":[{"name":"id","type":"bytes32","indexed":true,"internalType":"bytes32"},{"name":"f0","type":"uint256","indexed":false,"internalType":"uint256"},{"name":"f1","type":"uint256","indexed":false,"internalType":"uint256"}],"anonymous":false},{"type":"event","name":"Paused","inputs":[{"name":"account","type":"address","indexed":false,"internalType":"address"}],"anonymous":false},{"type":"event","name":"PositionClosed","inputs":[{"name":"id","type":"bytes32","indexed":true,"internalType":"bytes32"},{"name":"owner","type":"address","indexed":true,"internalType":"address"},{"name":"r0","type":"uint256","indexed":false,"internalType":"uint256"},{"name":"r1","type":"uint256","indexed":false,"internalType":"uint256"},{"name":"tf0","type":"uint256","indexed":false,"internalType":"uint256"},{"name":"tf1","type":"uint256","indexed":false,"internalType":"uint256"},{"name":"il","type":"uint256","indexed":false,"internalType":"uint256"},{"name":"cycles","type":"uint256","indexed":false,"internalType":"uint256"}],"anonymous":false},{"type":"event","name":"PositionCompounded","inputs":[{"name":"id","type":"bytes32","indexed":true,"internalType":"bytes32"},{"name":"cycle","type":"uint256","indexed":false,"internalType":"uint256"},{"name":"tL","type":"int24","indexed":false,"internalType":"int24"},{"name":"tU","type":"int24","indexed":false,"internalType":"int24"},{"name":"f0","type":"uint256","indexed":false,"internalType":"uint256"},{"name":"f1","type":"uint256","indexed":false,"internalType":"uint256"},{"name":"il","type":"uint256","indexed":false,"internalType":"uint256"},{"name":"net","type":"uint256","indexed":false,"internalType":"uint256"}],"anonymous":false},{"type":"event","name":"PositionOpened","inputs":[{"name":"id","type":"bytes32","indexed":true,"internalType":"bytes32"},{"name":"owner","type":"address","indexed":true,"internalType":"address"},{"name":"poolId","type":"bytes32","indexed":true,"internalType":"PoolId"},{"name":"tL","type":"int24","indexed":false,"internalType":"int24"},{"name":"tU","type":"int24","indexed":false,"internalType":"int24"},{"name":"a0","type":"uint256","indexed":false,"internalType":"uint256"},{"name":"a1","type":"uint256","indexed":false,"internalType":"uint256"}],"anonymous":false},{"type":"event","name":"RangeAdjusted","inputs":[{"name":"id","type":"bytes32","indexed":true,"internalType":"bytes32"},{"name":"oldTL","type":"int24","indexed":false,"internalType":"int24"},{"name":"oldTU","type":"int24","indexed":false,"internalType":"int24"},{"name":"newTL","type":"int24","indexed":false,"internalType":"int24"},{"name":"newTU","type":"int24","indexed":false,"internalType":"int24"}],"anonymous":false},{"type":"event","name":"Unpaused","inputs":[{"name":"account","type":"address","indexed":false,"internalType":"address"}],"anonymous":false},{"type":"error","name":"EnforcedPause","inputs":[]},{"type":"error","name":"ExpectedPause","inputs":[]},{"type":"error","name":"ReentrancyGuardReentrantCall","inputs":[]},{"type":"error","name":"SafeERC20FailedOperation","inputs":[{"name":"token","type":"address","internalType":"address"}]},{"type":"error","name":"Xenorize__CompoundRateLimited","inputs":[{"name":"nextAllowed","type":"uint256","internalType":"uint256"}]},{"type":"error","name":"Xenorize__InvalidFeeRate","inputs":[{"name":"rate","type":"uint256","internalType":"uint256"},{"name":"max","type":"uint256","internalType":"uint256"}]},{"type":"error","name":"Xenorize__InvalidRange","inputs":[{"name":"lower","type":"int24","internalType":"int24"},{"name":"upper","type":"int24","internalType":"int24"}]},{"type":"error","name":"Xenorize__PositionNotActive","inputs":[{"name":"positionId","type":"bytes32","internalType":"bytes32"}]},{"type":"error","name":"Xenorize__PositionNotOwned","inputs":[{"name":"positionId","type":"bytes32","internalType":"bytes32"},{"name":"caller","type":"address","internalType":"address"}]},{"type":"error","name":"Xenorize__TVLCapExceeded","inputs":[{"name":"current","type":"uint256","internalType":"uint256"},{"name":"cap","type":"uint256","internalType":"uint256"}]},{"type":"error","name":"Xenorize__ZeroAddress","inputs":[]},{"type":"error","name":"Xenorize__ZeroAmount","inputs":[]}],"bytecode":{"object":"0x6101203461033b57601f6140c138819003918201601f19168301916001600160401b0383118484101761033f5780849260c09460405283398101031261033b5761004881610353565b60208201516001600160a01b03811692919083810361033b5761006d60408401610353565b9061007a60608501610353565b9261009360a061008c60808801610353565b9601610353565b60017f9b779b17422d0df92223018b32b4d1fa46e071723d6817e2486d003becc55f0081905560c890556032600255690a968163f0a57b40000060035568056bc75e2d63100000600455956001600160a01b03821615908115610332575b508015610321575b8015610310575b80156102ff575b6102f05760a0526080526001600160a01b0390811660c05290811660e05216610100525f8054610100600160a81b03191660089290921b610100600160a81b0316919091178155600a6020527f13da86008ba1c6922daee3e07db95305ef49ebced9f5467a0b8613fcc6b343e3805462ffffff19908116611f40179091557fbbc70db1b6c7afd11e79c0fb0051300458f1a3acb8ee9789d9b6b26c61ad9bc780548216610bb817905560029091527fbff4442b8ed600beeb8e26b1279a0f0d14c6edfaec26d968ee13c86f7d4c2ba880549091166103e8179055604051613d599081610368823960805181818161031e0152818161056f01528181610ad301528181610e0501528181611e80015281816129370152818161353b015281816136c30152613778015260a0518181816104fb01528181611467015281816114a901528181611571015281816115db0152818161202b015281816120aa015281816139020152613953015260c05181611261015260e0518181816104820152818161070c01528181610c3f01528181611af001528181611fb10152818161244e01528181612c920152818161358f015281816139740152613a2801526101005181818161044601528181610c0e01528181610d0601528181611f8001528181612b8a01526139230152f35b630aaffdf760e31b5f5260045ffd5b506001600160a01b03851615610107565b506001600160a01b03841615610100565b506001600160a01b038316156100f9565b9050155f6100f1565b5f80fd5b634e487b7160e01b5f52604160045260245ffd5b51906001600160a01b038216820361033b5756fe6080806040526004361015610012575f80fd5b5f3560e01c9081630dfe16811461243c575080631928b3cb14612180578063226b1e5f1461214157806335659fb8146121245780634a4e3bd51461209857806351858e27146120195780635c975abb14611ff85780635cd51f16146119bd578063645006ca146119a05780636704256e146117cf5780636a5d8e8f1461171b5780636dd5b69d1461164c5780636fa193141461162f578063787dce3d146115c55780637adbf973146115565780637dc0d1d01461152b578063873b7797146114f65780638945ff66146114965780638da5cb5b1461145257806391dd7346146113e75780639b6d40c114611335578063a8bc6f7c14611318578063b3a2b300146112d3578063b5f188f814611290578063b79023031461124c578063ba898522146110a6578063c7224fff14611069578063ca80b34a14610d52578063cfd6d5e914610d35578063d21220a714610cf1578063dbb481041461059e578063dc4c90d31461055a578063e54a2ad5146101e8578063fd443aa5146101be5763fda1fa5f1461019d575f80fd5b346101ba575f3660031901126101ba576020600654604051908152f35b5f80fd5b346101ba5760203660031901126101ba576004355f52600b602052602060405f2054604051908152f35b346101ba5760203660031901126101ba5760043561020461331c565b805f526007602052600260ff600e60405f20015460081c16610225816124c0565b14801561053c575b61052a57805f52600760205260018060a01b0360405f205416331415806104f7575b6104e15780610319915f52600760205260405f20600e810161020061ff00198254161790555f6102f16102ff60058401546102956001600160801b038260301c166132f6565b604051916102a2836125a7565b600183528760208401526102b86002880161261e565b60408401528060020b606084015260181c60020b608083015260a08201528360c08201528360e08201526040519283916020830161279e565b03601f1981018352826125fc565b604051809581926348c8949160e01b835260048301612502565b0381837f00000000000000000000000000000000000000000000000000000000000000006001600160a01b03165af19283156104d65760409361036d915f916104b4575b5060208082518301019101613306565b919092600554600983015490600a840154906103898284612671565b8111156104ab576103a29261039d91613249565b613249565b6005558361046f575b82610433575b7f2d482a44386b3e3962eae57f97710f4c8095b7f26664357dc5e5c10b808a4bdf60c060018060a01b0384541693600b81015490600c810154906008600d820154910154918a51938a85528960208601528b8501526060840152608083015260a0820152a360015f80516020613ce48339815191525582519182526020820152f35b815461046a9084906001600160a01b03167f0000000000000000000000000000000000000000000000000000000000000000613ae8565b6103b1565b81546104a69085906001600160a01b03167f0000000000000000000000000000000000000000000000000000000000000000613ae8565b6103ab565b5050505f6103a2565b6104d091503d805f833e6104c881836125fc565b81019061280c565b8561035d565b6040513d5f823e3d90fd5b63e049870b60e01b5f526004523360245260445ffd5b50337f00000000000000000000000000000000000000000000000000000000000000006001600160a01b0316141561024f565b630931e2e960e01b5f5260045260245ffd5b505f818152600760205260409020546001600160a01b03161561022d565b346101ba575f3660031901126101ba576040517f00000000000000000000000000000000000000000000000000000000000000006001600160a01b03168152602090f35b346101ba5736600319016101c081126101ba5760a0136101ba5760c43560e43560a43560038210156101ba5760c0366101031901126101ba576105df61331c565b6105e7613354565b80158080610ce9575b610c685760a06105ff3661267e565b205f5460081c6001600160a01b03168015610cd95760606044916040519283809263042a2be760e01b82528660048301526106398a6124c0565b8960248301525afa9182156104d6575f80925f94610ca3575b509192935b8360020b8360020b9281841215610c8c576106728a89612671565b926005546106808582612671565b90600354809211610c775750506004548410610c685715610c37575b89610c06575b60a06106ad3661267e565b206006546040513360601b6bffffffffffffffffffffffff191660208201908152603482019390935260e888811b605483015289901b605782015242605a820152607a81019190915261070381609a81016102f1565b519020986107397f00000000000000000000000000000000000000000000000000000000000000006001600160a01b0316613400565b90604051926107478461255a565b33845260208401526107583661267e565b60408401528560608401528360808401525f60a08401524260c08401524260e08401525f610100840152896101208401528b6101408401525f6101608401525f6101808401525f6101a08401526107ae816124c0565b6101c08301525f6101e0830181905260016102008401819052610220808501939093528b825260076020908152604092839020855181546001600160a01b039182166001600160a01b03199182161783558388015194830194909455848701518051600284018054918416918716919091179055928301516003830180549685015160608087015160b81b62ffffff60b81b1662ffffff60a01b60a09390931b929092169385166001600160d01b0319909916989098179290921791909117905560809283015160048301805491909216941693909317909255918401516005820180549386015160181b65ffffff0000001662ffffff90921665ffffffffffff199094169390931717825592600f92916108d8905b6001600160801b0360a08401511690612705565b60c0810151600685015560e0810151600785015561010081015160088501556101208101516009850155610140810151600a850155610160810151600b850155610180810151600c8501556101a0810151600d850155600e84016101c0820151610941816124c0565b61094a816124c0565b60ff8019835416911617815561096e6101e0830151610968816124c0565b82612731565b610200820151815462ff0000191690151560101b62ff00001617905501519101555f888152600860205260409020610104358155610124356001820155610144356002820155610164356003820155600401906101843580151581036101ba57825490151560ff1660ff19919091161782556101a43593841515918286036101ba57610a405f956102f195610ab495610ace995061ff0082549160081b169061ff0019161790553387526009602052610a2a8d60408920612750565b8c8752600b602052436040882055600554612671565b600555610a4e600654612790565b600655610a5a3661267e565b50610a658c8b612671565b9060405192610a73846125a7565b8684528c6020850152610a853661267e565b60408501526060840152608083015260a08201528860c08201528a60e08201526040519283916020830161279e565b604051809381926348c8949160e01b835260048301612502565b0381837f00000000000000000000000000000000000000000000000000000000000000006001600160a01b03165af19384156104d6576020978796610b4b610b385f80516020613d0483398151915298610bd0965f91610bec575b508c808251830101910161287f565b895f5260078c52600560405f2001612705565b877fc37ba4d3406ee4ad8eacd274a0649799c4cca5f7c0f96860345e7510d6a26139610baa60a0610b7b3661267e565b209460405191829133968c8c8590949392606092608083019660020b835260020b602083015260408201520152565b0390a460405193849384604091949392606082019560020b825260020b60208201520152565b0390a260015f80516020613ce483398151915255604051908152f35b610c0091503d805f833e6104c881836125fc565b8d610b29565b610c328a30337f000000000000000000000000000000000000000000000000000000000000000061336e565b6106a2565b610c638830337f000000000000000000000000000000000000000000000000000000000000000061336e565b61069c565b63297279b760e01b5f5260045ffd5b630627db8360e11b5f5260045260245260445ffd5b50826399bd702f60e01b5f5260045260245260445ffd5b91935050610cc9915060603d606011610cd2575b610cc181836125fc565b810190612908565b92909188610652565b503d610cb7565b50603b19603c9161138893610657565b5083156105f0565b346101ba575f3660031901126101ba576040517f00000000000000000000000000000000000000000000000000000000000000006001600160a01b03168152602090f35b346101ba575f3660031901126101ba576020600254604051908152f35b346101ba57610d603661252c565b610d6861331c565b610d70613354565b825f526007602052600260ff600e60405f20015460081c16610d91816124c0565b14801561104b575b611038575f83815260076020526040902080549091906001600160a01b03163303611021578060020b8360020b8181121561100c57856005850193845494610e818660020b96885f6102f16102ff8460181c60020b98610e316001600160801b03600260018060a01b037f00000000000000000000000000000000000000000000000000000000000000001697019760301c166132f6565b60405191610e3e836125a7565b600183526020830152610e508761261e565b60408301528d60608301528a608083015260a08201528360c08201528360e08201526040519283916020830161279e565b038183855af1998a156104d657610f118d610f2d946102f1935f9e978f98610ff4575b50600a600982015491015491610eb98161261e565b50610ee2610ec78484612671565b9160405195610ed5876125a7565b8b8752602087015261261e565b60408501528c60608501528d608085015260a084015260c083015260e08201526040519283916020830161279e565b6040519a8b809481936348c8949160e01b835260048301612502565b03925af19687156104d6577f615ebe8f6e8c19a2dde83f53a6cdbaf9a712350449ee6ed7e329fe31f61bbc1298608098610fad94610fa7935f92610fd6575b50845460189190911b65ffffff0000001662ffffff9390931665ffffffffffff19909116179190911783555b6020808251830101910161287f565b90612705565b604051938452602084015260408301526060820152a260015f80516020613ce483398151915255005b610f989250610fee903d805f833e6104c881836125fc565b91610f6c565b611007903d808b833e6104c881836125fc565b610ea4565b6399bd702f60e01b5f5260045260245260445ffd5b8363e049870b60e01b5f526004523360245260445ffd5b82630931e2e960e01b5f5260045260245ffd5b505f838152600760205260409020546001600160a01b031615610d99565b346101ba5760203660031901126101ba576004355f526007602052602060ff600e60405f20015460081c1661109d816124c0565b60405190158152f35b346101ba5760203660031901126101ba576004356110c261289e565b506110cb61331c565b6110d3613354565b805f526007602052600260ff600e60405f20015460081c166110f4816124c0565b14801561122e575b61052a57805f52600760205260405f2060ff600e82015460101c1661121757815f52600b60205260405f205443146111e65781600561115a926111e2945f52600b6020524360405f20550154908160181c60020b9160020b906134b1565b60015f80516020613ce48339815191525560405191829182919091610120806101408301948051845260208101516020850152604081015160020b6040850152606081015160020b60608501526080810151608085015260a081015160a085015260c081015160c085015260e081015160e08501526101008101516101008501520151910152565b0390f35b6001430180431161120357636ba7cbdb60e11b5f5260045260245ffd5b634e487b7160e01b5f52601160045260245ffd5b5063e049870b60e01b5f526004523360245260445ffd5b505f818152600760205260409020546001600160a01b0316156110fc565b346101ba575f3660031901126101ba576040517f00000000000000000000000000000000000000000000000000000000000000006001600160a01b03168152602090f35b346101ba5760203660031901126101ba576112ac600435613274565b60405160058210156112bf576020918152f35b634e487b7160e01b5f52602160045260245ffd5b346101ba5760203660031901126101ba576111e26112f2600435613194565b60409391935193849384604091949392606082019560020b825260020b60208201520152565b346101ba575f3660031901126101ba576020600554604051908152f35b346101ba576113433661252c565b9161134c61289e565b5061135561331c565b61135d613354565b805f526007602052600260ff600e60405f20015460081c1661137e816124c0565b1480156113c9575b61052a57805f52600b60205260405f205443146111e6578260020b8260020b8181121561100c576111e261115a868686805f52600b6020524360405f20556134b1565b505f818152600760205260409020546001600160a01b031615611386565b346101ba5760203660031901126101ba5760043567ffffffffffffffff81116101ba57366023820112156101ba5780600401359067ffffffffffffffff82116101ba5736602483830101116101ba576111e29160246114469201612931565b60405191829182612502565b346101ba575f3660031901126101ba576040517f00000000000000000000000000000000000000000000000000000000000000006001600160a01b03168152602090f35b346101ba5760203660031901126101ba577f00000000000000000000000000000000000000000000000000000000000000006001600160a01b031633036114df57600435600355005b63e049870b60e01b5f525f6004523360245260445ffd5b346101ba5760203660031901126101ba576004355f526007602052602060ff600e60405f20015460101c166040519015158152f35b346101ba575f3660031901126101ba575f5460405160089190911c6001600160a01b03168152602090f35b346101ba5760203660031901126101ba5761156f6124d8565b7f00000000000000000000000000000000000000000000000000000000000000006001600160a01b031633036114df575f8054610100600160a81b03191660089290921b610100600160a81b0316919091179055005b346101ba5760203660031901126101ba576004357f00000000000000000000000000000000000000000000000000000000000000006001600160a01b031633036114df576103e8811161161757600155005b63110f339560e21b5f526004526103e860245260445ffd5b346101ba575f3660031901126101ba576020600354604051908152f35b346101ba5760203660031901126101ba575f60a060405161166c816125c4565b82815282602082015282604082015282606082015282608082015201526004355f52600860205260c060405f20604051906116a6826125c4565b8054918281526001820154916020820192835260028101546040830190815260046003830154926060850193845201549360ff60a0608086019582881615158752019560081c1615158552604051958652516020860152516040850152516060840152511515608083015251151560a0820152f35b346101ba5760203660031901126101ba576001600160a01b0361173c6124d8565b165f52600960205260405f20604051806020835491828152019081935f5260205f20905f5b8181106117b957505050816117779103826125fc565b604051918291602083019060208452518091526040830191905f5b8181106117a0575050500390f35b8251845285945060209384019390920191600101611792565b8254845260209093019260019283019201611761565b346101ba5760203660031901126101ba576004356117eb61289e565b506117f461331c565b6117fc613354565b805f526007602052600260ff600e60405f20015460081c1661181d816124c0565b148015611982575b61052a57805f52600760205260405f2090600e82019060ff825460101c16156104e157805f52600b60205260405f205443146111e6575f818152600b602052604081204390555460081c6001600160a01b031691821561194e57604460ff60016060949596015492541691604051958693849263042a2be760e01b845260048401526118b0816124c0565b60248301525afa80156104d6576111e29261115a925f80925f94611913575b505f80516020613d0483398151915261190b839294955b604051918291888884604091949392606082019560020b825260020b60208201520152565b0390a26134b1565b61190b94505f80516020613d0483398151915293508291506119439060603d606011610cd257610cc181836125fc565b9550939091506118cf565b5061115a915060056111e29301548060020b9060181c60020b91805f80516020613d0483398151915261190b6113886118e6565b505f818152600760205260409020546001600160a01b031615611825565b346101ba575f3660031901126101ba576020600454604051908152f35b346101ba57366003190161020081126101ba5760a0136101ba5760a4358060020b908181036101ba5760c435918260020b918284036101ba5760e4356101043592610124359460038610156101ba5760c0366101431901126101ba57611a2161331c565b611a29613354565b8215908180611ff0575b610c685780831215611fda57611a498685612671565b91600554611a578482612671565b90600354809211610c775750506004548310610c685715611fa9575b85611f78575b8760a0611a853661267e565b206006546040513360601b6bffffffffffffffffffffffff191660208201908152603482019390935260e889811b60548301529390931b605784015242605a840152607a83015290611ada81609a81016102f1565b5190209660a0611ae93661267e565b2090611b1d7f00000000000000000000000000000000000000000000000000000000000000006001600160a01b0316613400565b9060405192611b2b8461255a565b3384526020840152611b3c3661267e565b60408401528560608401528360808401525f60a08401524260c08401524260e08401525f61010084015286610120840152886101408401525f6101608401525f6101808401525f6101a0840152611b92816124c0565b6101c08301525f6101e0830181905261020083018190526102208084019290925289815260076020908152604091829020845181546001600160a01b039182166001600160a01b0319918216178355838701516001840155848701518051600285018054918516918416919091179055938401516003840180549686015160608088015160b81b62ffffff60b81b1662ffffff60a01b60a09390931b929092169386166001600160d01b03199099169890981792909217919091179055608093840151600484018054919093169116179055918401516005830180549286015160181b65ffffff0000001662ffffff90921665ffffffffffff19909316929092171781559092600f9291611ca5906108c4565b60c0810151600685015560e0810151600785015561010081015160088501556101208101516009850155610140810151600a850155610160810151600b850155610180810151600c8501556101a0810151600d850155600e84016101c0820151611d0e816124c0565b611d17816124c0565b60ff80198354169116178155611d356101e0830151610968816124c0565b610200820151815462ff0000191690151560101b62ff00001617905501519101555f8781526008602052604090206101443581556101643560018201556101843560028201556101a4356003820155600401906101c43580151581036101ba57825490151560ff1660ff19919091161782556101e43593841515918286036101ba57611e075f956102f195610ab495611e7b995061ff0082549160081b169061ff0019161790553387526009602052611df18c60408920612750565b8b8752600b602052436040882055600554612671565b600555611e15600654612790565b600655611e213661267e565b50611e2c8988612671565b9060405192611e3a846125a7565b8684528b6020850152611e4c3661267e565b60408501526060840152608083015260a08201528560c08201528760e08201526040519283916020830161279e565b0381837f00000000000000000000000000000000000000000000000000000000000000006001600160a01b03165af19182156104d657602096611f07611ef488957fc37ba4d3406ee4ad8eacd274a0649799c4cca5f7c0f96860345e7510d6a26139955f91611f5e575b508a808251830101910161287f565b855f5260078a52600560405f2001612705565b611f4260a0611f153661267e565b209660405193849333988590949392606092608083019660020b835260020b602083015260408201520152565b0390a460015f80516020613ce483398151915255604051908152f35b611f7291503d805f833e6104c881836125fc565b8b611ee5565b611fa48630337f000000000000000000000000000000000000000000000000000000000000000061336e565b611a79565b611fd58430337f000000000000000000000000000000000000000000000000000000000000000061336e565b611a73565b826399bd702f60e01b5f5260045260245260445ffd5b508515611a33565b346101ba575f3660031901126101ba57602060ff5f54166040519015158152f35b346101ba575f3660031901126101ba577f00000000000000000000000000000000000000000000000000000000000000006001600160a01b031633036114df57612061613354565b600160ff195f5416175f557f62e78cea01bee320cd4e420270b5ea74000d11b0c9f74754ebdbfc544b05a2586020604051338152a1005b346101ba575f3660031901126101ba577f00000000000000000000000000000000000000000000000000000000000000006001600160a01b031633036114df575f5460ff8116156121155760ff19165f557f5db9ee0a495bf2e6ff9c91a7834c1ba4fdd244a5e8aa4e537bd38aeae4b073aa6020604051338152a1005b638dfc202b60e01b5f5260045ffd5b346101ba575f3660031901126101ba576020600154604051908152f35b346101ba5760203660031901126101ba5760043560038110156101ba57612167816124c0565b5f52600a602052602060405f205460020b604051908152f35b346101ba5760203660031901126101ba575f6102206040516121a18161255a565b8281528260208201526040516121b68161258b565b83815283602082015283604082015283606082015283608082015260408201528260608201528260808201528260a08201528260c08201528260e08201528261010082015282610120820152826101408201528261016082015282610180820152826101a0820152826101c0820152826101e08201528261020082015201526004355f5260076020526102c060405f20600f604051916122558361255a565b80546001600160a01b03168352600181015460208401526122786002820161261e565b60408401526001600160801b0360058201548060020b60608601528060181c60020b608086015260301c1660a0840152600681015460c0840152600781015460e084015260088101546101008401526009810154610120840152600a810154610140840152600b810154610160840152600c810154610180840152600d8101546101a084015260ff600e820154818116612311816124c0565b6101c0860152818160081c16612326816124c0565b6101e086015260101c16151561020084015201546102208201526102206040519160018060a01b0381511683526020810151602084015261236f6040820151604085019061247d565b606081015160020b60e0840152608081015160020b6101008401526001600160801b0360a08201511661012084015260c081015161014084015260e08101516101608401526101008101516101808401526101208101516101a08401526101408101516101c08401526101608101516101e08401526101808101516102008401526101a0810151828401526101c0810151612409816124c0565b6102408401526101e081015161241e816124c0565b610260840152610200810151151561028084015201516102a0820152f35b346101ba575f3660031901126101ba577f00000000000000000000000000000000000000000000000000000000000000006001600160a01b03168152602090f35b80516001600160a01b03908116835260208083015182169084015260408083015162ffffff169084015260608083015160020b9084015260809182015116910152565b600311156112bf57565b35908160020b82036101ba57565b600435906001600160a01b03821682036101ba57565b35906001600160a01b03821682036101ba57565b602060409281835280519182918282860152018484015e5f828201840152601f01601f1916010190565b60609060031901126101ba57600435906024358060020b81036101ba57906044358060020b81036101ba5790565b610240810190811067ffffffffffffffff82111761257757604052565b634e487b7160e01b5f52604160045260245ffd5b60a0810190811067ffffffffffffffff82111761257757604052565b610100810190811067ffffffffffffffff82111761257757604052565b60c0810190811067ffffffffffffffff82111761257757604052565b6080810190811067ffffffffffffffff82111761257757604052565b90601f8019910116810190811067ffffffffffffffff82111761257757604052565b9060405161262b8161258b565b82546001600160a01b0390811682526001840154808216602084015260a081901c62ffffff16604084015260b81c600290810b6060840152909301549092166080830152565b9190820180921161120357565b60a09060031901126101ba57604051906126978261258b565b816004356001600160a01b03811681036101ba5781526024356001600160a01b03811681036101ba57602082015260443562ffffff811681036101ba5760408201526064358060020b81036101ba576060820152608435906001600160a01b03821682036101ba5760800152565b906601000000000000600160b01b0382549160301b16906601000000000000600160b01b031916179055565b9061273b816124c0565b61ff0082549160081b169061ff001916179055565b80549068010000000000000000821015612577576001820180825582101561277c575f5260205f200155565b634e487b7160e01b5f52603260045260245ffd5b5f1981146112035760010190565b91909161016060e061018083019480516127b7816124c0565b8452602081015160208501526127d56040820151604086019061247d565b606081015160020b82850152608081015160020b61010085015260a081015161012085015260c08101516101408501520151910152565b6020818303126101ba5780519067ffffffffffffffff82116101ba570181601f820112156101ba5780519067ffffffffffffffff8211612577576040519261285e601f8401601f1916602001856125fc565b828452602083830101116101ba57815f9260208093018386015e8301015290565b908160209103126101ba57516001600160801b03811681036101ba5790565b60405190610140820182811067ffffffffffffffff821117612577576040525f610120838281528260208201528260408201528260608201528260808201528260a08201528260c08201528260e0820152826101008201520152565b51908160020b82036101ba57565b908160609103126101ba5761291c816128fa565b91604061292b602084016128fa565b92015190565b606092917f00000000000000000000000000000000000000000000000000000000000000006001600160a01b0316338190036114df57825f928101039061018082126101ba57604051612983816125a7565b843560038110156101ba57815260a0602082019360208701358552603f1901126101ba57604051926129b48461258b565b6129c0604087016124ee565b84526129cd8887016124ee565b6020850152608086013562ffffff811681036101ba5760408501526129f460a087016124ca565b8489015260c08601356001600160a01b03811681036101ba57608085015260408201938452612a2560e087016124ca565b97808301988952612a3961010088016124ca565b926080810193845261016060a08201986101208101358a5261014081013560c0840152013560e08201528051612a6e816124c0565b612a77816124c0565b612d5857505090612acd976040928551915160020b925160020b908851905191855194612aa3866125e0565b855260208501528484015260608301528251632d35e7ed60e11b8152988992839260048401613a6b565b038186855af1958615612d4d578396612d1b575b508560801d95600f0b958381600f0b12612c38575b50828612612b2a575b5050506001600160801b03919250511660405190602082015260208152612b276040826125fc565b90565b6001600160801b03612b3c8497613ab9565b9251602001519216916001600160a01b0316813b15612c345760405190632961046560e21b82526004820152838160248183865af1908115612c10578491612c1b575b5050612bae602092827f0000000000000000000000000000000000000000000000000000000000000000613ae8565b600460405180948193630476982d60e21b83525af18015612c10576001600160801b03939450612be1575b839281612aff565b612c029060203d602011612c09575b612bfa81836125fc565b810190613ad9565b505f612bd9565b503d612bf0565b6040513d86823e3d90fd5b81612c25916125fc565b612c3057825f612b7f565b8280fd5b8380fd5b612c496001600160801b0391613ab9565b8351519116906001600160a01b0316823b15612d175760405190632961046560e21b82526004820152848160248183875af18015612d0c57908591612cf7575b5050612cb690827f0000000000000000000000000000000000000000000000000000000000000000613ae8565b604051630476982d60e21b815260208160048187865af18015612c105715612af657612cf09060203d602011612c0957612bfa81836125fc565b505f612af6565b81612d01916125fc565b612c3457835f612c89565b6040513d87823e3d90fd5b8480fd5b612d3e91965060403d604011612d46575b612d3681836125fc565b810190613306565b50945f612ae1565b503d612d2c565b6040513d85823e3d90fd5b6001909994979395969951612d6c816124c0565b612d75816124c0565b03612f63575091612dce95969793916040938651925160020b935160020b9151905191855194612da4866125e0565b855260208501528484015260608301528251632d35e7ed60e11b8152958692839260048401613a6b565b038184885af1928315612f56578193612f34575b50809381938060801d8381600f0b13612eb6575b508281600f0b13612e23575b50505050604051916020830152604082015260408152612b276060826125fc565b9251602001516001600160801b03909316935090916001600160a01b0316813b15612c3057604051630b0d9c0960e01b81526001600160a01b03919091166004820152306024820152604481018490529082908290606490829084905af18015612eab57612e93575b8080612e02565b612e9e8280926125fc565b612ea85780612e8c565b80fd5b6040513d84823e3d90fd5b8451516001600160801b039190911696506001600160a01b0316823b15612c3457604051630b0d9c0960e01b81526001600160a01b0391909116600482015230602482015260448101879052838160648183875af18015612c1057908491612f1f575b50612df6565b81612f29916125fc565b612c3057825f612f19565b612f4e91935060403d604011612d4657612d3681836125fc565b50915f612de2565b50604051903d90823e3d90fd5b94915091612fb3936040918351905160020b915160020b855190845193612f89856125e0565b845260208401525f84840152878301528251632d35e7ed60e11b8152958692839260048401613a6b565b03815f895af19283156104d6575f93613171575b505f945f938060801d5f81600f0b136130fc575b508881600f0b13613065575b505050600c6040612b2795969783518152600760205220600b810161300d888254612671565b90550161301b838254612671565b9055517f4257047a82edf43bf1bef92176ac66a3c63ee849651929eabf6dbd8492817ac560408051878152846020820152a2604051936020850152604084015260408352826125fc565b9151602001516001600160801b0390921693509087906001600160a01b0316823b156130f857604051630b0d9c0960e01b81526001600160a01b0391909116600482015230602482015260448101859052918290606490829084905af180156130ed576130d4575b8080612fe7565b6130df8780926125fc565b6130e9575f6130cd565b8580fd5b6040513d89823e3d90fd5b5080fd5b8351516001600160801b039190911697506001600160a01b0316823b156101ba57604051630b0d9c0960e01b81526001600160a01b03919091166004820152306024820152604481018890525f8160648183875af180156104d65715612fdb576131699199505f906125fc565b5f975f612fdb565b61318b91935060403d604011612d4657612d3681836125fc565b9050915f612fc7565b5f908152600760205260408120905460081c6001600160a01b03169190821561322f5780604460ff600e600160609501549301541691604051958693849263042a2be760e01b845260048401526131ea816124c0565b60248301525afa9081156104d6575f80935f93613208575b50929190565b91935050613225915060603d606011610cd257610cc181836125fc565b929092915f613202565b60059192500154908160020b9160181c60020b9061138890565b9190820391821161120357565b8115613260570490565b634e487b7160e01b5f52601260045260245ffd5b5f52600760205260405f2060ff600e82015460081c16613293816124c0565b600281146132f0576001906132a7816124c0565b146132ea576132bd6007610e1092015442613249565b04603081116132e457601881116132de576006106132d9575f90565b600190565b50600290565b50600390565b50600490565b50505f90565b600160ff1b8114611203575f0390565b91908260409103126101ba576020825192015190565b60025f80516020613ce483398151915254146133455760025f80516020613ce483398151915255565b633ee5aeb560e01b5f5260045ffd5b60ff5f541661335f57565b63d93c066560e01b5f5260045ffd5b6040516323b872dd60e01b5f9081526001600160a01b039384166004529290931660245260449390935260209060648180865af19060015f51148216156133df575b6040525f606052156133bf5750565b635274afe760e01b5f9081526001600160a01b0391909116600452602490fd5b9060018115166133f757823b15153d151616906133b0565b503d5f823e3d90fd5b5f5460081c6001600160a01b03169081156134905760408051631516778560e11b81526001600160a01b0390921660048301529091829060249082905afa5f918161346e575b506134585750670de0b6b3a764000090565b80156134615790565b50670de0b6b3a764000090565b61348891925060403d604011612d4657612d3681836125fc565b50905f613446565b5050670de0b6b3a764000090565b8181029291811591840414171561120357565b909291926134bd61289e565b93825f52600760205260405f206135365f6102f1610ab46005850154604051906134e6826125a7565b600282528960208301526134fc6002880161261e565b60408301528060020b606083015260181c60020b60808201528360a08201528360c08201528360e08201526040519283916020830161279e565b0381837f00000000000000000000000000000000000000000000000000000000000000006001600160a01b03165af180156104d657613585915f91613a51575060208082518301019101613306565b90936135d26135bc7f00000000000000000000000000000000000000000000000000000000000000006001600160a01b0316613400565b600985015490600a860154600f87015492613b40565b8060c08a01526135e7600d8501918254612671565b905561271061360a600154826135fd828a61349e565b046101008c01528461349e565b0461012089015282545f9081906001600160a01b031633036139d0575b613658613676918860808d01528560a08d015261039d8c61010061364f8c60098c0154612671565b91015190613249565b9161039d61366a86600a890154612671565b6101208d015190613249565b6136be5f6102f1610ab48b60058a015461369b6001600160801b038260301c166132f6565b90604051926136a9846125a7565b6001845260208401526102b860028d0161261e565b0381837f00000000000000000000000000000000000000000000000000000000000000006001600160a01b03165af180156104d6576139b8575b506137056002860161261e565b506137735f6102f1610ab461371a8587612671565b60405190613727826125a7565b8482528d602083015261373c60028c0161261e565b60408301528860020b60608301528b60020b608083015260a08201528660c08201528560e08201526040519283916020830161279e565b0381837f00000000000000000000000000000000000000000000000000000000000000006001600160a01b03165af180156104d6576137c3915f9161399e575b506020808251830101910161287f565b906101008b01518061394d575b506101208b0151806138fc575b50600886018054600988015460058901805465ffffffffffff191662ffffff89161765ffffff00000060188d901b16179055909790938392600a92916138269060058401612705565b4260078301556138368154612790565b9055600b81016138478c8254612671565b9055600c8101613858898254612671565b90558560098201550155828b5260208b01528260020b60408b01528560020b60608b01528082115f146138f35761388e91613249565b915b60018401809411611203577ffa3851a924c72b43de4876c68a3990ccd9ae6a2a8c38a9a4bb7fc5aec00133a39560e09560c08b01519360405196875260020b602087015260020b60408601526060850152608084015260a083015260c0820152a2565b50505f91613890565b613947907f00000000000000000000000000000000000000000000000000000000000000007f0000000000000000000000000000000000000000000000000000000000000000613ae8565b5f6137dd565b613998907f00000000000000000000000000000000000000000000000000000000000000007f0000000000000000000000000000000000000000000000000000000000000000613ae8565b5f6137d0565b6139b291503d805f833e6104c881836125fc565b5f6137b3565b6139cb903d805f833e6104c881836125fc565b6136f8565b505087613676613658612710613a116139ee6101008601518b613249565b613a0c61012084613a02600254809561349e565b0497015189613249565b61349e565b049280613a21575b915050613627565b613a4c81337f0000000000000000000000000000000000000000000000000000000000000000613ae8565b613a19565b613a6591503d805f833e6104c881836125fc565b5f61035d565b9061016092613a7c8360609361247d565b805160020b60a0840152602081015160020b60c0840152604081015160e084015201516101008201526101406101208201525f6101408201520190565b600f0b6f7fffffffffffffffffffffffffffffff198114611203575f0390565b908160209103126101ba575190565b916040519163a9059cbb60e01b5f5260018060a01b031660045260245260205f60448180865af19060015f5114821615613b28575b604052156133bf5750565b9060018115166133f757823b15153d15161690613b1d565b918315613c2057670de0b6b3a7640000810290808204670de0b6b3a764000014901517156112035783613b7291613256565b613b7b81613c58565b600181901b91906001600160ff1b0381160361120357670de0b6b3a76400000180670de0b6b3a7640000116112035780613c285750505f905b670de0b6b3a763ffff198201918213600116611203575f821215613c2057670de0b6b3a7640000810290808204670de0b6b3a7640000149015171561120357613c16613c1c93613c10670de0b6b3a764000096613a0c94613256565b90612671565b916132f6565b0490565b505050505f90565b670de0b6b3a7640000820291808304670de0b6b3a7640000149015171561120357613c5291613256565b90613bb4565b908115613cde57670de0b6b3a7640000821015613cd857670de0b6b3a7640000915b670de0b6b3a7640000818102918204141583816112035780613c10613ca192859495613256565b60011c5b848110613cb157505050565b93509083816112035780613cc8613ccd9285613256565b612671565b60011c909190613ca5565b81613c7a565b5f915056fe9b779b17422d0df92223018b32b4d1fa46e071723d6817e2486d003becc55f00326266e0ed0197f9920f5118b0456a39d4b2ee01a56a4d600ff644c86fc92658a264697066735822122024bf7ce40942d0796ecad612567580658c058f1f5c54885d8cf85b1be7e7983a64736f6c634300081a0033","linkReferences":{}},"methodIdentifiers":{"adjustRange(bytes32,int24,int24)":"ca80b34a","autoCompound(bytes32)":"6704256e","closePosition(bytes32)":"e54a2ad5","compoundManual(bytes32)":"ba898522","compoundPosition(bytes32,int24,int24)":"9b6d40c1","emergencyPause()":"51858e27","emergencyUnpause()":"4a4e3bd5","getAIRecommendation(bytes32)":"b3a2b300","getCompoundUrgency(bytes32)":"b5f188f8","getConfig(bytes32)":"6dd5b69d","getPosition(bytes32)":"1928b3cb","getPositionsByOwner(address)":"6a5d8e8f","insuranceFund()":"b7902303","isAIManaged(bytes32)":"873b7797","isInRange(bytes32)":"c7224fff","keeperRewardBps()":"cfd6d5e9","lastCompoundBlock(bytes32)":"fd443aa5","maxTVLCap()":"6fa19314","minDepositAmount()":"645006ca","openPosition((address,address,uint24,int24,address),int24,int24,uint256,uint256,uint8,(uint256,uint256,uint256,uint256,bool,bool))":"5cd51f16","openPositionAI((address,address,uint24,int24,address),uint256,uint256,uint8,(uint256,uint256,uint256,uint256,bool,bool))":"dbb48104","oracle()":"7dc0d1d0","owner()":"8da5cb5b","paused()":"5c975abb","poolManager()":"dc4c90d3","protocolFeeBps()":"35659fb8","rangeWidthTicks(uint8)":"226b1e5f","setMaxTVLCap(uint256)":"8945ff66","setOracle(address)":"7adbf973","setProtocolFee(uint256)":"787dce3d","token0()":"0dfe1681","token1()":"d21220a7","totalPositions()":"fda1fa5f","totalTVL()":"a8bc6f7c","unlockCallback(bytes)":"91dd7346"},"id":59}