{"abi":[{"type":"constructor","inputs":[{"name":"_owner","type":"address","internalType":"address"},{"name":"_poolManager","type":"address","internalType":"address"},{"name":"_insuranceFund","type":"address","internalType":"address"},{"name":"_token0","type":"address","internalType":"address"},{"name":"_token1","type":"address","internalType":"address"},{"name":"_oracle","type":"address","internalType":"address"}],"stateMutability":"nonpayable"},{"type":"function","name":"closePosition","inputs":[{"name":"id","type":"bytes32","internalType":"bytes32"}],"outputs":[{"name":"returned0","type":"uint256","internalType":"uint256"},{"name":"returned1","type":"uint256","internalType":"uint256"}],"stateMutability":"nonpayable"},{"type":"function","name":"collectFees","inputs":[{"name":"id","type":"bytes32","internalType":"bytes32"}],"outputs":[{"name":"fees0","type":"uint256","internalType":"uint256"},{"name":"fees1","type":"uint256","internalType":"uint256"}],"stateMutability":"nonpayable"},{"type":"function","name":"compoundPosition","inputs":[{"name":"id","type":"bytes32","internalType":"bytes32"},{"name":"newTickLower","type":"int24","internalType":"int24"},{"name":"newTickUpper","type":"int24","internalType":"int24"}],"outputs":[{"name":"result","type":"tuple","internalType":"struct CompoundResult","components":[{"name":"newCapital0","type":"uint256","internalType":"uint256"},{"name":"newCapital1","type":"uint256","internalType":"uint256"},{"name":"newTickLower","type":"int24","internalType":"int24"},{"name":"newTickUpper","type":"int24","internalType":"int24"},{"name":"feesCollected0","type":"uint256","internalType":"uint256"},{"name":"feesCollected1","type":"uint256","internalType":"uint256"},{"name":"ilRealized0","type":"uint256","internalType":"uint256"},{"name":"gasCostWei","type":"uint256","internalType":"uint256"},{"name":"protocolFee0","type":"uint256","internalType":"uint256"},{"name":"protocolFee1","type":"uint256","internalType":"uint256"}]}],"stateMutability":"nonpayable"},{"type":"function","name":"emergencyPause","inputs":[],"outputs":[],"stateMutability":"nonpayable"},{"type":"function","name":"emergencyUnpause","inputs":[],"outputs":[],"stateMutability":"nonpayable"},{"type":"function","name":"getCompoundUrgency","inputs":[{"name":"id","type":"bytes32","internalType":"bytes32"}],"outputs":[{"name":"","type":"uint8","internalType":"enum CompoundUrgency"}],"stateMutability":"view"},{"type":"function","name":"getConfig","inputs":[{"name":"id","type":"bytes32","internalType":"bytes32"}],"outputs":[{"name":"","type":"tuple","internalType":"struct CompoundConfig","components":[{"name":"minProfitUSD","type":"uint256","internalType":"uint256"},{"name":"gasCushionBps","type":"uint256","internalType":"uint256"},{"name":"slippageBps","type":"uint256","internalType":"uint256"},{"name":"maxCompoundsPerDay","type":"uint256","internalType":"uint256"},{"name":"aiRangeEnabled","type":"bool","internalType":"bool"},{"name":"autoRebalance","type":"bool","internalType":"bool"}]}],"stateMutability":"view"},{"type":"function","name":"getPosition","inputs":[{"name":"id","type":"bytes32","internalType":"bytes32"}],"outputs":[{"name":"","type":"tuple","internalType":"struct Position","components":[{"name":"owner","type":"address","internalType":"address"},{"name":"poolId","type":"bytes32","internalType":"bytes32"},{"name":"tickLower","type":"int24","internalType":"int24"},{"name":"tickUpper","type":"int24","internalType":"int24"},{"name":"liquidity","type":"uint128","internalType":"uint128"},{"name":"depositTime","type":"uint256","internalType":"uint256"},{"name":"lastCompound","type":"uint256","internalType":"uint256"},{"name":"compoundCount","type":"uint256","internalType":"uint256"},{"name":"initialCapital0","type":"uint256","internalType":"uint256"},{"name":"initialCapital1","type":"uint256","internalType":"uint256"},{"name":"totalFees0","type":"uint256","internalType":"uint256"},{"name":"totalFees1","type":"uint256","internalType":"uint256"},{"name":"totalIL0","type":"uint256","internalType":"uint256"},{"name":"riskProfile","type":"uint8","internalType":"enum RiskProfile"},{"name":"status","type":"uint8","internalType":"enum PositionStatus"}]}],"stateMutability":"view"},{"type":"function","name":"getPositionsByOwner","inputs":[{"name":"a","type":"address","internalType":"address"}],"outputs":[{"name":"","type":"bytes32[]","internalType":"bytes32[]"}],"stateMutability":"view"},{"type":"function","name":"insuranceFund","inputs":[],"outputs":[{"name":"","type":"address","internalType":"contract IInsuranceFund"}],"stateMutability":"view"},{"type":"function","name":"keeperRewardBps","inputs":[],"outputs":[{"name":"","type":"uint256","internalType":"uint256"}],"stateMutability":"view"},{"type":"function","name":"lastCompoundBlock","inputs":[{"name":"","type":"bytes32","internalType":"bytes32"}],"outputs":[{"name":"","type":"uint256","internalType":"uint256"}],"stateMutability":"view"},{"type":"function","name":"maxTVLCap","inputs":[],"outputs":[{"name":"","type":"uint256","internalType":"uint256"}],"stateMutability":"view"},{"type":"function","name":"minDepositAmount","inputs":[],"outputs":[{"name":"","type":"uint256","internalType":"uint256"}],"stateMutability":"view"},{"type":"function","name":"openPosition","inputs":[{"name":"poolId","type":"bytes32","internalType":"bytes32"},{"name":"tickLower","type":"int24","internalType":"int24"},{"name":"tickUpper","type":"int24","internalType":"int24"},{"name":"amount0","type":"uint256","internalType":"uint256"},{"name":"amount1","type":"uint256","internalType":"uint256"},{"name":"riskProfile","type":"uint8","internalType":"enum RiskProfile"},{"name":"config","type":"tuple","internalType":"struct CompoundConfig","components":[{"name":"minProfitUSD","type":"uint256","internalType":"uint256"},{"name":"gasCushionBps","type":"uint256","internalType":"uint256"},{"name":"slippageBps","type":"uint256","internalType":"uint256"},{"name":"maxCompoundsPerDay","type":"uint256","internalType":"uint256"},{"name":"aiRangeEnabled","type":"bool","internalType":"bool"},{"name":"autoRebalance","type":"bool","internalType":"bool"}]}],"outputs":[{"name":"positionId","type":"bytes32","internalType":"bytes32"}],"stateMutability":"nonpayable"},{"type":"function","name":"oracle","inputs":[],"outputs":[{"name":"","type":"address","internalType":"contract IXenorizeOracle"}],"stateMutability":"view"},{"type":"function","name":"owner","inputs":[],"outputs":[{"name":"","type":"address","internalType":"address"}],"stateMutability":"view"},{"type":"function","name":"paused","inputs":[],"outputs":[{"name":"","type":"bool","internalType":"bool"}],"stateMutability":"view"},{"type":"function","name":"poolManager","inputs":[],"outputs":[{"name":"","type":"address","internalType":"address"}],"stateMutability":"view"},{"type":"function","name":"protocolFeeBps","inputs":[],"outputs":[{"name":"","type":"uint256","internalType":"uint256"}],"stateMutability":"view"},{"type":"function","name":"rangeWidthTicks","inputs":[{"name":"","type":"uint8","internalType":"enum RiskProfile"}],"outputs":[{"name":"","type":"int24","internalType":"int24"}],"stateMutability":"view"},{"type":"function","name":"setMaxTVLCap","inputs":[{"name":"cap","type":"uint256","internalType":"uint256"}],"outputs":[],"stateMutability":"nonpayable"},{"type":"function","name":"setOracle","inputs":[{"name":"a","type":"address","internalType":"address"}],"outputs":[],"stateMutability":"nonpayable"},{"type":"function","name":"setProtocolFee","inputs":[{"name":"bps","type":"uint256","internalType":"uint256"}],"outputs":[],"stateMutability":"nonpayable"},{"type":"function","name":"token0","inputs":[],"outputs":[{"name":"","type":"address","internalType":"contract IERC20"}],"stateMutability":"view"},{"type":"function","name":"token1","inputs":[],"outputs":[{"name":"","type":"address","internalType":"contract IERC20"}],"stateMutability":"view"},{"type":"function","name":"totalPositions","inputs":[],"outputs":[{"name":"","type":"uint256","internalType":"uint256"}],"stateMutability":"view"},{"type":"function","name":"totalTVL","inputs":[],"outputs":[{"name":"","type":"uint256","internalType":"uint256"}],"stateMutability":"view"},{"type":"event","name":"FeesCollected","inputs":[{"name":"id","type":"bytes32","indexed":true,"internalType":"bytes32"},{"name":"f0","type":"uint256","indexed":false,"internalType":"uint256"},{"name":"f1","type":"uint256","indexed":false,"internalType":"uint256"}],"anonymous":false},{"type":"event","name":"Paused","inputs":[{"name":"account","type":"address","indexed":false,"internalType":"address"}],"anonymous":false},{"type":"event","name":"PositionClosed","inputs":[{"name":"id","type":"bytes32","indexed":true,"internalType":"bytes32"},{"name":"owner","type":"address","indexed":true,"internalType":"address"},{"name":"r0","type":"uint256","indexed":false,"internalType":"uint256"},{"name":"r1","type":"uint256","indexed":false,"internalType":"uint256"},{"name":"tf0","type":"uint256","indexed":false,"internalType":"uint256"},{"name":"tf1","type":"uint256","indexed":false,"internalType":"uint256"},{"name":"il","type":"uint256","indexed":false,"internalType":"uint256"},{"name":"cycles","type":"uint256","indexed":false,"internalType":"uint256"}],"anonymous":false},{"type":"event","name":"PositionCompounded","inputs":[{"name":"id","type":"bytes32","indexed":true,"internalType":"bytes32"},{"name":"cycle","type":"uint256","indexed":false,"internalType":"uint256"},{"name":"tL","type":"int24","indexed":false,"internalType":"int24"},{"name":"tU","type":"int24","indexed":false,"internalType":"int24"},{"name":"f0","type":"uint256","indexed":false,"internalType":"uint256"},{"name":"f1","type":"uint256","indexed":false,"internalType":"uint256"},{"name":"il","type":"uint256","indexed":false,"internalType":"uint256"},{"name":"net","type":"uint256","indexed":false,"internalType":"uint256"}],"anonymous":false},{"type":"event","name":"PositionOpened","inputs":[{"name":"id","type":"bytes32","indexed":true,"internalType":"bytes32"},{"name":"owner","type":"address","indexed":true,"internalType":"address"},{"name":"poolId","type":"bytes32","indexed":true,"internalType":"bytes32"},{"name":"tL","type":"int24","indexed":false,"internalType":"int24"},{"name":"tU","type":"int24","indexed":false,"internalType":"int24"},{"name":"a0","type":"uint256","indexed":false,"internalType":"uint256"},{"name":"a1","type":"uint256","indexed":false,"internalType":"uint256"}],"anonymous":false},{"type":"event","name":"Unpaused","inputs":[{"name":"account","type":"address","indexed":false,"internalType":"address"}],"anonymous":false},{"type":"error","name":"AddressEmptyCode","inputs":[{"name":"target","type":"address","internalType":"address"}]},{"type":"error","name":"AddressInsufficientBalance","inputs":[{"name":"account","type":"address","internalType":"address"}]},{"type":"error","name":"EnforcedPause","inputs":[]},{"type":"error","name":"ExpectedPause","inputs":[]},{"type":"error","name":"FailedInnerCall","inputs":[]},{"type":"error","name":"ReentrancyGuardReentrantCall","inputs":[]},{"type":"error","name":"SafeERC20FailedOperation","inputs":[{"name":"token","type":"address","internalType":"address"}]},{"type":"error","name":"Xenorize__CompoundRateLimited","inputs":[{"name":"nextAllowed","type":"uint256","internalType":"uint256"}]},{"type":"error","name":"Xenorize__InvalidFeeRate","inputs":[{"name":"rate","type":"uint256","internalType":"uint256"},{"name":"max","type":"uint256","internalType":"uint256"}]},{"type":"error","name":"Xenorize__InvalidRange","inputs":[{"name":"lower","type":"int24","internalType":"int24"},{"name":"upper","type":"int24","internalType":"int24"}]},{"type":"error","name":"Xenorize__PositionNotActive","inputs":[{"name":"positionId","type":"bytes32","internalType":"bytes32"}]},{"type":"error","name":"Xenorize__PositionNotOwned","inputs":[{"name":"positionId","type":"bytes32","internalType":"bytes32"},{"name":"caller","type":"address","internalType":"address"}]},{"type":"error","name":"Xenorize__TVLCapExceeded","inputs":[{"name":"current","type":"uint256","internalType":"uint256"},{"name":"cap","type":"uint256","internalType":"uint256"}]},{"type":"error","name":"Xenorize__ZeroAddress","inputs":[]},{"type":"error","name":"Xenorize__ZeroAmount","inputs":[]}],"bytecode":{"object":"0x61012060405260c86002556032600355690a968163f0a57b40000060045568056bc75e2d6310000060055534801561003657600080fd5b5060405161296c38038061296c833981016040819052610055916101c9565b60016000819055805460ff191690556001600160a01b038616158061008157506001600160a01b038516155b8061009357506001600160a01b038416155b806100a557506001600160a01b038316155b806100b757506001600160a01b038216155b156100d557604051630aaffdf760e31b815260040160405180910390fd5b6001600160a01b0395861660805293851660a05291841660c052831660e0528216610100908152600180549290931602610100600160a81b0319909116179055600b6020527fdf7de25b7f1fd6d0b5205f0e18f1f35bd7b8d84cce336588d184533ce43a6f76805462ffffff19908116611f40179091557f72c6bfb7988af3a1efa6568f02a999bc52252641c659d85961ca3d372b57d5cf80548216610bb817905560026000527fa50eece07c7db1631545c0069bd8f5f54d5935e215d59097edf258a44ba9163480549091166103e817905561023d565b80516001600160a01b03811681146101c457600080fd5b919050565b60008060008060008060c087890312156101e257600080fd5b6101eb876101ad565b95506101f9602088016101ad565b9450610207604088016101ad565b9350610215606088016101ad565b9250610223608088016101ad565b915061023160a088016101ad565b90509295509295509295565b60805160a05160c05160e0516101005161266661030660003960008181610468015281816108d801528181610fde0152818161106901528181611a230152611aae0152600081816101f40152818161089d01528181610f0801528181610f930152818161140f015281816114970152818161194d01526119d8015260006104380152600061048f0152600081816103c801528181610aab01528181610b0701528181610c6e01528181610cf301528181610e09015281816110eb015261186d01526126666000f3fe608060405234801561001057600080fd5b50600436106101c45760003560e01c80637dc0d1d0116100f9578063b790230311610097578063dc4c90d311610071578063dc4c90d31461048a578063e54a2ad5146104b1578063fd443aa5146104c4578063fda1fa5f146104e457600080fd5b8063b790230314610433578063cfd6d5e91461045a578063d21220a71461046357600080fd5b80638da5cb5b116100d35780638da5cb5b146103c35780639b6d40c1146103ea578063a8bc6f7c1461040a578063b5f188f81461041357600080fd5b80637dc0d1d014610370578063817db73b146103885780638945ff66146103b057600080fd5b80635c975abb116101665780636dd5b69d116101405780636dd5b69d146102de5780636fa1931414610341578063787dce3d1461034a5780637adbf9731461035d57600080fd5b80635c975abb1461029f578063645006ca146102b55780636a5d8e8f146102be57600080fd5b8063226b1e5f116101a2578063226b1e5f1461024e57806335659fb8146102845780634a4e3bd51461028d57806351858e271461029757600080fd5b806302fdbeb2146101c95780630dfe1681146101ef5780631928b3cb1461022e575b600080fd5b6101dc6101d736600461213d565b6104ed565b6040519081526020015b60405180910390f35b6102167f000000000000000000000000000000000000000000000000000000000000000081565b6040516001600160a01b0390911681526020016101e6565b61024161023c3660046121bb565b610969565b6040516101e691906121fe565b61027161025c3660046122e9565b600b6020526000908152604090205460020b81565b60405160029190910b81526020016101e6565b6101dc60025481565b610295610aa0565b005b610295610afc565b60015460ff1660405190151581526020016101e6565b6101dc60055481565b6102d16102cc366004612304565b610b56565b6040516101e6919061232d565b6102f16102ec3660046121bb565b610bc2565b6040516101e69190600060c0820190508251825260208301516020830152604083015160408301526060830151606083015260808301511515608083015260a0830151151560a083015292915050565b6101dc60045481565b6102956103583660046121bb565b610c63565b61029561036b366004612304565b610ce8565b6001546102169061010090046001600160a01b031681565b61039b6103963660046121bb565b610d62565b604080519283526020830191909152016101e6565b6102956103be3660046121bb565b6110e0565b6102167f000000000000000000000000000000000000000000000000000000000000000081565b6103fd6103f8366004612370565b611137565b6040516101e691906123ac565b6101dc60065481565b6104266104213660046121bb565b611700565b6040516101e69190612433565b6102167f000000000000000000000000000000000000000000000000000000000000000081565b6101dc60035481565b6102167f000000000000000000000000000000000000000000000000000000000000000081565b6102167f000000000000000000000000000000000000000000000000000000000000000081565b61039b6104bf3660046121bb565b6117ce565b6101dc6104d23660046121bb565b600c6020526000908152604090205481565b6101dc60075481565b60006104f7611b5d565b6104ff611b87565b8415801561050b575083155b156105295760405163297279b760e01b815260040160405180910390fd5b8560020b8760020b12610562576040516399bd702f60e01b8152600288810b600483015287900b60248201526044015b60405180910390fd5b600061056e8587612463565b9050600454816006546105819190612463565b11156105af5760065460048054604051630627db8360e11b8152610559939201918252602082015260400190565b6005548110156105d25760405163297279b760e01b815260040160405180910390fd5b6007546040516bffffffffffffffffffffffff193360601b166020820152603481018b905260e88a811b605483015289901b605782015242605a820152607a810191909152609a01604051602081830303815290604052805190602001209150604051806101e00160405280336001600160a01b031681526020018a81526020018960020b81526020018860020b815260200186886106719190612463565b6001600160801b03168152602001428152602001428152602001600081526020018781526020018681526020016000815260200160008152602001600081526020018560028111156106c5576106c56121d4565b815260200160009052600083815260086020818152604092839020845181546001600160a01b039091166001600160a01b0319909116178155908401516001808301919091559284015160028083018054606088015160808901516001600160801b0316600160301b026601000000000000600160b01b031962ffffff92831663010000000265ffffffffffff19909416929096169190911791909117939093169290921790915560a0850151600383015560c0850151600483015560e0850151600583015561010085015160068301556101208501516007830155610140850151928201929092556101608401516009820155610180840151600a8201556101a0840151600b8201805492949193909260ff1916919084908111156107ed576107ed6121d4565b02179055506101c0820151600b8201805461ff001916610100836002811115610818576108186121d4565b02179055505050600082815260096020526040902083906108398282612484565b5050336000908152600a60209081526040822080546001810182559083529082200183905560068054839290610870908490612463565b909155505060078054906000610885836124f4565b909155505085156108c5576108c56001600160a01b037f000000000000000000000000000000000000000000000000000000000000000016333089611bab565b8415610900576109006001600160a01b037f000000000000000000000000000000000000000000000000000000000000000016333088611bab565b6040805160028a810b825289900b6020820152908101879052606081018690528990339084907fc37ba4d3406ee4ad8eacd274a0649799c4cca5f7c0f96860345e7510d6a261399060800160405180910390a45061095e6001600055565b979650505050505050565b610971612076565b60008281526008602081815260409283902083516101e08101855281546001600160a01b0316815260018201549281019290925260028082015480820b9584019590955263010000008504810b6060840152600160301b9094046001600160801b03166080830152600381015460a0830152600481015460c0830152600581015460e083015260068101546101008301526007810154610120830152918201546101408201526009820154610160820152600a820154610180820152600b82015490926101a084019160ff1690811115610a4d57610a4d6121d4565b6002811115610a5e57610a5e6121d4565b8152602001600b820160019054906101000a900460ff166002811115610a8657610a866121d4565b6002811115610a9757610a976121d4565b90525092915050565b336001600160a01b037f00000000000000000000000000000000000000000000000000000000000000001614610af25760405163e049870b60e01b815260006004820152336024820152604401610559565b610afa611c18565b565b336001600160a01b037f00000000000000000000000000000000000000000000000000000000000000001614610b4e5760405163e049870b60e01b815260006004820152336024820152604401610559565b610afa611c6a565b6001600160a01b0381166000908152600a6020908152604091829020805483518184028101840190945280845260609392830182828015610bb657602002820191906000526020600020905b815481526020019060010190808311610ba2575b50505050509050919050565b610bff6040518060c00160405280600081526020016000815260200160008152602001600081526020016000151581526020016000151581525090565b50600090815260096020908152604091829020825160c081018452815481526001820154928101929092526002810154928201929092526003820154606082015260049091015460ff8082161515608084015261010090910416151560a082015290565b336001600160a01b037f00000000000000000000000000000000000000000000000000000000000000001614610cb55760405163e049870b60e01b815260006004820152336024820152604401610559565b6103e8811115610ce35760405163110f339560e21b8152600481018290526103e86024820152604401610559565b600255565b336001600160a01b037f00000000000000000000000000000000000000000000000000000000000000001614610d3a5760405163e049870b60e01b815260006004820152336024820152604401610559565b600180546001600160a01b0390921661010002610100600160a81b0319909216919091179055565b600080610d6d611b5d565b610d75611b87565b600083815260086020526040902083906002600b820154610100900460ff166002811115610da557610da56121d4565b1480610db9575080546001600160a01b0316155b15610dda57604051630931e2e960e01b815260048101839052602401610559565b60008581526008602052604090205485906001600160a01b03163314801590610e2c5750336001600160a01b037f00000000000000000000000000000000000000000000000000000000000000001614155b15610e535760405163e049870b60e01b815260048101829052336024820152604401610559565b60008681526008602052604090206002810154610e829060c890600160301b90046001600160801b0316612523565b60028201546001600160801b039182169750610ea89160c891600160301b900416612523565b6001600160801b0316945085816008016000828254610ec79190612463565b9250508190555084816009016000828254610ee29190612463565b90915550508515801590610f7e57506040516370a0823160e01b815230600482015286907f00000000000000000000000000000000000000000000000000000000000000006001600160a01b0316906370a0823190602401602060405180830381865afa158015610f57573d6000803e3d6000fd5b505050506040513d601f19601f82011682018060405250810190610f7b9190612551565b10155b15610fbc578054610fbc906001600160a01b037f00000000000000000000000000000000000000000000000000000000000000008116911688611ca5565b60008511801561105457506040516370a0823160e01b815230600482015285907f00000000000000000000000000000000000000000000000000000000000000006001600160a01b0316906370a0823190602401602060405180830381865afa15801561102d573d6000803e3d6000fd5b505050506040513d601f19601f820116820180604052508101906110519190612551565b10155b15611092578054611092906001600160a01b037f00000000000000000000000000000000000000000000000000000000000000008116911687611ca5565b604080518781526020810187905288917f4257047a82edf43bf1bef92176ac66a3c63ee849651929eabf6dbd8492817ac5910160405180910390a2505050506110db6001600055565b915091565b336001600160a01b037f000000000000000000000000000000000000000000000000000000000000000016146111325760405163e049870b60e01b815260006004820152336024820152604401610559565b600455565b6111936040518061014001604052806000815260200160008152602001600060020b8152602001600060020b81526020016000815260200160008152602001600081526020016000815260200160008152602001600081525090565b61119b611b5d565b6111a3611b87565b600084815260086020526040902084906002600b820154610100900460ff1660028111156111d3576111d36121d4565b14806111e7575080546001600160a01b0316155b1561120857604051630931e2e960e01b815260048101839052602401610559565b6000868152600c602052604090205443900361124557611229436001612463565b604051636ba7cbdb60e11b815260040161055991815260200190565b8360020b8560020b12611279576040516399bd702f60e01b8152600286810b600483015285900b6024820152604401610559565b6000868152600860209081526040808320600c90925282204390556002810154909190819081906112bc90606490600160301b90046001600160801b0316612523565b60028501546001600160801b0391821692506000916112e691606491600160301b90910416612523565b6001600160801b0316905061130d85600601548660070154670de0b6b3a764000080611cdb565b60c08901819052600a86018054600090611328908490612463565b90915550506002546127109061133e908461256a565b6113489190612581565b6101008901526002546127109061135f908361256a565b6113699190612581565b6101208901526080880182905260a08801819052845460009081906001600160a01b031633146114be576127106003548b6101000151866113aa9190612595565b6113b4919061256a565b6113be9190612581565b91506127106003548b6101200151856113d79190612595565b6113e1919061256a565b6113eb9190612581565b905060008211801561148557506040516370a0823160e01b815230600482015282907f00000000000000000000000000000000000000000000000000000000000000006001600160a01b0316906370a0823190602401602060405180830381865afa15801561145e573d6000803e3d6000fd5b505050506040513d601f19601f820116820180604052508101906114829190612551565b10155b156114be576114be6001600160a01b037f0000000000000000000000000000000000000000000000000000000000000000163384611ca5565b818a61010001518589600601546114d59190612463565b6114df9190612595565b6114e99190612595565b8a526101208a01516007880154829190611504908690612463565b61150e9190612595565b6115189190612595565b60208b01526101008a0151829061152f9086612595565b6115399190612595565b94505050505087866040019060020b908160020b8152505086866060019060020b908160020b8152505082600501549150878360020160006101000a81548162ffffff021916908360020b62ffffff160217905550868360020160036101000a81548162ffffff021916908360020b62ffffff160217905550856020015186600001516115c69190612463565b6002840180546001600160801b0392909216600160301b026601000000000000600160b01b031990921691909117905542600484015560058301805490600061160e836124f4565b9190505550856080015183600801600082825461162b9190612463565b909155505060a0860151600984018054600090611649908490612463565b90915550508551600684015560208601516007840155887ffa3851a924c72b43de4876c68a3990ccd9ae6a2a8c38a9a4bb7fc5aec00133a361168c846001612463565b8a8a8a608001518b60a001518c60c00151886040516116e29796959493929190968752600295860b60208801529390940b60408601526060850191909152608084015260a083019190915260c082015260e00190565b60405180910390a250505050506116f96001600055565b9392505050565b60008181526008602052604081206002600b820154610100900460ff16600281111561172e5761172e6121d4565b0361173c5750600092915050565b6001600b820154610100900460ff16600281111561175c5761175c6121d4565b0361176a5750600492915050565b6000610e1082600401544261177f9190612595565b6117899190612581565b9050603081111561179e575060039392505050565b60188111156117b1575060029392505050565b60068111156117c4575060019392505050565b5060009392505050565b6000806117d9611b5d565b600083815260086020526040902083906002600b820154610100900460ff166002811115611809576118096121d4565b148061181d575080546001600160a01b0316155b1561183e57604051630931e2e960e01b815260048101839052602401610559565b60008581526008602052604090205485906001600160a01b031633148015906118905750336001600160a01b037f00000000000000000000000000000000000000000000000000000000000000001614155b156118b75760405163e049870b60e01b815260048101829052336024820152604401610559565b6000868152600860205260409020600b8101805461ff001916610200179055600781015460068201546118ea9190612463565b600654116118f957600061191a565b806007015481600601546006546119109190612595565b61191a9190612595565b60069081558101546007820154909650945085158015906119c357506040516370a0823160e01b815230600482015286907f00000000000000000000000000000000000000000000000000000000000000006001600160a01b0316906370a0823190602401602060405180830381865afa15801561199c573d6000803e3d6000fd5b505050506040513d601f19601f820116820180604052508101906119c09190612551565b10155b15611a01578054611a01906001600160a01b037f00000000000000000000000000000000000000000000000000000000000000008116911688611ca5565b600085118015611a9957506040516370a0823160e01b815230600482015285907f00000000000000000000000000000000000000000000000000000000000000006001600160a01b0316906370a0823190602401602060405180830381865afa158015611a72573d6000803e3d6000fd5b505050506040513d601f19601f82011682018060405250810190611a969190612551565b10155b15611ad7578054611ad7906001600160a01b037f00000000000000000000000000000000000000000000000000000000000000008116911687611ca5565b805460088201546009830154600a8401546005850154604080518c8152602081018c9052908101949094526060840192909252608083015260a08201526001600160a01b039091169088907f2d482a44386b3e3962eae57f97710f4c8095b7f26664357dc5e5c10b808a4bdf9060c00160405180910390a3505050506110db6001600055565b600260005403611b8057604051633ee5aeb560e01b815260040160405180910390fd5b6002600055565b60015460ff1615610afa5760405163d93c066560e01b815260040160405180910390fd5b6040516001600160a01b038481166024830152838116604483015260648201839052611c129186918216906323b872dd906084015b604051602081830303815290604052915060e01b6020820180516001600160e01b038381831617835250505050611d8e565b50505050565b611c20611df1565b6001805460ff191690557f5db9ee0a495bf2e6ff9c91a7834c1ba4fdd244a5e8aa4e537bd38aeae4b073aa335b6040516001600160a01b03909116815260200160405180910390a1565b611c72611b87565b6001805460ff1916811790557f62e78cea01bee320cd4e420270b5ea74000d11b0c9f74754ebdbfc544b05a25833611c4d565b6040516001600160a01b03838116602483015260448201839052611cd691859182169063a9059cbb90606401611be0565b505050565b600081600003611ced57506000611d86565b600082611d02670de0b6b3a76400008661256a565b611d0c9190612581565b90506000611d1982611e14565b905060008112611d2e57600092505050611d86565b600084611d43670de0b6b3a76400008961256a565b611d4d9190612581565b611d579089612463565b9050670de0b6b3a764000081611d6c846125a8565b611d76919061256a565b611d809190612581565b93505050505b949350505050565b6000611da36001600160a01b03841683611e92565b90508051600014158015611dc8575080806020019051810190611dc691906125c4565b155b15611cd657604051635274afe760e01b81526001600160a01b0384166004820152602401610559565b60015460ff16610afa57604051638dfc202b60e01b815260040160405180910390fd5b600080611e2083611ea9565b90506000611e2f82600261256a565b90506000611e4585670de0b6b3a7640000612463565b905060008115611e715781611e62670de0b6b3a76400008561256a565b611e6c9190612581565b611e74565b60005b9050611e88670de0b6b3a7640000826125e1565b9695505050505050565b6060611ea083836000611f60565b90505b92915050565b600081600003611ebb57506000919050565b670de0b6b3a76400008210611ed05781611eda565b670de0b6b3a76400005b90506000600282611ef3670de0b6b3a76400008661256a565b611efd9190612581565b611f079084612463565b611f119190612581565b90505b81811015611f5a5790508060028180611f35670de0b6b3a76400008761256a565b611f3f9190612581565b611f499190612463565b611f539190612581565b9050611f14565b50919050565b606081471015611f855760405163cd78605960e01b8152306004820152602401610559565b600080856001600160a01b03168486604051611fa19190612601565b60006040518083038185875af1925050503d8060008114611fde576040519150601f19603f3d011682016040523d82523d6000602084013e611fe3565b606091505b5091509150611e8886838360608261200357611ffe8261204a565b6116f9565b815115801561201a57506001600160a01b0384163b155b1561204357604051639996b31560e01b81526001600160a01b0385166004820152602401610559565b50806116f9565b80511561205a5780518082602001fd5b604051630a12f52160e11b815260040160405180910390fd5b50565b604051806101e0016040528060006001600160a01b0316815260200160008019168152602001600060020b8152602001600060020b815260200160006001600160801b0316815260200160008152602001600081526020016000815260200160008152602001600081526020016000815260200160008152602001600081526020016000600281111561210b5761210b6121d4565b81526020016000905290565b8035600281900b811461212957600080fd5b919050565b80356003811061212957600080fd5b600080600080600080600087890361018081121561215a57600080fd5b8835975061216a60208a01612117565b965061217860408a01612117565b9550606089013594506080890135935061219460a08a0161212e565b925060c060bf19820112156121a857600080fd5b5060c08801905092959891949750929550565b6000602082840312156121cd57600080fd5b5035919050565b634e487b7160e01b600052602160045260246000fd5b600381106121fa576121fa6121d4565b9052565b81516001600160a01b031681526101e0810160208301516020830152604083015161222e604084018260020b9052565b506060830151612243606084018260020b9052565b50608083015161225e60808401826001600160801b03169052565b5060a083015160a083015260c083015160c083015260e083015160e08301526101008301516101008301526101208301516101208301526101408301516101408301526101608301516101608301526101808301516101808301526101a08301516122cd6101a08401826121ea565b506101c08301516122e26101c08401826121ea565b5092915050565b6000602082840312156122fb57600080fd5b611ea08261212e565b60006020828403121561231657600080fd5b81356001600160a01b03811681146116f957600080fd5b602080825282518282018190526000918401906040840190835b81811015612365578351835260209384019390920191600101612347565b509095945050505050565b60008060006060848603121561238557600080fd5b8335925061239560208501612117565b91506123a360408501612117565b90509250925092565b600061014082019050825182526020830151602083015260408301516123d7604084018260020b9052565b5060608301516123ec606084018260020b9052565b506080830151608083015260a083015160a083015260c083015160c083015260e083015160e083015261010083015161010083015261012083015161012083015292915050565b6020810160058310612447576124476121d4565b91905290565b634e487b7160e01b600052601160045260246000fd5b80820180821115611ea357611ea361244d565b801515811461207357600080fd5b813581556020820135600182015560408201356002820155606082013560038201556004810160808301356124b881612476565b815490151560ff1660ff1991909116178155600060a08401356124da81612476565b825461ff00191690151560081b61ff001617909155505050565b6000600182016125065761250661244d565b5060010190565b634e487b7160e01b600052601260045260246000fd5b60006001600160801b0383168061253c5761253c61250d565b806001600160801b0384160491505092915050565b60006020828403121561256357600080fd5b5051919050565b8082028115828204841417611ea357611ea361244d565b6000826125905761259061250d565b500490565b81810381811115611ea357611ea361244d565b6000600160ff1b82016125bd576125bd61244d565b5060000390565b6000602082840312156125d657600080fd5b81516116f981612476565b81810360008312801583831316838312821617156122e2576122e261244d565b6000825160005b818110156126225760208186018101518583015201612608565b50600092019182525091905056fea26469706673582212202ec8551e733e5cf532219743215319fd322c3346b30b030e09c969de33e7aaa864736f6c634300081a0033","linkReferences":{}},"methodIdentifiers":{"closePosition(bytes32)":"e54a2ad5","collectFees(bytes32)":"817db73b","compoundPosition(bytes32,int24,int24)":"9b6d40c1","emergencyPause()":"51858e27","emergencyUnpause()":"4a4e3bd5","getCompoundUrgency(bytes32)":"b5f188f8","getConfig(bytes32)":"6dd5b69d","getPosition(bytes32)":"1928b3cb","getPositionsByOwner(address)":"6a5d8e8f","insuranceFund()":"b7902303","keeperRewardBps()":"cfd6d5e9","lastCompoundBlock(bytes32)":"fd443aa5","maxTVLCap()":"6fa19314","minDepositAmount()":"645006ca","openPosition(bytes32,int24,int24,uint256,uint256,uint8,(uint256,uint256,uint256,uint256,bool,bool))":"02fdbeb2","oracle()":"7dc0d1d0","owner()":"8da5cb5b","paused()":"5c975abb","poolManager()":"dc4c90d3","protocolFeeBps()":"35659fb8","rangeWidthTicks(uint8)":"226b1e5f","setMaxTVLCap(uint256)":"8945ff66","setOracle(address)":"7adbf973","setProtocolFee(uint256)":"787dce3d","token0()":"0dfe1681","token1()":"d21220a7","totalPositions()":"fda1fa5f","totalTVL()":"a8bc6f7c"},"id":28}