{"abi":[{"type":"constructor","inputs":[{"name":"_poolManager","type":"address","internalType":"contract IPoolManager"},{"name":"_insuranceFund","type":"address","internalType":"contract IInsuranceFund"},{"name":"_oracle","type":"address","internalType":"contract IXenorizeOracle"},{"name":"_owner","type":"address","internalType":"address"}],"stateMutability":"nonpayable"},{"type":"function","name":"afterAddLiquidity","inputs":[{"name":"sender","type":"address","internalType":"address"},{"name":"key","type":"tuple","internalType":"struct PoolKey","components":[{"name":"currency0","type":"address","internalType":"Currency"},{"name":"currency1","type":"address","internalType":"Currency"},{"name":"fee","type":"uint24","internalType":"uint24"},{"name":"tickSpacing","type":"int24","internalType":"int24"},{"name":"hooks","type":"address","internalType":"contract IHooks"}]},{"name":"params","type":"tuple","internalType":"struct ModifyLiquidityParams","components":[{"name":"tickLower","type":"int24","internalType":"int24"},{"name":"tickUpper","type":"int24","internalType":"int24"},{"name":"liquidityDelta","type":"int256","internalType":"int256"},{"name":"salt","type":"bytes32","internalType":"bytes32"}]},{"name":"delta","type":"int256","internalType":"BalanceDelta"},{"name":"","type":"int256","internalType":"BalanceDelta"},{"name":"hookData","type":"bytes","internalType":"bytes"}],"outputs":[{"name":"","type":"bytes4","internalType":"bytes4"},{"name":"","type":"int256","internalType":"BalanceDelta"}],"stateMutability":"nonpayable"},{"type":"function","name":"afterDonate","inputs":[{"name":"","type":"address","internalType":"address"},{"name":"","type":"tuple","internalType":"struct PoolKey","components":[{"name":"currency0","type":"address","internalType":"Currency"},{"name":"currency1","type":"address","internalType":"Currency"},{"name":"fee","type":"uint24","internalType":"uint24"},{"name":"tickSpacing","type":"int24","internalType":"int24"},{"name":"hooks","type":"address","internalType":"contract IHooks"}]},{"name":"","type":"uint256","internalType":"uint256"},{"name":"","type":"uint256","internalType":"uint256"},{"name":"","type":"bytes","internalType":"bytes"}],"outputs":[{"name":"","type":"bytes4","internalType":"bytes4"}],"stateMutability":"pure"},{"type":"function","name":"afterInitialize","inputs":[{"name":"","type":"address","internalType":"address"},{"name":"","type":"tuple","internalType":"struct PoolKey","components":[{"name":"currency0","type":"address","internalType":"Currency"},{"name":"currency1","type":"address","internalType":"Currency"},{"name":"fee","type":"uint24","internalType":"uint24"},{"name":"tickSpacing","type":"int24","internalType":"int24"},{"name":"hooks","type":"address","internalType":"contract IHooks"}]},{"name":"","type":"uint160","internalType":"uint160"},{"name":"","type":"int24","internalType":"int24"}],"outputs":[{"name":"","type":"bytes4","internalType":"bytes4"}],"stateMutability":"pure"},{"type":"function","name":"afterRemoveLiquidity","inputs":[{"name":"sender","type":"address","internalType":"address"},{"name":"key","type":"tuple","internalType":"struct PoolKey","components":[{"name":"currency0","type":"address","internalType":"Currency"},{"name":"currency1","type":"address","internalType":"Currency"},{"name":"fee","type":"uint24","internalType":"uint24"},{"name":"tickSpacing","type":"int24","internalType":"int24"},{"name":"hooks","type":"address","internalType":"contract IHooks"}]},{"name":"params","type":"tuple","internalType":"struct ModifyLiquidityParams","components":[{"name":"tickLower","type":"int24","internalType":"int24"},{"name":"tickUpper","type":"int24","internalType":"int24"},{"name":"liquidityDelta","type":"int256","internalType":"int256"},{"name":"salt","type":"bytes32","internalType":"bytes32"}]},{"name":"delta","type":"int256","internalType":"BalanceDelta"},{"name":"","type":"int256","internalType":"BalanceDelta"},{"name":"hookData","type":"bytes","internalType":"bytes"}],"outputs":[{"name":"","type":"bytes4","internalType":"bytes4"},{"name":"","type":"int256","internalType":"BalanceDelta"}],"stateMutability":"nonpayable"},{"type":"function","name":"afterSwap","inputs":[{"name":"","type":"address","internalType":"address"},{"name":"","type":"tuple","internalType":"struct PoolKey","components":[{"name":"currency0","type":"address","internalType":"Currency"},{"name":"currency1","type":"address","internalType":"Currency"},{"name":"fee","type":"uint24","internalType":"uint24"},{"name":"tickSpacing","type":"int24","internalType":"int24"},{"name":"hooks","type":"address","internalType":"contract IHooks"}]},{"name":"","type":"tuple","internalType":"struct SwapParams","components":[{"name":"zeroForOne","type":"bool","internalType":"bool"},{"name":"amountSpecified","type":"int256","internalType":"int256"},{"name":"sqrtPriceLimitX96","type":"uint160","internalType":"uint160"}]},{"name":"","type":"int256","internalType":"BalanceDelta"},{"name":"","type":"bytes","internalType":"bytes"}],"outputs":[{"name":"","type":"bytes4","internalType":"bytes4"},{"name":"","type":"int128","internalType":"int128"}],"stateMutability":"pure"},{"type":"function","name":"beforeAddLiquidity","inputs":[{"name":"","type":"address","internalType":"address"},{"name":"","type":"tuple","internalType":"struct PoolKey","components":[{"name":"currency0","type":"address","internalType":"Currency"},{"name":"currency1","type":"address","internalType":"Currency"},{"name":"fee","type":"uint24","internalType":"uint24"},{"name":"tickSpacing","type":"int24","internalType":"int24"},{"name":"hooks","type":"address","internalType":"contract IHooks"}]},{"name":"","type":"tuple","internalType":"struct ModifyLiquidityParams","components":[{"name":"tickLower","type":"int24","internalType":"int24"},{"name":"tickUpper","type":"int24","internalType":"int24"},{"name":"liquidityDelta","type":"int256","internalType":"int256"},{"name":"salt","type":"bytes32","internalType":"bytes32"}]},{"name":"","type":"bytes","internalType":"bytes"}],"outputs":[{"name":"","type":"bytes4","internalType":"bytes4"}],"stateMutability":"pure"},{"type":"function","name":"beforeDonate","inputs":[{"name":"","type":"address","internalType":"address"},{"name":"","type":"tuple","internalType":"struct PoolKey","components":[{"name":"currency0","type":"address","internalType":"Currency"},{"name":"currency1","type":"address","internalType":"Currency"},{"name":"fee","type":"uint24","internalType":"uint24"},{"name":"tickSpacing","type":"int24","internalType":"int24"},{"name":"hooks","type":"address","internalType":"contract IHooks"}]},{"name":"","type":"uint256","internalType":"uint256"},{"name":"","type":"uint256","internalType":"uint256"},{"name":"","type":"bytes","internalType":"bytes"}],"outputs":[{"name":"","type":"bytes4","internalType":"bytes4"}],"stateMutability":"pure"},{"type":"function","name":"beforeInitialize","inputs":[{"name":"","type":"address","internalType":"address"},{"name":"","type":"tuple","internalType":"struct PoolKey","components":[{"name":"currency0","type":"address","internalType":"Currency"},{"name":"currency1","type":"address","internalType":"Currency"},{"name":"fee","type":"uint24","internalType":"uint24"},{"name":"tickSpacing","type":"int24","internalType":"int24"},{"name":"hooks","type":"address","internalType":"contract IHooks"}]},{"name":"","type":"uint160","internalType":"uint160"}],"outputs":[{"name":"","type":"bytes4","internalType":"bytes4"}],"stateMutability":"pure"},{"type":"function","name":"beforeRemoveLiquidity","inputs":[{"name":"","type":"address","internalType":"address"},{"name":"","type":"tuple","internalType":"struct PoolKey","components":[{"name":"currency0","type":"address","internalType":"Currency"},{"name":"currency1","type":"address","internalType":"Currency"},{"name":"fee","type":"uint24","internalType":"uint24"},{"name":"tickSpacing","type":"int24","internalType":"int24"},{"name":"hooks","type":"address","internalType":"contract IHooks"}]},{"name":"","type":"tuple","internalType":"struct ModifyLiquidityParams","components":[{"name":"tickLower","type":"int24","internalType":"int24"},{"name":"tickUpper","type":"int24","internalType":"int24"},{"name":"liquidityDelta","type":"int256","internalType":"int256"},{"name":"salt","type":"bytes32","internalType":"bytes32"}]},{"name":"","type":"bytes","internalType":"bytes"}],"outputs":[{"name":"","type":"bytes4","internalType":"bytes4"}],"stateMutability":"pure"},{"type":"function","name":"beforeSwap","inputs":[{"name":"","type":"address","internalType":"address"},{"name":"","type":"tuple","internalType":"struct PoolKey","components":[{"name":"currency0","type":"address","internalType":"Currency"},{"name":"currency1","type":"address","internalType":"Currency"},{"name":"fee","type":"uint24","internalType":"uint24"},{"name":"tickSpacing","type":"int24","internalType":"int24"},{"name":"hooks","type":"address","internalType":"contract IHooks"}]},{"name":"","type":"tuple","internalType":"struct SwapParams","components":[{"name":"zeroForOne","type":"bool","internalType":"bool"},{"name":"amountSpecified","type":"int256","internalType":"int256"},{"name":"sqrtPriceLimitX96","type":"uint160","internalType":"uint160"}]},{"name":"","type":"bytes","internalType":"bytes"}],"outputs":[{"name":"","type":"bytes4","internalType":"bytes4"},{"name":"","type":"int256","internalType":"BeforeSwapDelta"},{"name":"","type":"uint24","internalType":"uint24"}],"stateMutability":"pure"},{"type":"function","name":"emergencyPause","inputs":[{"name":"_pause","type":"bool","internalType":"bool"}],"outputs":[],"stateMutability":"nonpayable"},{"type":"function","name":"getHookPermissions","inputs":[],"outputs":[{"name":"","type":"tuple","internalType":"struct Hooks.Permissions","components":[{"name":"beforeInitialize","type":"bool","internalType":"bool"},{"name":"afterInitialize","type":"bool","internalType":"bool"},{"name":"beforeAddLiquidity","type":"bool","internalType":"bool"},{"name":"afterAddLiquidity","type":"bool","internalType":"bool"},{"name":"beforeRemoveLiquidity","type":"bool","internalType":"bool"},{"name":"afterRemoveLiquidity","type":"bool","internalType":"bool"},{"name":"beforeSwap","type":"bool","internalType":"bool"},{"name":"afterSwap","type":"bool","internalType":"bool"},{"name":"beforeDonate","type":"bool","internalType":"bool"},{"name":"afterDonate","type":"bool","internalType":"bool"},{"name":"beforeSwapReturnDelta","type":"bool","internalType":"bool"},{"name":"afterSwapReturnDelta","type":"bool","internalType":"bool"},{"name":"afterAddLiquidityReturnDelta","type":"bool","internalType":"bool"},{"name":"afterRemoveLiquidityReturnDelta","type":"bool","internalType":"bool"}]}],"stateMutability":"pure"},{"type":"function","name":"insuranceFund","inputs":[],"outputs":[{"name":"","type":"address","internalType":"contract IInsuranceFund"}],"stateMutability":"view"},{"type":"function","name":"oracle","inputs":[],"outputs":[{"name":"","type":"address","internalType":"contract IXenorizeOracle"}],"stateMutability":"view"},{"type":"function","name":"owner","inputs":[],"outputs":[{"name":"","type":"address","internalType":"address"}],"stateMutability":"view"},{"type":"function","name":"paused","inputs":[],"outputs":[{"name":"","type":"bool","internalType":"bool"}],"stateMutability":"view"},{"type":"function","name":"poolManager","inputs":[],"outputs":[{"name":"","type":"address","internalType":"contract IPoolManager"}],"stateMutability":"view"},{"type":"function","name":"snapshots","inputs":[{"name":"","type":"bytes32","internalType":"bytes32"}],"outputs":[{"name":"amount0","type":"uint256","internalType":"uint256"},{"name":"amount1","type":"uint256","internalType":"uint256"},{"name":"price0USD","type":"uint256","internalType":"uint256"},{"name":"price1USD","type":"uint256","internalType":"uint256"},{"name":"depositTime","type":"uint256","internalType":"uint256"},{"name":"liquidity","type":"uint128","internalType":"uint128"},{"name":"exists","type":"bool","internalType":"bool"}],"stateMutability":"view"},{"type":"function","name":"validateHookAddress","inputs":[],"outputs":[{"name":"","type":"bool","internalType":"bool"}],"stateMutability":"view"},{"type":"event","name":"ILCompensationTriggered","inputs":[{"name":"snapshotKey","type":"bytes32","indexed":true,"internalType":"bytes32"},{"name":"lp","type":"address","indexed":true,"internalType":"address"},{"name":"ilAmount0","type":"uint256","indexed":false,"internalType":"uint256"},{"name":"compensated","type":"uint256","indexed":false,"internalType":"uint256"}],"anonymous":false},{"type":"event","name":"ILSkipped","inputs":[{"name":"snapshotKey","type":"bytes32","indexed":true,"internalType":"bytes32"},{"name":"reason","type":"string","indexed":false,"internalType":"string"}],"anonymous":false},{"type":"event","name":"SnapshotCreated","inputs":[{"name":"snapshotKey","type":"bytes32","indexed":true,"internalType":"bytes32"},{"name":"lp","type":"address","indexed":true,"internalType":"address"},{"name":"price0","type":"uint256","indexed":false,"internalType":"uint256"},{"name":"price1","type":"uint256","indexed":false,"internalType":"uint256"}],"anonymous":false},{"type":"event","name":"SnapshotUpdated","inputs":[{"name":"snapshotKey","type":"bytes32","indexed":true,"internalType":"bytes32"},{"name":"lp","type":"address","indexed":true,"internalType":"address"},{"name":"newPrice0","type":"uint256","indexed":false,"internalType":"uint256"},{"name":"newPrice1","type":"uint256","indexed":false,"internalType":"uint256"}],"anonymous":false},{"type":"error","name":"Xenorize__EmergencyPaused","inputs":[]},{"type":"error","name":"Xenorize__Unauthorized","inputs":[{"name":"caller","type":"address","internalType":"address"},{"name":"required","type":"address","internalType":"address"}]},{"type":"error","name":"Xenorize__ZeroAddress","inputs":[]}],"bytecode":{"object":"0x6101003461011e57601f61150e38819003918201601f19168301916001600160401b038311848410176101225780849260809460405283398101031261011e5780516001600160a01b038116919082810361011e576020820151906001600160a01b03821680830361011e576040840151936001600160a01b038516850361011e5760600151946001600160a01b038616860361011e5715908115610115575b506101065760805260a05260c05260e0526040516113d7908161013782396080518181816101b201528181610416015261055c015260a05181818161035c0152610cb1015260c0518181816104e00152611254015260e05181818161010d015261049c0152f35b630aaffdf760e31b5f5260045ffd5b9050155f61009f565b5f80fd5b634e487b7160e01b5f52604160045260245ffdfe6080806040526004361015610012575f80fd5b5f3560e01c90816321d0ee7014610689578163259982e514610689578163444744001461061657508063575e24b4146105c25780635c975abb146105a05780636c2bbe7e146105475780636fe7e6eb1461050f5780637dc0d1d0146104cb5780638da5cb5b146104875780639f063efc14610401578063a9a091bb146103df578063b47b2fb11461038b578063b6a8b0fa1461016a578063b790230314610347578063c4e833ce146101e1578063dc4c90d31461019d578063dc98354e1461016f578063e1b4af691461016a5763e8f6940e146100ed575f80fd5b3461016657602036600319011261016657600435801515809103610166577f00000000000000000000000000000000000000000000000000000000000000006001600160a01b031633819003610150575060ff8019600154169116176001555f80f35b630cc657bb60e41b5f523360045260245260445ffd5b5f80fd5b6107d9565b346101665760e03660031901126101665761018861068e565b5060a0366023190112610166576101666107b3565b34610166575f366003190112610166576040517f00000000000000000000000000000000000000000000000000000000000000006001600160a01b03168152602090f35b34610166575f366003190112610166575f6101a06040516102018161082c565b8281528260208201528260408201528260608201528260808201528260a08201528260c08201528260e0820152826101008201528261012082015282610140820152826101608201528261018082015201526101c060206040516102648161082c565b5f8152818101905f8252604081015f81526060820160018152608083015f815260a084016001815260c085015f815260e08601905f82526101008701925f84526101208801945f86526101408901965f88526101608a01985f8a526101a06101808c019b5f8d52019b5f8d526040519d8e915f835251151591015251151560408d015251151560608c015251151560808b015251151560a08a015251151560c089015251151560e08801525115156101008701525115156101208601525115156101408501525115156101608401525115156101808301525115156101a0820152f35b34610166575f366003190112610166576040517f00000000000000000000000000000000000000000000000000000000000000006001600160a01b03168152602090f35b3461016657610160366003190112610166576103a561068e565b5060a03660231901126101665760603660c3190112610166576101443567ffffffffffffffff8111610166576101669036906004016106b8565b34610166575f366003190112610166576020604051610500613fff3016148152f35b346101665761040f36610745565b94909391507f00000000000000000000000000000000000000000000000000000000000000006001600160a01b031633819003610150575060ff600154166104785761045a95610f30565b604080516001600160e01b0319939093168352602083019190915290f35b6311b6a2fb60e31b5f5260045ffd5b34610166575f366003190112610166576040517f00000000000000000000000000000000000000000000000000000000000000006001600160a01b03168152602090f35b34610166575f366003190112610166576040517f00000000000000000000000000000000000000000000000000000000000000006001600160a01b03168152602090f35b34610166576101003660031901126101665761052961068e565b5060a03660231901126101665761053e6107b3565b506101666107c9565b346101665761055536610745565b94909391507f00000000000000000000000000000000000000000000000000000000000000006001600160a01b031633819003610150575060ff600154166104785761045a95610990565b34610166575f36600319011261016657602060ff600154166040519015158152f35b3461016657610140366003190112610166576105dc61068e565b5060a03660231901126101665760603660c3190112610166576101243567ffffffffffffffff8111610166576101669036906004016106b8565b346101665760203660031901126101665760e0906004355f525f60205260ff60405f20805490600181015460028201546003830154916005600485015494015494875260208701526040860152606085015260808401526001600160801b03811660a084015260801c16151560c0820152f35b6106e6565b600435906001600160a01b038216820361016657565b35906001600160a01b038216820361016657565b9181601f840112156101665782359167ffffffffffffffff8311610166576020838186019501011161016657565b3461016657610160366003190112610166576004356001600160a01b0381168103610166575060a03660231901126101665760803660c3190112610166576101443567ffffffffffffffff8111610166576101669036906004016106b8565b906101a0600319830112610166576004356001600160a01b0381168103610166579160a060231982011261016657602491608060c3198301126101665760c49161014435916101643591610184359067ffffffffffffffff8211610166576107af916004016106b8565b9091565b60c435906001600160a01b038216820361016657565b60e435908160020b820361016657565b3461016657610120366003190112610166576004356001600160a01b0381168103610166575060a0366023190112610166576101043567ffffffffffffffff8111610166576101669036906004016106b8565b6101c0810190811067ffffffffffffffff82111761084957604052565b634e487b7160e01b5f52604160045260245ffd5b60a0810190811067ffffffffffffffff82111761084957604052565b90601f8019910116810190811067ffffffffffffffff82111761084957604052565b91908260a0910312610166576040516108b38161085d565b80926108be816106a4565b82526108cc602082016106a4565b6020830152604081013562ffffff811681036101665760408301526060810135908160020b820361016657606083019190915260800135906001600160a01b03821682036101665760800152565b358060020b81036101665790565b8181029291811591840414171561093b57565b634e487b7160e01b5f52601160045260245ffd5b8115610959570490565b634e487b7160e01b5f52601260045260245ffd5b9190820391821161093b57565b9190826040910312610166576020825192015190565b90929461099d92946111c0565b9260a06109aa368461089b565b206109cd6109b78561091a565b9160208601926109c68461091a565b91886111f2565b93845f525f60205260405f20926005840180549460ff8660801c1615610ea7578260801d5f81600f0b135f14610e9f576001600160801b0316925b5f81600f0b135f14610e97576001600160801b0316905b60408501355f811215610e8757600160ff1b811461093b576001600160801b03905f03975b1693888515610e775750670de0b6b3a7640000880297808904670de0b6b3a7640000148115171561093b57610a7a868b9a61094f565b955b835492610a898885610928565b670de0b6b3a764000090046001860191825497610aa68b8a610928565b670de0b6b3a764000090049e8f90610abd90611251565b8092610ac98388610928565b670de0b6b3a7640000900491610ade91610928565b670de0b6b3a76400009004610af291610f23565b936001600160801b031690610b0691610928565b670de0b6b3a76400009004916001600160801b031690610b2591610928565b670de0b6b3a76400009004610b3991610f23565b818110610e685750505f9c5b670de0b6b3a764000060048801549a10801590610e5e575b15610e2657505050505050505050855f525f6020525f60056040822082815582600182015582600282015582600382015582600482015501555b8415610dd257610bab62015180914261096d565b0491605a8310610da557610be59250610bde610bd860a0610bd1612710975b369061089b565b209361091a565b9161091a565b91876111f2565b60405190610bf28261085d565b8152602081019460018060a01b031694858152604082019284845260608301908152604051926020840184811067ffffffffffffffff8211176108495760409460e49360209287525f8252608084019182528651978896879563710a6ab760e01b875285600488015251602487015260018060a01b0390511660448601525160648501525160848401525160a060a484015280519182918260c4860152018484015e5f838284010152601f801991011681010301815f60018060a01b037f0000000000000000000000000000000000000000000000000000000000000000165af15f9181610d73575b50610d3e57505090507fb832877a07ad76aefcc7841197355e83582db7d85a2caae6cb21ba08adc3c5d76060604051602081526011602082015270119d5b990818db185a5b4819985a5b1959607a1b6040820152a25b633615df3f60e11b905f90565b7fc8a1dd54b7413f55e6b6ae1412573bd7ce41c1c0b1e3e29a180fc3cc98d1cfc99160409182519182526020820152a3610d31565b610d9691925060403d604011610d9e575b610d8e8183610879565b81019061097a565b50905f610cdb565b503d610d84565b612710830292808404612710149015171561093b57610bde610bd860a0610bd1605a610be5970497610bca565b505050505090507fb832877a07ad76aefcc7841197355e83582db7d85a2caae6cb21ba08adc3c5d76060604051602081526005602082015264139bc8125360da1b6040820152a2633615df3f60e11b905f90565b6001600160801b03978897610e41610e4194610e489961096d565b905561096d565b16166001600160801b0319825416179055610b97565b5083851015610b5d565b610e719161096d565b9c610b45565b97670de0b6b3a764000095610a7c565b506001600160801b035f97610a44565b505f90610a1f565b505f92610a08565b5050505050505090507fb832877a07ad76aefcc7841197355e83582db7d85a2caae6cb21ba08adc3c5d7606060405160208152600b60208201526a139bc81cdb985c1cda1bdd60aa1b6040820152a2633615df3f60e11b905f90565b600f0b6f7fffffffffffffffffffffffffffffff19811461093b575f0390565b9190820180921161093b57565b94909192936040840135955f8713156111ab57610f7b92610f50926111c0565b9260a0610f5d368561089b565b2090610f746020610f6d8361091a565b920161091a565b91856111f2565b928060801d5f81600f0b125f1461119c57610f9d6001600160801b0391610f03565b81165b1690600f0b5f811215611189576001600160801b0380610fc2610fce93610f03565b81165b16961692611251565b929095855f525f60205260405f20906005820193845460ff8160801c16155f14611086575082556001820155600281018790556003810184905542600490910155815470ffffffffffffffffffffffffffffffffff19166001600160801b0390911617600160801b1790556040805194855260208501919091526001600160a01b03909116927fd623cf7d687778117d420b65af0db855799832de09544cd85fe37afcf539ec459190a35b6327c18fbf60e21b905f90565b6001600160801b031698899692939285906110a1828a610f23565b80978194600288019b8c54906110b691610928565b916110c091610928565b6110c991610f23565b906110d39161094f565b8955600385019b8c54906110e691610928565b916110f091610928565b6110f991610f23565b906111039161094f565b895581549061111191610f23565b81556001019081549061112391610f23565b90556001600160801b03166001600160801b03166001600160801b03198254161790555492546040519384526020840152600160a01b60019003169160407fcf790d0ba9bb1e9e3e7aa5bc7d69d16ea900081c45238ad51bd6089c686ed45191a3611079565b50610fce6001600160801b03805f610fc5565b506001600160801b035f610fa0565b506327c18fbf60e21b965f9650945050505050565b91602082106111ec5750816020918101031261016657356001600160a01b038116908190036101665790565b91505090565b9290916040519260208401946bffffffffffffffffffffffff199060601b168552603484015260e81b605483015260e81b6057820152603a8152611237605a82610879565b51902090565b356001600160a01b03811681036101665790565b907f00000000000000000000000000000000000000000000000000000000000000006001600160a01b03168015611391576001600160a01b036112938461123d565b16926001600160a01b03906112aa9060200161123d565b169260405190631516778560e11b82526004820152604081602481855afa5f918161136f575b5061134e57506040670de0b6b3a7640000935b6024825180948193631516778560e11b835260048301525afa5f918161132c575b506113165750670de0b6b3a764000090565b801561131f5790565b50670de0b6b3a764000090565b61134691925060403d604011610d9e57610d8e8183610879565b50905f611304565b801561135e576040905b936112e3565b506040670de0b6b3a7640000611358565b61138991925060403d604011610d9e57610d8e8183610879565b50905f6112d0565b50670de0b6b3a76400009150819056fea26469706673582212208478d04125092e2435da3e9f4e2cfb8ef843ff4c22dd5bcef55639f8a405bee264736f6c634300081a0033","linkReferences":{}},"methodIdentifiers":{"afterAddLiquidity(address,(address,address,uint24,int24,address),(int24,int24,int256,bytes32),int256,int256,bytes)":"9f063efc","afterDonate(address,(address,address,uint24,int24,address),uint256,uint256,bytes)":"e1b4af69","afterInitialize(address,(address,address,uint24,int24,address),uint160,int24)":"6fe7e6eb","afterRemoveLiquidity(address,(address,address,uint24,int24,address),(int24,int24,int256,bytes32),int256,int256,bytes)":"6c2bbe7e","afterSwap(address,(address,address,uint24,int24,address),(bool,int256,uint160),int256,bytes)":"b47b2fb1","beforeAddLiquidity(address,(address,address,uint24,int24,address),(int24,int24,int256,bytes32),bytes)":"259982e5","beforeDonate(address,(address,address,uint24,int24,address),uint256,uint256,bytes)":"b6a8b0fa","beforeInitialize(address,(address,address,uint24,int24,address),uint160)":"dc98354e","beforeRemoveLiquidity(address,(address,address,uint24,int24,address),(int24,int24,int256,bytes32),bytes)":"21d0ee70","beforeSwap(address,(address,address,uint24,int24,address),(bool,int256,uint160),bytes)":"575e24b4","emergencyPause(bool)":"e8f6940e","getHookPermissions()":"c4e833ce","insuranceFund()":"b7902303","oracle()":"7dc0d1d0","owner()":"8da5cb5b","paused()":"5c975abb","poolManager()":"dc4c90d3","snapshots(bytes32)":"44474400","validateHookAddress()":"a9a091bb"},"id":64}