{"abi":[{"type":"constructor","inputs":[{"name":"_poolManager","type":"address","internalType":"contract IPoolManager"},{"name":"_owner","type":"address","internalType":"address"},{"name":"_feeRecipient","type":"address","internalType":"address"},{"name":"_insuranceFund","type":"address","internalType":"address"},{"name":"_oracle","type":"address","internalType":"address"},{"name":"_ethUsdFeed","type":"address","internalType":"address"}],"stateMutability":"nonpayable"},{"type":"function","name":"BPS_MAX","inputs":[],"outputs":[{"name":"","type":"uint256","internalType":"uint256"}],"stateMutability":"view"},{"type":"function","name":"TIMELOCK_DELAY","inputs":[],"outputs":[{"name":"","type":"uint256","internalType":"uint256"}],"stateMutability":"view"},{"type":"function","name":"afterAddLiquidity","inputs":[{"name":"","type":"address","internalType":"address"},{"name":"","type":"tuple","internalType":"struct PoolKey","components":[{"name":"currency0","type":"address","internalType":"Currency"},{"name":"currency1","type":"address","internalType":"Currency"},{"name":"fee","type":"uint24","internalType":"uint24"},{"name":"tickSpacing","type":"int24","internalType":"int24"},{"name":"hooks","type":"address","internalType":"contract IHooks"}]},{"name":"","type":"tuple","internalType":"struct ModifyLiquidityParams","components":[{"name":"tickLower","type":"int24","internalType":"int24"},{"name":"tickUpper","type":"int24","internalType":"int24"},{"name":"liquidityDelta","type":"int256","internalType":"int256"},{"name":"salt","type":"bytes32","internalType":"bytes32"}]},{"name":"","type":"int256","internalType":"BalanceDelta"},{"name":"","type":"int256","internalType":"BalanceDelta"},{"name":"","type":"bytes","internalType":"bytes"}],"outputs":[{"name":"","type":"bytes4","internalType":"bytes4"},{"name":"","type":"int256","internalType":"BalanceDelta"}],"stateMutability":"pure"},{"type":"function","name":"afterDonate","inputs":[{"name":"","type":"address","internalType":"address"},{"name":"","type":"tuple","internalType":"struct PoolKey","components":[{"name":"currency0","type":"address","internalType":"Currency"},{"name":"currency1","type":"address","internalType":"Currency"},{"name":"fee","type":"uint24","internalType":"uint24"},{"name":"tickSpacing","type":"int24","internalType":"int24"},{"name":"hooks","type":"address","internalType":"contract IHooks"}]},{"name":"","type":"uint256","internalType":"uint256"},{"name":"","type":"uint256","internalType":"uint256"},{"name":"","type":"bytes","internalType":"bytes"}],"outputs":[{"name":"","type":"bytes4","internalType":"bytes4"}],"stateMutability":"pure"},{"type":"function","name":"afterInitialize","inputs":[{"name":"","type":"address","internalType":"address"},{"name":"","type":"tuple","internalType":"struct PoolKey","components":[{"name":"currency0","type":"address","internalType":"Currency"},{"name":"currency1","type":"address","internalType":"Currency"},{"name":"fee","type":"uint24","internalType":"uint24"},{"name":"tickSpacing","type":"int24","internalType":"int24"},{"name":"hooks","type":"address","internalType":"contract IHooks"}]},{"name":"","type":"uint160","internalType":"uint160"},{"name":"","type":"int24","internalType":"int24"}],"outputs":[{"name":"","type":"bytes4","internalType":"bytes4"}],"stateMutability":"pure"},{"type":"function","name":"afterRemoveLiquidity","inputs":[{"name":"","type":"address","internalType":"address"},{"name":"","type":"tuple","internalType":"struct PoolKey","components":[{"name":"currency0","type":"address","internalType":"Currency"},{"name":"currency1","type":"address","internalType":"Currency"},{"name":"fee","type":"uint24","internalType":"uint24"},{"name":"tickSpacing","type":"int24","internalType":"int24"},{"name":"hooks","type":"address","internalType":"contract IHooks"}]},{"name":"","type":"tuple","internalType":"struct ModifyLiquidityParams","components":[{"name":"tickLower","type":"int24","internalType":"int24"},{"name":"tickUpper","type":"int24","internalType":"int24"},{"name":"liquidityDelta","type":"int256","internalType":"int256"},{"name":"salt","type":"bytes32","internalType":"bytes32"}]},{"name":"","type":"int256","internalType":"BalanceDelta"},{"name":"","type":"int256","internalType":"BalanceDelta"},{"name":"","type":"bytes","internalType":"bytes"}],"outputs":[{"name":"","type":"bytes4","internalType":"bytes4"},{"name":"","type":"int256","internalType":"BalanceDelta"}],"stateMutability":"pure"},{"type":"function","name":"afterSwap","inputs":[{"name":"","type":"address","internalType":"address"},{"name":"key","type":"tuple","internalType":"struct PoolKey","components":[{"name":"currency0","type":"address","internalType":"Currency"},{"name":"currency1","type":"address","internalType":"Currency"},{"name":"fee","type":"uint24","internalType":"uint24"},{"name":"tickSpacing","type":"int24","internalType":"int24"},{"name":"hooks","type":"address","internalType":"contract IHooks"}]},{"name":"","type":"tuple","internalType":"struct SwapParams","components":[{"name":"zeroForOne","type":"bool","internalType":"bool"},{"name":"amountSpecified","type":"int256","internalType":"int256"},{"name":"sqrtPriceLimitX96","type":"uint160","internalType":"uint160"}]},{"name":"delta","type":"int256","internalType":"BalanceDelta"},{"name":"","type":"bytes","internalType":"bytes"}],"outputs":[{"name":"","type":"bytes4","internalType":"bytes4"},{"name":"","type":"int128","internalType":"int128"}],"stateMutability":"nonpayable"},{"type":"function","name":"baseFee","inputs":[],"outputs":[{"name":"","type":"uint24","internalType":"uint24"}],"stateMutability":"view"},{"type":"function","name":"beforeAddLiquidity","inputs":[{"name":"","type":"address","internalType":"address"},{"name":"","type":"tuple","internalType":"struct PoolKey","components":[{"name":"currency0","type":"address","internalType":"Currency"},{"name":"currency1","type":"address","internalType":"Currency"},{"name":"fee","type":"uint24","internalType":"uint24"},{"name":"tickSpacing","type":"int24","internalType":"int24"},{"name":"hooks","type":"address","internalType":"contract IHooks"}]},{"name":"","type":"tuple","internalType":"struct ModifyLiquidityParams","components":[{"name":"tickLower","type":"int24","internalType":"int24"},{"name":"tickUpper","type":"int24","internalType":"int24"},{"name":"liquidityDelta","type":"int256","internalType":"int256"},{"name":"salt","type":"bytes32","internalType":"bytes32"}]},{"name":"","type":"bytes","internalType":"bytes"}],"outputs":[{"name":"","type":"bytes4","internalType":"bytes4"}],"stateMutability":"pure"},{"type":"function","name":"beforeDonate","inputs":[{"name":"","type":"address","internalType":"address"},{"name":"","type":"tuple","internalType":"struct PoolKey","components":[{"name":"currency0","type":"address","internalType":"Currency"},{"name":"currency1","type":"address","internalType":"Currency"},{"name":"fee","type":"uint24","internalType":"uint24"},{"name":"tickSpacing","type":"int24","internalType":"int24"},{"name":"hooks","type":"address","internalType":"contract IHooks"}]},{"name":"","type":"uint256","internalType":"uint256"},{"name":"","type":"uint256","internalType":"uint256"},{"name":"","type":"bytes","internalType":"bytes"}],"outputs":[{"name":"","type":"bytes4","internalType":"bytes4"}],"stateMutability":"pure"},{"type":"function","name":"beforeInitialize","inputs":[{"name":"","type":"address","internalType":"address"},{"name":"","type":"tuple","internalType":"struct PoolKey","components":[{"name":"currency0","type":"address","internalType":"Currency"},{"name":"currency1","type":"address","internalType":"Currency"},{"name":"fee","type":"uint24","internalType":"uint24"},{"name":"tickSpacing","type":"int24","internalType":"int24"},{"name":"hooks","type":"address","internalType":"contract IHooks"}]},{"name":"","type":"uint160","internalType":"uint160"}],"outputs":[{"name":"","type":"bytes4","internalType":"bytes4"}],"stateMutability":"pure"},{"type":"function","name":"beforeRemoveLiquidity","inputs":[{"name":"","type":"address","internalType":"address"},{"name":"","type":"tuple","internalType":"struct PoolKey","components":[{"name":"currency0","type":"address","internalType":"Currency"},{"name":"currency1","type":"address","internalType":"Currency"},{"name":"fee","type":"uint24","internalType":"uint24"},{"name":"tickSpacing","type":"int24","internalType":"int24"},{"name":"hooks","type":"address","internalType":"contract IHooks"}]},{"name":"","type":"tuple","internalType":"struct ModifyLiquidityParams","components":[{"name":"tickLower","type":"int24","internalType":"int24"},{"name":"tickUpper","type":"int24","internalType":"int24"},{"name":"liquidityDelta","type":"int256","internalType":"int256"},{"name":"salt","type":"bytes32","internalType":"bytes32"}]},{"name":"","type":"bytes","internalType":"bytes"}],"outputs":[{"name":"","type":"bytes4","internalType":"bytes4"}],"stateMutability":"pure"},{"type":"function","name":"beforeSwap","inputs":[{"name":"sender","type":"address","internalType":"address"},{"name":"key","type":"tuple","internalType":"struct PoolKey","components":[{"name":"currency0","type":"address","internalType":"Currency"},{"name":"currency1","type":"address","internalType":"Currency"},{"name":"fee","type":"uint24","internalType":"uint24"},{"name":"tickSpacing","type":"int24","internalType":"int24"},{"name":"hooks","type":"address","internalType":"contract IHooks"}]},{"name":"params","type":"tuple","internalType":"struct SwapParams","components":[{"name":"zeroForOne","type":"bool","internalType":"bool"},{"name":"amountSpecified","type":"int256","internalType":"int256"},{"name":"sqrtPriceLimitX96","type":"uint160","internalType":"uint160"}]},{"name":"","type":"bytes","internalType":"bytes"}],"outputs":[{"name":"","type":"bytes4","internalType":"bytes4"},{"name":"","type":"int256","internalType":"BeforeSwapDelta"},{"name":"","type":"uint24","internalType":"uint24"}],"stateMutability":"nonpayable"},{"type":"function","name":"emergencyPause","inputs":[{"name":"_pause","type":"bool","internalType":"bool"}],"outputs":[],"stateMutability":"nonpayable"},{"type":"function","name":"ethUsdFeed","inputs":[],"outputs":[{"name":"","type":"address","internalType":"contract AggregatorV3Interface"}],"stateMutability":"view"},{"type":"function","name":"executeOracleUpdate","inputs":[{"name":"newOracle","type":"address","internalType":"address"}],"outputs":[],"stateMutability":"nonpayable"},{"type":"function","name":"feeRecipient","inputs":[],"outputs":[{"name":"","type":"address","internalType":"address"}],"stateMutability":"view"},{"type":"function","name":"getCurrentFee","inputs":[{"name":"poolId","type":"bytes32","internalType":"PoolId"}],"outputs":[{"name":"","type":"uint24","internalType":"uint24"}],"stateMutability":"view"},{"type":"function","name":"getHookPermissions","inputs":[],"outputs":[{"name":"","type":"tuple","internalType":"struct Hooks.Permissions","components":[{"name":"beforeInitialize","type":"bool","internalType":"bool"},{"name":"afterInitialize","type":"bool","internalType":"bool"},{"name":"beforeAddLiquidity","type":"bool","internalType":"bool"},{"name":"afterAddLiquidity","type":"bool","internalType":"bool"},{"name":"beforeRemoveLiquidity","type":"bool","internalType":"bool"},{"name":"afterRemoveLiquidity","type":"bool","internalType":"bool"},{"name":"beforeSwap","type":"bool","internalType":"bool"},{"name":"afterSwap","type":"bool","internalType":"bool"},{"name":"beforeDonate","type":"bool","internalType":"bool"},{"name":"afterDonate","type":"bool","internalType":"bool"},{"name":"beforeSwapReturnDelta","type":"bool","internalType":"bool"},{"name":"afterSwapReturnDelta","type":"bool","internalType":"bool"},{"name":"afterAddLiquidityReturnDelta","type":"bool","internalType":"bool"},{"name":"afterRemoveLiquidityReturnDelta","type":"bool","internalType":"bool"}]}],"stateMutability":"pure"},{"type":"function","name":"insuranceFund","inputs":[],"outputs":[{"name":"","type":"address","internalType":"contract IInsuranceFund"}],"stateMutability":"view"},{"type":"function","name":"mevThresholdBps","inputs":[],"outputs":[{"name":"","type":"uint256","internalType":"uint256"}],"stateMutability":"view"},{"type":"function","name":"oracle","inputs":[],"outputs":[{"name":"","type":"address","internalType":"contract IXenorizeOracle"}],"stateMutability":"view"},{"type":"function","name":"oracleMaxAge","inputs":[],"outputs":[{"name":"","type":"uint256","internalType":"uint256"}],"stateMutability":"view"},{"type":"function","name":"owner","inputs":[],"outputs":[{"name":"","type":"address","internalType":"address"}],"stateMutability":"view"},{"type":"function","name":"paused","inputs":[],"outputs":[{"name":"","type":"bool","internalType":"bool"}],"stateMutability":"view"},{"type":"function","name":"pendingChanges","inputs":[{"name":"","type":"bytes32","internalType":"bytes32"}],"outputs":[{"name":"","type":"uint256","internalType":"uint256"}],"stateMutability":"view"},{"type":"function","name":"poolFeeState","inputs":[{"name":"","type":"bytes32","internalType":"PoolId"}],"outputs":[{"name":"baseFee","type":"uint24","internalType":"uint24"},{"name":"currentDynamicFee","type":"uint24","internalType":"uint24"},{"name":"volatilityIndex","type":"uint256","internalType":"uint256"},{"name":"lastFeeUpdate","type":"uint256","internalType":"uint256"},{"name":"mevPremium","type":"uint256","internalType":"uint256"}],"stateMutability":"view"},{"type":"function","name":"poolManager","inputs":[],"outputs":[{"name":"","type":"address","internalType":"contract IPoolManager"}],"stateMutability":"view"},{"type":"function","name":"poolTVLUSD","inputs":[{"name":"","type":"bytes32","internalType":"PoolId"}],"outputs":[{"name":"","type":"uint256","internalType":"uint256"}],"stateMutability":"view"},{"type":"function","name":"previewFee","inputs":[{"name":"poolId","type":"bytes32","internalType":"PoolId"},{"name":"swapAmountUSD","type":"uint256","internalType":"uint256"},{"name":"mevDetected","type":"bool","internalType":"bool"}],"outputs":[{"name":"","type":"uint24","internalType":"uint24"}],"stateMutability":"view"},{"type":"function","name":"queueOracleUpdate","inputs":[{"name":"newOracle","type":"address","internalType":"address"}],"outputs":[],"stateMutability":"nonpayable"},{"type":"function","name":"targetVolBps","inputs":[],"outputs":[{"name":"","type":"uint256","internalType":"uint256"}],"stateMutability":"view"},{"type":"function","name":"updatePoolTVL","inputs":[{"name":"poolId","type":"bytes32","internalType":"PoolId"},{"name":"tvlUSD","type":"uint256","internalType":"uint256"}],"outputs":[],"stateMutability":"nonpayable"},{"type":"function","name":"validateHookAddress","inputs":[],"outputs":[{"name":"","type":"bool","internalType":"bool"}],"stateMutability":"view"},{"type":"event","name":"EmergencyPause","inputs":[{"name":"paused","type":"bool","indexed":false,"internalType":"bool"}],"anonymous":false},{"type":"event","name":"FeeUpdated","inputs":[{"name":"poolId","type":"bytes32","indexed":true,"internalType":"PoolId"},{"name":"oldFee","type":"uint24","indexed":false,"internalType":"uint24"},{"name":"newFee","type":"uint24","indexed":false,"internalType":"uint24"}],"anonymous":false},{"type":"event","name":"MEVDetected","inputs":[{"name":"poolId","type":"bytes32","indexed":true,"internalType":"PoolId"},{"name":"swapper","type":"address","indexed":true,"internalType":"address"},{"name":"premiumBps","type":"uint256","indexed":false,"internalType":"uint256"}],"anonymous":false},{"type":"event","name":"MEVFeeRouted","inputs":[{"name":"poolId","type":"bytes32","indexed":true,"internalType":"PoolId"},{"name":"amount","type":"uint256","indexed":false,"internalType":"uint256"}],"anonymous":false},{"type":"event","name":"OracleUpdated","inputs":[{"name":"oldOracle","type":"address","indexed":true,"internalType":"address"},{"name":"newOracle","type":"address","indexed":true,"internalType":"address"}],"anonymous":false},{"type":"event","name":"ParameterQueued","inputs":[{"name":"paramHash","type":"bytes32","indexed":true,"internalType":"bytes32"},{"name":"executeTime","type":"uint256","indexed":false,"internalType":"uint256"}],"anonymous":false},{"type":"error","name":"Xenorize__EmergencyPaused","inputs":[]},{"type":"error","name":"Xenorize__TimelockNotElapsed","inputs":[{"name":"available","type":"uint256","internalType":"uint256"},{"name":"current","type":"uint256","internalType":"uint256"}]},{"type":"error","name":"Xenorize__Unauthorized","inputs":[{"name":"caller","type":"address","internalType":"address"},{"name":"required","type":"address","internalType":"address"}]},{"type":"error","name":"Xenorize__ZeroAddress","inputs":[]}],"bytecode":{"object":"0x610100346101a057601f61176b38819003918201601f19168301916001600160401b038311848410176101a45780849260c0946040528339810103126101a05780516001600160a01b03811691908281036101a057610060602083016101b8565b61006c604084016101b8565b90610079606085016101b8565b9261009260a061008b608088016101b8565b96016101b8565b95601e62ffffff196006541617600655610bb8600755610e10600855603260095515801561018f575b801561017e575b61016f5760805260a05260c0526001600160a01b0390811660e0525f80546001600160a01b031990811693831693909317905560018054909216921691909117905560405161159e90816101cd8239608051818181610285015281816104bb0152610a94015260a0518181816101b00152818161092601528181610cff0152610e82015260c05181610c99015260e051818181610433015281816106320152818161077d015261082a0152f35b630aaffdf760e31b5f5260045ffd5b506001600160a01b038316156100c2565b506001600160a01b038216156100bb565b5f80fd5b634e487b7160e01b5f52604160045260245ffd5b51906001600160a01b03821682036101a05756fe60806040526004361015610011575f80fd5b5f803560e01c8063016ef12414610f825780630984879514610f5b5780630cffe82014610e675780630dfc229e14610e4a5780630fac2e9814610e2057806321d0ee7014610e1b578063259982e514610e1b578063365ceaa314610dbf5780633acaa85614610ce45780633eb6e84614610cc85780634690484014610c845780634dda551814610c5a578063575e24b414610a3d5780635ba1c1a914610a205780635c975abb146109fe5780636c2bbe7e146108a05780636ef25c3a146109dc5780636fe7e6eb146109a45780637dc0d1d01461097d5780638009b7bd146109555780638da5cb5b14610911578063992d845e146108f45780639c1f9c03146108c25780639c56b272146108a55780639f063efc146108a0578063a9a091bb1461087f578063b47b2fb114610462578063b6a8b0fa1461023b578063b79023031461041d578063c4e833ce146102b4578063dc4c90d31461026f578063dc98354e14610240578063e1b4af691461023b5763e8f6940e14610190575f80fd5b3461023857602036600319011261023857600435801515809103610234577f00000000000000000000000000000000000000000000000000000000000000006001600160a01b03163381900361021e575060207fb80d1ae5628c2af91424c54c87acfd15016be4bebeef0425b328238702f348319160ff19600a541660ff821617600a55604051908152a180f35b630cc657bb60e41b835233600452602452604482fd5b5080fd5b80fd5b611109565b50346102385760e03660031901126102385761025a610fe1565b5060a0366023190112610238576102346110e3565b50346102385780600319360112610238576040517f00000000000000000000000000000000000000000000000000000000000000006001600160a01b03168152602090f35b5034610238578060031936011261023857806101c0916101a06040516102d98161118c565b8281528260208201528260408201528260608201528260808201528260a08201528260c08201528260e082015282610100820152826101208201528261014082015282610160820152826101808201520152604051906103388261118c565b808252602082019181835260408101828152606082018381526080830184815260a0840185815260c085016001815260e0860190600182526101008701928884526101208801948986526101408901968a88526101608a01988b8a526101a06101808c019b8d8d52019b808d5260206040519e8f92835251151591015251151560408d015251151560608c015251151560808b015251151560a08a015251151560c089015251151560e08801525115156101008701525115156101208601525115156101408501525115156101608401525115156101808301525115156101a0820152f35b50346102385780600319360112610238576040517f00000000000000000000000000000000000000000000000000000000000000006001600160a01b03168152602090f35b5034610763576101603660031901126107635761047d610fe1565b5060a03660231901126107635760603660c3190112610763576101443567ffffffffffffffff8111610763576104b7903690600401610ff7565b50507f00000000000000000000000000000000000000000000000000000000000000006001600160a01b031690338290036108685760ff600a54166108595760a0610501366111ec565b20805f52600560205260ff60405f20541661052e575b6040805163b47b2fb160e01b815260208101849052f35b805f52600560205260405f2060ff19815416905561012435600f0b5f811280610827575b61055d575b50610517565b6f7fffffffffffffffffffffffffffffff198114610813576fffffffffffffffffffffffffffffffff905f0316603281029080820460321490151715610813576127109004926001600160a01b036105b36112a2565b169084151580610767575b6105c9575b50610557565b6105d16112a2565b813b1561076357604051630b0d9c0960e01b81526001600160a01b03909116600482015230602482015260448101869052905f908290606490829084905af1908161074e575b50610623575b806105c3565b60405163095ea7b360e01b81527f00000000000000000000000000000000000000000000000000000000000000006001600160a01b03166004820181905260248201869052916020908290604490829088905af180156107435761070b575b50803b156107075782809160246040518094819363211e242d60e11b83528960048401525af180156106fc576106e7575b507f853c0105383e59724bdd4c2a7793fbabf2738e5a10dd6e83e3defb0c786d5e4f60206040948551908152a25f8061061d565b6106f28380926111bd565b610234575f6106b3565b6040513d85823e3d90fd5b8280fd5b6020813d60201161073b575b81610724602093836111bd565b8101031261073757518015158114610682575b8380fd5b3d9150610717565b6040513d86823e3d90fd5b61075b9194505f906111bd565b5f925f610617565b5f80fd5b506040516338d52e0f60e01b81526020816004817f00000000000000000000000000000000000000000000000000000000000000006001600160a01b03165afa908115610808575f916107c6575b506001600160a01b031682146105be565b90506020813d602011610800575b816107e1602093836111bd565b8101031261076357516001600160a01b0381168103610763575f6107b5565b3d91506107d4565b6040513d5f823e3d90fd5b634e487b7160e01b5f52601160045260245ffd5b507f00000000000000000000000000000000000000000000000000000000000000006001600160a01b03161515610552565b6311b6a2fb60e31b5f5260045ffd5b50630cc657bb60e41b5f523360045260245260445ffd5b34610763575f36600319011261076357602060405160c0613fff3016148152f35b611084565b34610763575f366003190112610763576020600854604051908152f35b34610763576020366003190112610763576004355f526002602052602062ffffff60405f205460181c16604051908152f35b34610763575f366003190112610763576020600754604051908152f35b34610763575f366003190112610763576040517f00000000000000000000000000000000000000000000000000000000000000006001600160a01b03168152602090f35b34610763575f366003190112610763576001546040516001600160a01b039091168152602090f35b34610763575f366003190112610763575f546040516001600160a01b039091168152602090f35b3461076357610100366003190112610763576109be610fe1565b5060a0366023190112610763576109d36110e3565b506107636110f9565b34610763575f36600319011261076357602062ffffff60065416604051908152f35b34610763575f36600319011261076357602060ff600a54166040519015158152f35b34610763575f3660031901126107635760206040516202a3008152f35b346107635761014036600319011261076357610a57610fe1565b60a03660231901126107635760603660c3190112610763576101243567ffffffffffffffff811161076357610a90903690600401610ff7565b50507f00000000000000000000000000000000000000000000000000000000000000006001600160a01b031633819003610c44575060ff600a54166108595760609060a0610add366111ec565b2090610ae8826112b8565b91610af1611409565b81610b21610aff8383611509565b809362ffffff6006541690600754855f5260036020528960405f205493611340565b94815f52600260205260405f2080549062ffffff8260181c169262ffffff89169265ffffff0000008a60181b169065ffffff00000019161782556001820155426002820155845f14610c3a57600360ff60325b16910155818103610c02575b505050610baf575b505062ffffff62400000604051926315d7892d60e21b84525f602085015217166040820152f35b805f52600560205260405f20600160ff198254161790557fb7e199befe76eeec86702c95ffe7f47470b63887e3d1355fb728d9ded3d9c3ca6020604051936032855260018060a01b031693a38280610b88565b7f96a011a1e8a72dbc16d5af5d8f0db6bf107a76580682a94073bb6ffec86a08729160409182519182526020820152a2818680610b80565b600360ff5f610b74565b630cc657bb60e41b5f523360045260245260445ffd5b34610763576020366003190112610763576004355f526004602052602060405f2054604051908152f35b34610763575f366003190112610763576040517f00000000000000000000000000000000000000000000000000000000000000006001600160a01b03168152602090f35b34610763575f3660031901126107635760206040516127108152f35b3461076357602036600319011261076357610cfd610fe1565b7f00000000000000000000000000000000000000000000000000000000000000006001600160a01b031633819003610c4457506001600160a01b03811615610db057604051610d6281610d5460208201948561115c565b03601f1981018352826111bd565b5190206202a3004201804211610813575f8281526004602090815260409182902083905590519182527fdad4f872e8a68f7f8b3b57e2d403321c10a2f79c9f992a5a2a3500023ec5ed5e91a2005b630aaffdf760e31b5f5260045ffd5b34610763576020366003190112610763576004355f52600260205260a060405f20805490600181015490600360028201549101549162ffffff60405194818116865260181c166020850152604084015260608301526080820152f35b611025565b34610763576020366003190112610763576004355f526003602052602060405f2054604051908152f35b34610763575f366003190112610763576020600954604051908152f35b3461076357602036600319011261076357610e80610fe1565b7f00000000000000000000000000000000000000000000000000000000000000006001600160a01b031633819003610c4457506040516020810190610ec981610d54858561115c565b519020805f52600460205260405f205480158015610f52575b610f3c57505f90815260046020526040812081905580546001600160a01b039283166001600160a01b03198216811783559216907f078c3b417dadf69374a59793b829c52001247130433427049317bde56607b1b79080a3005b630fdffeaf60e11b5f526004524260245260445ffd5b50804210610ee2565b34610763576040366003190112610763576004355f52600360205260243560405f20555f80f35b3461076357606036600319011261076357604435600435811515820361076357602091610fd49162ffffff60065416610fba826112b8565b91600754905f526003865260405f20549260243592611340565b62ffffff60405191168152f35b600435906001600160a01b038216820361076357565b9181601f840112156107635782359167ffffffffffffffff8311610763576020838186019501011161076357565b3461076357610160366003190112610763576004356001600160a01b0381168103610763575060a03660231901126107635760803660c3190112610763576101443567ffffffffffffffff811161076357610763903690600401610ff7565b34610763576101a0366003190112610763576004356001600160a01b0381168103610763575060a03660231901126107635760803660c3190112610763576101843567ffffffffffffffff811161076357610763903690600401610ff7565b60c435906001600160a01b038216820361076357565b60e435908160020b820361076357565b3461076357610120366003190112610763576004356001600160a01b0381168103610763575060a0366023190112610763576101043567ffffffffffffffff811161076357610763903690600401610ff7565b6040808252600690820152656f7261636c6560d01b60608201526001600160a01b03909116602082015260800190565b6101c0810190811067ffffffffffffffff8211176111a957604052565b634e487b7160e01b5f52604160045260245ffd5b90601f8019910116810190811067ffffffffffffffff8211176111a957604052565b9190820180921161081357565b60a0906023190112610763576040519060a0820182811067ffffffffffffffff8211176111a957604052816024356001600160a01b03811681036107635781526044356001600160a01b038116810361076357602082015260643562ffffff811681036107635760408201526084358060020b810361076357606082015260a435906001600160a01b03821682036107635760800152565b811561128e570490565b634e487b7160e01b5f52601260045260245ffd5b6044356001600160a01b03811681036107635790565b5f546001600160a01b031690816112d2575b505060075490565b6020906024604051809481936305fd633360e21b835260048301525afa5f918161130c575b50611303575b806112ca565b80156112fd5790565b9091506020813d602011611338575b81611328602093836111bd565b810103126107635751905f6112f7565b3d915061131b565b62ffffff169493918082116113e7575b505080611398575b5050611378575b612710811115611370575061271090565b62ffffff1690565b603281018091111561135f57634e487b7160e01b5f52601160045260245ffd5b6127108202918083046127101490151715610813576113b691611284565b606481116113c5575b80611358565b909160631982019182116108135760056113e09204906111df565b905f6113bf565b919491810391908211610813576114019160011c906111df565b925f80611350565b60e4355f81121561150457600160ff1b8114610813575f035b5f546001600160a01b031680156115005760c435801515810361076357156114e5576024356001600160a01b0381168103610763576040905b8151631516778560e11b81526001600160a01b03909116600482015291829060249082905afa5f91816114b1575b50611492575090565b9081810291818304149015171561081357670de0b6b3a7640000900490565b9091506040813d6040116114dd575b816114cd604093836111bd565b810103126107635751905f611489565b3d91506114c0565b6044356001600160a01b03811681036107635760409061145b565b5090565b611422565b90815f52600360205260405f20541561156257612710810290808204612710149015171561081357611547915f52600360205260405f205490611284565b60095490600a820291808304600a1490151715610813571190565b50505f9056fea26469706673582212205a152fdfb4b97a3d09f059bc817db6c9e6e15e723a2ee409a902be0e0a512dfe64736f6c634300081a0033","linkReferences":{}},"methodIdentifiers":{"BPS_MAX()":"3eb6e846","TIMELOCK_DELAY()":"5ba1c1a9","afterAddLiquidity(address,(address,address,uint24,int24,address),(int24,int24,int256,bytes32),int256,int256,bytes)":"9f063efc","afterDonate(address,(address,address,uint24,int24,address),uint256,uint256,bytes)":"e1b4af69","afterInitialize(address,(address,address,uint24,int24,address),uint160,int24)":"6fe7e6eb","afterRemoveLiquidity(address,(address,address,uint24,int24,address),(int24,int24,int256,bytes32),int256,int256,bytes)":"6c2bbe7e","afterSwap(address,(address,address,uint24,int24,address),(bool,int256,uint160),int256,bytes)":"b47b2fb1","baseFee()":"6ef25c3a","beforeAddLiquidity(address,(address,address,uint24,int24,address),(int24,int24,int256,bytes32),bytes)":"259982e5","beforeDonate(address,(address,address,uint24,int24,address),uint256,uint256,bytes)":"b6a8b0fa","beforeInitialize(address,(address,address,uint24,int24,address),uint160)":"dc98354e","beforeRemoveLiquidity(address,(address,address,uint24,int24,address),(int24,int24,int256,bytes32),bytes)":"21d0ee70","beforeSwap(address,(address,address,uint24,int24,address),(bool,int256,uint160),bytes)":"575e24b4","emergencyPause(bool)":"e8f6940e","ethUsdFeed()":"8009b7bd","executeOracleUpdate(address)":"0cffe820","feeRecipient()":"46904840","getCurrentFee(bytes32)":"9c1f9c03","getHookPermissions()":"c4e833ce","insuranceFund()":"b7902303","mevThresholdBps()":"0dfc229e","oracle()":"7dc0d1d0","oracleMaxAge()":"9c56b272","owner()":"8da5cb5b","paused()":"5c975abb","pendingChanges(bytes32)":"4dda5518","poolFeeState(bytes32)":"365ceaa3","poolManager()":"dc4c90d3","poolTVLUSD(bytes32)":"0fac2e98","previewFee(bytes32,uint256,bool)":"016ef124","queueOracleUpdate(address)":"3acaa856","targetVolBps()":"992d845e","updatePoolTVL(bytes32,uint256)":"09848795","validateHookAddress()":"a9a091bb"},"id":63}