{"abi":[{"type":"constructor","inputs":[{"name":"_poolManager","type":"address","internalType":"contract IPoolManager"},{"name":"_owner","type":"address","internalType":"address"},{"name":"_feeRecipient","type":"address","internalType":"address"},{"name":"_insuranceFund","type":"address","internalType":"address"},{"name":"_oracle","type":"address","internalType":"address"},{"name":"_ethUsdFeed","type":"address","internalType":"address"}],"stateMutability":"nonpayable"},{"type":"function","name":"BPS_MAX","inputs":[],"outputs":[{"name":"","type":"uint256","internalType":"uint256"}],"stateMutability":"view"},{"type":"function","name":"TIMELOCK_DELAY","inputs":[],"outputs":[{"name":"","type":"uint256","internalType":"uint256"}],"stateMutability":"view"},{"type":"function","name":"afterAddLiquidity","inputs":[{"name":"","type":"address","internalType":"address"},{"name":"","type":"tuple","internalType":"struct PoolKey","components":[{"name":"currency0","type":"address","internalType":"Currency"},{"name":"currency1","type":"address","internalType":"Currency"},{"name":"fee","type":"uint24","internalType":"uint24"},{"name":"tickSpacing","type":"int24","internalType":"int24"},{"name":"hooks","type":"address","internalType":"contract IHooks"}]},{"name":"","type":"tuple","internalType":"struct IPoolManager.ModifyLiquidityParams","components":[{"name":"tickLower","type":"int24","internalType":"int24"},{"name":"tickUpper","type":"int24","internalType":"int24"},{"name":"liquidityDelta","type":"int256","internalType":"int256"},{"name":"salt","type":"bytes32","internalType":"bytes32"}]},{"name":"","type":"int256","internalType":"BalanceDelta"},{"name":"","type":"int256","internalType":"BalanceDelta"},{"name":"","type":"bytes","internalType":"bytes"}],"outputs":[{"name":"","type":"bytes4","internalType":"bytes4"},{"name":"","type":"int256","internalType":"BalanceDelta"}],"stateMutability":"pure"},{"type":"function","name":"afterDonate","inputs":[{"name":"","type":"address","internalType":"address"},{"name":"","type":"tuple","internalType":"struct PoolKey","components":[{"name":"currency0","type":"address","internalType":"Currency"},{"name":"currency1","type":"address","internalType":"Currency"},{"name":"fee","type":"uint24","internalType":"uint24"},{"name":"tickSpacing","type":"int24","internalType":"int24"},{"name":"hooks","type":"address","internalType":"contract IHooks"}]},{"name":"","type":"uint256","internalType":"uint256"},{"name":"","type":"uint256","internalType":"uint256"},{"name":"","type":"bytes","internalType":"bytes"}],"outputs":[{"name":"","type":"bytes4","internalType":"bytes4"}],"stateMutability":"pure"},{"type":"function","name":"afterInitialize","inputs":[{"name":"","type":"address","internalType":"address"},{"name":"","type":"tuple","internalType":"struct PoolKey","components":[{"name":"currency0","type":"address","internalType":"Currency"},{"name":"currency1","type":"address","internalType":"Currency"},{"name":"fee","type":"uint24","internalType":"uint24"},{"name":"tickSpacing","type":"int24","internalType":"int24"},{"name":"hooks","type":"address","internalType":"contract IHooks"}]},{"name":"","type":"uint160","internalType":"uint160"},{"name":"","type":"int24","internalType":"int24"}],"outputs":[{"name":"","type":"bytes4","internalType":"bytes4"}],"stateMutability":"pure"},{"type":"function","name":"afterRemoveLiquidity","inputs":[{"name":"","type":"address","internalType":"address"},{"name":"","type":"tuple","internalType":"struct PoolKey","components":[{"name":"currency0","type":"address","internalType":"Currency"},{"name":"currency1","type":"address","internalType":"Currency"},{"name":"fee","type":"uint24","internalType":"uint24"},{"name":"tickSpacing","type":"int24","internalType":"int24"},{"name":"hooks","type":"address","internalType":"contract IHooks"}]},{"name":"","type":"tuple","internalType":"struct IPoolManager.ModifyLiquidityParams","components":[{"name":"tickLower","type":"int24","internalType":"int24"},{"name":"tickUpper","type":"int24","internalType":"int24"},{"name":"liquidityDelta","type":"int256","internalType":"int256"},{"name":"salt","type":"bytes32","internalType":"bytes32"}]},{"name":"","type":"int256","internalType":"BalanceDelta"},{"name":"","type":"int256","internalType":"BalanceDelta"},{"name":"","type":"bytes","internalType":"bytes"}],"outputs":[{"name":"","type":"bytes4","internalType":"bytes4"},{"name":"","type":"int256","internalType":"BalanceDelta"}],"stateMutability":"pure"},{"type":"function","name":"afterSwap","inputs":[{"name":"","type":"address","internalType":"address"},{"name":"key","type":"tuple","internalType":"struct PoolKey","components":[{"name":"currency0","type":"address","internalType":"Currency"},{"name":"currency1","type":"address","internalType":"Currency"},{"name":"fee","type":"uint24","internalType":"uint24"},{"name":"tickSpacing","type":"int24","internalType":"int24"},{"name":"hooks","type":"address","internalType":"contract IHooks"}]},{"name":"","type":"tuple","internalType":"struct IPoolManager.SwapParams","components":[{"name":"zeroForOne","type":"bool","internalType":"bool"},{"name":"amountSpecified","type":"int256","internalType":"int256"},{"name":"sqrtPriceLimitX96","type":"uint160","internalType":"uint160"}]},{"name":"delta","type":"int256","internalType":"BalanceDelta"},{"name":"","type":"bytes","internalType":"bytes"}],"outputs":[{"name":"","type":"bytes4","internalType":"bytes4"},{"name":"","type":"int128","internalType":"int128"}],"stateMutability":"nonpayable"},{"type":"function","name":"baseFee","inputs":[],"outputs":[{"name":"","type":"uint24","internalType":"uint24"}],"stateMutability":"view"},{"type":"function","name":"beforeAddLiquidity","inputs":[{"name":"","type":"address","internalType":"address"},{"name":"","type":"tuple","internalType":"struct PoolKey","components":[{"name":"currency0","type":"address","internalType":"Currency"},{"name":"currency1","type":"address","internalType":"Currency"},{"name":"fee","type":"uint24","internalType":"uint24"},{"name":"tickSpacing","type":"int24","internalType":"int24"},{"name":"hooks","type":"address","internalType":"contract IHooks"}]},{"name":"","type":"tuple","internalType":"struct IPoolManager.ModifyLiquidityParams","components":[{"name":"tickLower","type":"int24","internalType":"int24"},{"name":"tickUpper","type":"int24","internalType":"int24"},{"name":"liquidityDelta","type":"int256","internalType":"int256"},{"name":"salt","type":"bytes32","internalType":"bytes32"}]},{"name":"","type":"bytes","internalType":"bytes"}],"outputs":[{"name":"","type":"bytes4","internalType":"bytes4"}],"stateMutability":"pure"},{"type":"function","name":"beforeDonate","inputs":[{"name":"","type":"address","internalType":"address"},{"name":"","type":"tuple","internalType":"struct PoolKey","components":[{"name":"currency0","type":"address","internalType":"Currency"},{"name":"currency1","type":"address","internalType":"Currency"},{"name":"fee","type":"uint24","internalType":"uint24"},{"name":"tickSpacing","type":"int24","internalType":"int24"},{"name":"hooks","type":"address","internalType":"contract IHooks"}]},{"name":"","type":"uint256","internalType":"uint256"},{"name":"","type":"uint256","internalType":"uint256"},{"name":"","type":"bytes","internalType":"bytes"}],"outputs":[{"name":"","type":"bytes4","internalType":"bytes4"}],"stateMutability":"pure"},{"type":"function","name":"beforeInitialize","inputs":[{"name":"","type":"address","internalType":"address"},{"name":"","type":"tuple","internalType":"struct PoolKey","components":[{"name":"currency0","type":"address","internalType":"Currency"},{"name":"currency1","type":"address","internalType":"Currency"},{"name":"fee","type":"uint24","internalType":"uint24"},{"name":"tickSpacing","type":"int24","internalType":"int24"},{"name":"hooks","type":"address","internalType":"contract IHooks"}]},{"name":"","type":"uint160","internalType":"uint160"}],"outputs":[{"name":"","type":"bytes4","internalType":"bytes4"}],"stateMutability":"pure"},{"type":"function","name":"beforeRemoveLiquidity","inputs":[{"name":"","type":"address","internalType":"address"},{"name":"","type":"tuple","internalType":"struct PoolKey","components":[{"name":"currency0","type":"address","internalType":"Currency"},{"name":"currency1","type":"address","internalType":"Currency"},{"name":"fee","type":"uint24","internalType":"uint24"},{"name":"tickSpacing","type":"int24","internalType":"int24"},{"name":"hooks","type":"address","internalType":"contract IHooks"}]},{"name":"","type":"tuple","internalType":"struct IPoolManager.ModifyLiquidityParams","components":[{"name":"tickLower","type":"int24","internalType":"int24"},{"name":"tickUpper","type":"int24","internalType":"int24"},{"name":"liquidityDelta","type":"int256","internalType":"int256"},{"name":"salt","type":"bytes32","internalType":"bytes32"}]},{"name":"","type":"bytes","internalType":"bytes"}],"outputs":[{"name":"","type":"bytes4","internalType":"bytes4"}],"stateMutability":"pure"},{"type":"function","name":"beforeSwap","inputs":[{"name":"sender","type":"address","internalType":"address"},{"name":"key","type":"tuple","internalType":"struct PoolKey","components":[{"name":"currency0","type":"address","internalType":"Currency"},{"name":"currency1","type":"address","internalType":"Currency"},{"name":"fee","type":"uint24","internalType":"uint24"},{"name":"tickSpacing","type":"int24","internalType":"int24"},{"name":"hooks","type":"address","internalType":"contract IHooks"}]},{"name":"params","type":"tuple","internalType":"struct IPoolManager.SwapParams","components":[{"name":"zeroForOne","type":"bool","internalType":"bool"},{"name":"amountSpecified","type":"int256","internalType":"int256"},{"name":"sqrtPriceLimitX96","type":"uint160","internalType":"uint160"}]},{"name":"","type":"bytes","internalType":"bytes"}],"outputs":[{"name":"","type":"bytes4","internalType":"bytes4"},{"name":"","type":"int256","internalType":"BeforeSwapDelta"},{"name":"","type":"uint24","internalType":"uint24"}],"stateMutability":"nonpayable"},{"type":"function","name":"emergencyPause","inputs":[{"name":"_pause","type":"bool","internalType":"bool"}],"outputs":[],"stateMutability":"nonpayable"},{"type":"function","name":"ethUsdFeed","inputs":[],"outputs":[{"name":"","type":"address","internalType":"contract AggregatorV3Interface"}],"stateMutability":"view"},{"type":"function","name":"executeOracleUpdate","inputs":[{"name":"newOracle","type":"address","internalType":"address"}],"outputs":[],"stateMutability":"nonpayable"},{"type":"function","name":"feeRecipient","inputs":[],"outputs":[{"name":"","type":"address","internalType":"address"}],"stateMutability":"view"},{"type":"function","name":"getCurrentFee","inputs":[{"name":"poolId","type":"bytes32","internalType":"PoolId"}],"outputs":[{"name":"","type":"uint24","internalType":"uint24"}],"stateMutability":"view"},{"type":"function","name":"getHookPermissions","inputs":[],"outputs":[{"name":"","type":"tuple","internalType":"struct Hooks.Permissions","components":[{"name":"beforeInitialize","type":"bool","internalType":"bool"},{"name":"afterInitialize","type":"bool","internalType":"bool"},{"name":"beforeAddLiquidity","type":"bool","internalType":"bool"},{"name":"afterAddLiquidity","type":"bool","internalType":"bool"},{"name":"beforeRemoveLiquidity","type":"bool","internalType":"bool"},{"name":"afterRemoveLiquidity","type":"bool","internalType":"bool"},{"name":"beforeSwap","type":"bool","internalType":"bool"},{"name":"afterSwap","type":"bool","internalType":"bool"},{"name":"beforeDonate","type":"bool","internalType":"bool"},{"name":"afterDonate","type":"bool","internalType":"bool"},{"name":"beforeSwapReturnDelta","type":"bool","internalType":"bool"},{"name":"afterSwapReturnDelta","type":"bool","internalType":"bool"},{"name":"afterAddLiquidityReturnDelta","type":"bool","internalType":"bool"},{"name":"afterRemoveLiquidityReturnDelta","type":"bool","internalType":"bool"}]}],"stateMutability":"pure"},{"type":"function","name":"insuranceFund","inputs":[],"outputs":[{"name":"","type":"address","internalType":"contract IInsuranceFund"}],"stateMutability":"view"},{"type":"function","name":"mevThresholdBps","inputs":[],"outputs":[{"name":"","type":"uint256","internalType":"uint256"}],"stateMutability":"view"},{"type":"function","name":"oracle","inputs":[],"outputs":[{"name":"","type":"address","internalType":"contract IXenorizeOracle"}],"stateMutability":"view"},{"type":"function","name":"oracleMaxAge","inputs":[],"outputs":[{"name":"","type":"uint256","internalType":"uint256"}],"stateMutability":"view"},{"type":"function","name":"owner","inputs":[],"outputs":[{"name":"","type":"address","internalType":"address"}],"stateMutability":"view"},{"type":"function","name":"paused","inputs":[],"outputs":[{"name":"","type":"bool","internalType":"bool"}],"stateMutability":"view"},{"type":"function","name":"pendingChanges","inputs":[{"name":"","type":"bytes32","internalType":"bytes32"}],"outputs":[{"name":"","type":"uint256","internalType":"uint256"}],"stateMutability":"view"},{"type":"function","name":"poolFeeState","inputs":[{"name":"","type":"bytes32","internalType":"PoolId"}],"outputs":[{"name":"baseFee","type":"uint24","internalType":"uint24"},{"name":"currentDynamicFee","type":"uint24","internalType":"uint24"},{"name":"volatilityIndex","type":"uint256","internalType":"uint256"},{"name":"lastFeeUpdate","type":"uint256","internalType":"uint256"},{"name":"mevPremium","type":"uint256","internalType":"uint256"}],"stateMutability":"view"},{"type":"function","name":"poolManager","inputs":[],"outputs":[{"name":"","type":"address","internalType":"contract IPoolManager"}],"stateMutability":"view"},{"type":"function","name":"poolTVLUSD","inputs":[{"name":"","type":"bytes32","internalType":"PoolId"}],"outputs":[{"name":"","type":"uint256","internalType":"uint256"}],"stateMutability":"view"},{"type":"function","name":"previewFee","inputs":[{"name":"poolId","type":"bytes32","internalType":"PoolId"},{"name":"swapAmountUSD","type":"uint256","internalType":"uint256"},{"name":"mevDetected","type":"bool","internalType":"bool"}],"outputs":[{"name":"","type":"uint24","internalType":"uint24"}],"stateMutability":"view"},{"type":"function","name":"queueOracleUpdate","inputs":[{"name":"newOracle","type":"address","internalType":"address"}],"outputs":[],"stateMutability":"nonpayable"},{"type":"function","name":"targetVolBps","inputs":[],"outputs":[{"name":"","type":"uint256","internalType":"uint256"}],"stateMutability":"view"},{"type":"function","name":"updatePoolTVL","inputs":[{"name":"poolId","type":"bytes32","internalType":"PoolId"},{"name":"tvlUSD","type":"uint256","internalType":"uint256"}],"outputs":[],"stateMutability":"nonpayable"},{"type":"function","name":"validateHookAddress","inputs":[],"outputs":[{"name":"","type":"bool","internalType":"bool"}],"stateMutability":"view"},{"type":"event","name":"EmergencyPause","inputs":[{"name":"paused","type":"bool","indexed":false,"internalType":"bool"}],"anonymous":false},{"type":"event","name":"FeeUpdated","inputs":[{"name":"poolId","type":"bytes32","indexed":true,"internalType":"PoolId"},{"name":"oldFee","type":"uint24","indexed":false,"internalType":"uint24"},{"name":"newFee","type":"uint24","indexed":false,"internalType":"uint24"}],"anonymous":false},{"type":"event","name":"MEVDetected","inputs":[{"name":"poolId","type":"bytes32","indexed":true,"internalType":"PoolId"},{"name":"swapper","type":"address","indexed":true,"internalType":"address"},{"name":"premiumBps","type":"uint256","indexed":false,"internalType":"uint256"}],"anonymous":false},{"type":"event","name":"MEVFeeRouted","inputs":[{"name":"poolId","type":"bytes32","indexed":true,"internalType":"PoolId"},{"name":"amount","type":"uint256","indexed":false,"internalType":"uint256"}],"anonymous":false},{"type":"event","name":"OracleUpdated","inputs":[{"name":"oldOracle","type":"address","indexed":true,"internalType":"address"},{"name":"newOracle","type":"address","indexed":true,"internalType":"address"}],"anonymous":false},{"type":"event","name":"ParameterQueued","inputs":[{"name":"paramHash","type":"bytes32","indexed":true,"internalType":"bytes32"},{"name":"executeTime","type":"uint256","indexed":false,"internalType":"uint256"}],"anonymous":false},{"type":"error","name":"Xenorize__EmergencyPaused","inputs":[]},{"type":"error","name":"Xenorize__TimelockNotElapsed","inputs":[{"name":"available","type":"uint256","internalType":"uint256"},{"name":"current","type":"uint256","internalType":"uint256"}]},{"type":"error","name":"Xenorize__Unauthorized","inputs":[{"name":"caller","type":"address","internalType":"address"},{"name":"required","type":"address","internalType":"address"}]},{"type":"error","name":"Xenorize__ZeroAddress","inputs":[]}],"bytecode":{"object":"0x6101003461019957601f6116a838819003918201601f19168301916001600160401b0383118484101761019d5780849260c0946040528339810103126101995780516001600160a01b038116919082810361019957610060602083016101b1565b61006c604084016101b1565b90610079606085016101b1565b9261009260a061008b608088016101b1565b96016101b1565b95601e62ffffff196006541617600655610bb8600755610e106008556032600955158015610188575b8015610177575b6101685760805260a05260c0526001600160a01b0390811660e0525f80546001600160a01b03199081169383169390931790556001805490921692169190911790556040516114e290816101c68239608051818181610285015281816104bb01526109d8015260a0518181816101b00152818161086a01528181610c430152610dc6015260c05181610bdd015260e05181818161043301528181610620015261076e0152f35b630aaffdf760e31b5f5260045ffd5b506001600160a01b038316156100c2565b506001600160a01b038216156100bb565b5f80fd5b634e487b7160e01b5f52604160045260245ffd5b51906001600160a01b03821682036101995756fe60806040526004361015610011575f80fd5b5f803560e01c8063016ef12414610ec65780630984879514610e9f5780630cffe82014610dab5780630dfc229e14610d8e5780630fac2e9814610d6457806321d0ee7014610d5f578063259982e514610d5f578063365ceaa314610d035780633acaa85614610c285780633eb6e84614610c0c5780634690484014610bc85780634dda551814610b9e578063575e24b4146109815780635ba1c1a9146109645780635c975abb146109425780636c2bbe7e146107e45780636ef25c3a146109205780636fe7e6eb146108e85780637dc0d1d0146108c15780638009b7bd146108995780638da5cb5b14610855578063992d845e146108385780639c1f9c03146108065780639c56b272146107e95780639f063efc146107e4578063a9a091bb146107c3578063b47b2fb114610462578063b6a8b0fa1461023b578063b79023031461041d578063c4e833ce146102b4578063dc4c90d31461026f578063dc98354e14610240578063e1b4af691461023b5763e8f6940e14610190575f80fd5b3461023857602036600319011261023857600435801515809103610234577f00000000000000000000000000000000000000000000000000000000000000006001600160a01b03163381900361021e575060207fb80d1ae5628c2af91424c54c87acfd15016be4bebeef0425b328238702f348319160ff19600a541660ff821617600a55604051908152a180f35b630cc657bb60e41b835233600452602452604482fd5b5080fd5b80fd5b61104d565b50346102385760e03660031901126102385761025a610f25565b5060a036602319011261023857610234611027565b50346102385780600319360112610238576040517f00000000000000000000000000000000000000000000000000000000000000006001600160a01b03168152602090f35b5034610238578060031936011261023857806101c0916101a06040516102d9816110d0565b8281528260208201528260408201528260608201528260808201528260a08201528260c08201528260e08201528261010082015282610120820152826101408201528261016082015282610180820152015260405190610338826110d0565b808252602082019181835260408101828152606082018381526080830184815260a0840185815260c085016001815260e0860190600182526101008701928884526101208801948986526101408901968a88526101608a01988b8a526101a06101808c019b8d8d52019b808d5260206040519e8f92835251151591015251151560408d015251151560608c015251151560808b015251151560a08a015251151560c089015251151560e08801525115156101008701525115156101208601525115156101408501525115156101608401525115156101808301525115156101a0820152f35b50346102385780600319360112610238576040517f00000000000000000000000000000000000000000000000000000000000000006001600160a01b03168152602090f35b5034610753576101603660031901126107535761047d610f25565b5060a03660231901126107535760603660c3190112610753576101443567ffffffffffffffff8111610753576104b7903690600401610f3b565b50507f00000000000000000000000000000000000000000000000000000000000000006001600160a01b031690338290036107ac5760ff600a541661079d5760a061050136611130565b20805f52600560205260ff60405f20541661052e575b6040805163b47b2fb160e01b815260208101849052f35b805f52600560205260405f2060ff19815416905561012435600f0b5f81128061076b575b61055d575b50610517565b6f7fffffffffffffffffffffffffffffff198114610757576fffffffffffffffffffffffffffffffff905f0316603281029080820460321490151715610757576127109004928315610557576105b16111e6565b813b1561075357604051630b0d9c0960e01b81526001600160a01b03909116600482015230602482015260448101859052905f908290606490829084905af1908161073e575b50610603575b80610557565b6001600160a01b036106136111e6565b1682602060018060a01b037f0000000000000000000000000000000000000000000000000000000000000000169260446040518094819363095ea7b360e01b83528760048401528a60248401525af18015610733576106fb575b50803b156106f757828091604460405180948193631c57762b60e31b83528160048401528960248401525af180156106ec576106d7575b507f853c0105383e59724bdd4c2a7793fbabf2738e5a10dd6e83e3defb0c786d5e4f60206040948551908152a25f6105fd565b6106e2838092611101565b610234575f6106a4565b6040513d85823e3d90fd5b8280fd5b6020813d60201161072b575b8161071460209383611101565b810103126107275751801515811461066d575b8380fd5b3d9150610707565b6040513d86823e3d90fd5b61074b9193505f90611101565b5f915f6105f7565b5f80fd5b634e487b7160e01b5f52601160045260245ffd5b507f00000000000000000000000000000000000000000000000000000000000000006001600160a01b03161515610552565b6311b6a2fb60e31b5f5260045ffd5b50630cc657bb60e41b5f523360045260245260445ffd5b34610753575f36600319011261075357602060405160c0613fff3016148152f35b610fc8565b34610753575f366003190112610753576020600854604051908152f35b34610753576020366003190112610753576004355f526002602052602062ffffff60405f205460181c16604051908152f35b34610753575f366003190112610753576020600754604051908152f35b34610753575f366003190112610753576040517f00000000000000000000000000000000000000000000000000000000000000006001600160a01b03168152602090f35b34610753575f366003190112610753576001546040516001600160a01b039091168152602090f35b34610753575f366003190112610753575f546040516001600160a01b039091168152602090f35b346107535761010036600319011261075357610902610f25565b5060a036602319011261075357610917611027565b5061075361103d565b34610753575f36600319011261075357602062ffffff60065416604051908152f35b34610753575f36600319011261075357602060ff600a54166040519015158152f35b34610753575f3660031901126107535760206040516202a3008152f35b34610753576101403660031901126107535761099b610f25565b60a03660231901126107535760603660c3190112610753576101243567ffffffffffffffff8111610753576109d4903690600401610f3b565b50507f00000000000000000000000000000000000000000000000000000000000000006001600160a01b031633819003610b88575060ff600a541661079d5760609060a0610a2136611130565b2090610a2c826111fc565b91610a3561134d565b81610a65610a43838361144d565b809362ffffff6006541690600754855f5260036020528960405f205493611284565b94815f52600260205260405f2080549062ffffff8260181c169262ffffff89169265ffffff0000008a60181b169065ffffff00000019161782556001820155426002820155845f14610b7e57600360ff60325b16910155818103610b46575b505050610af3575b505062ffffff62400000604051926315d7892d60e21b84525f602085015217166040820152f35b805f52600560205260405f20600160ff198254161790557fb7e199befe76eeec86702c95ffe7f47470b63887e3d1355fb728d9ded3d9c3ca6020604051936032855260018060a01b031693a38280610acc565b7f96a011a1e8a72dbc16d5af5d8f0db6bf107a76580682a94073bb6ffec86a08729160409182519182526020820152a2818680610ac4565b600360ff5f610ab8565b630cc657bb60e41b5f523360045260245260445ffd5b34610753576020366003190112610753576004355f526004602052602060405f2054604051908152f35b34610753575f366003190112610753576040517f00000000000000000000000000000000000000000000000000000000000000006001600160a01b03168152602090f35b34610753575f3660031901126107535760206040516127108152f35b3461075357602036600319011261075357610c41610f25565b7f00000000000000000000000000000000000000000000000000000000000000006001600160a01b031633819003610b8857506001600160a01b03811615610cf457604051610ca681610c986020820194856110a0565b03601f198101835282611101565b5190206202a3004201804211610757575f8281526004602090815260409182902083905590519182527fdad4f872e8a68f7f8b3b57e2d403321c10a2f79c9f992a5a2a3500023ec5ed5e91a2005b630aaffdf760e31b5f5260045ffd5b34610753576020366003190112610753576004355f52600260205260a060405f20805490600181015490600360028201549101549162ffffff60405194818116865260181c166020850152604084015260608301526080820152f35b610f69565b34610753576020366003190112610753576004355f526003602052602060405f2054604051908152f35b34610753575f366003190112610753576020600954604051908152f35b3461075357602036600319011261075357610dc4610f25565b7f00000000000000000000000000000000000000000000000000000000000000006001600160a01b031633819003610b8857506040516020810190610e0d81610c9885856110a0565b519020805f52600460205260405f205480158015610e96575b610e8057505f90815260046020526040812081905580546001600160a01b039283166001600160a01b03198216811783559216907f078c3b417dadf69374a59793b829c52001247130433427049317bde56607b1b79080a3005b630fdffeaf60e11b5f526004524260245260445ffd5b50804210610e26565b34610753576040366003190112610753576004355f52600360205260243560405f20555f80f35b3461075357606036600319011261075357604435600435811515820361075357602091610f189162ffffff60065416610efe826111fc565b91600754905f526003865260405f20549260243592611284565b62ffffff60405191168152f35b600435906001600160a01b038216820361075357565b9181601f840112156107535782359167ffffffffffffffff8311610753576020838186019501011161075357565b3461075357610160366003190112610753576004356001600160a01b0381168103610753575060a03660231901126107535760803660c3190112610753576101443567ffffffffffffffff811161075357610753903690600401610f3b565b34610753576101a0366003190112610753576004356001600160a01b0381168103610753575060a03660231901126107535760803660c3190112610753576101843567ffffffffffffffff811161075357610753903690600401610f3b565b60c435906001600160a01b038216820361075357565b60e435908160020b820361075357565b3461075357610120366003190112610753576004356001600160a01b0381168103610753575060a0366023190112610753576101043567ffffffffffffffff811161075357610753903690600401610f3b565b6040808252600690820152656f7261636c6560d01b60608201526001600160a01b03909116602082015260800190565b6101c0810190811067ffffffffffffffff8211176110ed57604052565b634e487b7160e01b5f52604160045260245ffd5b90601f8019910116810190811067ffffffffffffffff8211176110ed57604052565b9190820180921161075757565b60a0906023190112610753576040519060a0820182811067ffffffffffffffff8211176110ed57604052816024356001600160a01b03811681036107535781526044356001600160a01b038116810361075357602082015260643562ffffff811681036107535760408201526084358060020b810361075357606082015260a435906001600160a01b03821682036107535760800152565b81156111d2570490565b634e487b7160e01b5f52601260045260245ffd5b6044356001600160a01b03811681036107535790565b5f546001600160a01b03169081611216575b505060075490565b6020906024604051809481936305fd633360e21b835260048301525afa5f9181611250575b50611247575b8061120e565b80156112415790565b9091506020813d60201161127c575b8161126c60209383611101565b810103126107535751905f61123b565b3d915061125f565b62ffffff1694939180821161132b575b5050806112dc575b50506112bc575b6127108111156112b4575061271090565b62ffffff1690565b60328101809111156112a357634e487b7160e01b5f52601160045260245ffd5b6127108202918083046127101490151715610757576112fa916111c8565b60648111611309575b8061129c565b90916063198201918211610757576005611324920490611123565b905f611303565b919491810391908211610757576113459160011c90611123565b925f80611294565b60e4355f81121561144857600160ff1b8114610757575f035b5f546001600160a01b031680156114445760c43580151581036107535715611429576024356001600160a01b0381168103610753576040905b8151631516778560e11b81526001600160a01b03909116600482015291829060249082905afa5f91816113f5575b506113d6575090565b9081810291818304149015171561075757670de0b6b3a7640000900490565b9091506040813d604011611421575b8161141160409383611101565b810103126107535751905f6113cd565b3d9150611404565b6044356001600160a01b03811681036107535760409061139f565b5090565b611366565b90815f52600360205260405f2054156114a65761271081029080820461271014901517156107575761148b915f52600360205260405f2054906111c8565b60095490600a820291808304600a1490151715610757571190565b50505f9056fea2646970667358221220cfb8de441d55ce3017e8a5a7815499051ce98b10b80c99fff46d3252e3df340464736f6c634300081a0033","linkReferences":{}},"methodIdentifiers":{"BPS_MAX()":"3eb6e846","TIMELOCK_DELAY()":"5ba1c1a9","afterAddLiquidity(address,(address,address,uint24,int24,address),(int24,int24,int256,bytes32),int256,int256,bytes)":"9f063efc","afterDonate(address,(address,address,uint24,int24,address),uint256,uint256,bytes)":"e1b4af69","afterInitialize(address,(address,address,uint24,int24,address),uint160,int24)":"6fe7e6eb","afterRemoveLiquidity(address,(address,address,uint24,int24,address),(int24,int24,int256,bytes32),int256,int256,bytes)":"6c2bbe7e","afterSwap(address,(address,address,uint24,int24,address),(bool,int256,uint160),int256,bytes)":"b47b2fb1","baseFee()":"6ef25c3a","beforeAddLiquidity(address,(address,address,uint24,int24,address),(int24,int24,int256,bytes32),bytes)":"259982e5","beforeDonate(address,(address,address,uint24,int24,address),uint256,uint256,bytes)":"b6a8b0fa","beforeInitialize(address,(address,address,uint24,int24,address),uint160)":"dc98354e","beforeRemoveLiquidity(address,(address,address,uint24,int24,address),(int24,int24,int256,bytes32),bytes)":"21d0ee70","beforeSwap(address,(address,address,uint24,int24,address),(bool,int256,uint160),bytes)":"575e24b4","emergencyPause(bool)":"e8f6940e","ethUsdFeed()":"8009b7bd","executeOracleUpdate(address)":"0cffe820","feeRecipient()":"46904840","getCurrentFee(bytes32)":"9c1f9c03","getHookPermissions()":"c4e833ce","insuranceFund()":"b7902303","mevThresholdBps()":"0dfc229e","oracle()":"7dc0d1d0","oracleMaxAge()":"9c56b272","owner()":"8da5cb5b","paused()":"5c975abb","pendingChanges(bytes32)":"4dda5518","poolFeeState(bytes32)":"365ceaa3","poolManager()":"dc4c90d3","poolTVLUSD(bytes32)":"0fac2e98","previewFee(bytes32,uint256,bool)":"016ef124","queueOracleUpdate(address)":"3acaa856","targetVolBps()":"992d845e","updatePoolTVL(bytes32,uint256)":"09848795","validateHookAddress()":"a9a091bb"},"id":48}