{"abi":[{"type":"constructor","inputs":[{"name":"_poolManager","type":"address","internalType":"address"},{"name":"_owner","type":"address","internalType":"address"},{"name":"_feeRecipient","type":"address","internalType":"address"},{"name":"_oracle","type":"address","internalType":"address"},{"name":"_ethUsdFeed","type":"address","internalType":"address"}],"stateMutability":"nonpayable"},{"type":"function","name":"TIMELOCK_DELAY","inputs":[],"outputs":[{"name":"","type":"uint256","internalType":"uint256"}],"stateMutability":"view"},{"type":"function","name":"afterSwap","inputs":[{"name":"poolId","type":"bytes32","internalType":"bytes32"}],"outputs":[],"stateMutability":"nonpayable"},{"type":"function","name":"baseFee","inputs":[],"outputs":[{"name":"","type":"uint24","internalType":"uint24"}],"stateMutability":"view"},{"type":"function","name":"beforeSwap","inputs":[{"name":"poolId","type":"bytes32","internalType":"bytes32"},{"name":"swapper","type":"address","internalType":"address"},{"name":"swapAmountUSD","type":"uint256","internalType":"uint256"}],"outputs":[{"name":"lpFeeOverride","type":"uint24","internalType":"uint24"}],"stateMutability":"nonpayable"},{"type":"function","name":"emergencyPause","inputs":[{"name":"_pause","type":"bool","internalType":"bool"}],"outputs":[],"stateMutability":"nonpayable"},{"type":"function","name":"ethUsdFeed","inputs":[],"outputs":[{"name":"","type":"address","internalType":"contract AggregatorV3Interface"}],"stateMutability":"view"},{"type":"function","name":"executeOracleUpdate","inputs":[{"name":"newOracle","type":"address","internalType":"address"}],"outputs":[],"stateMutability":"nonpayable"},{"type":"function","name":"feeRecipient","inputs":[],"outputs":[{"name":"","type":"address","internalType":"address"}],"stateMutability":"view"},{"type":"function","name":"getCurrentFee","inputs":[{"name":"poolId","type":"bytes32","internalType":"bytes32"}],"outputs":[{"name":"","type":"uint24","internalType":"uint24"}],"stateMutability":"view"},{"type":"function","name":"getHookPermissions","inputs":[],"outputs":[{"name":"","type":"uint256","internalType":"uint256"}],"stateMutability":"pure"},{"type":"function","name":"mevThresholdBps","inputs":[],"outputs":[{"name":"","type":"uint256","internalType":"uint256"}],"stateMutability":"view"},{"type":"function","name":"oracle","inputs":[],"outputs":[{"name":"","type":"address","internalType":"contract IXenorizeOracle"}],"stateMutability":"view"},{"type":"function","name":"oracleMaxAge","inputs":[],"outputs":[{"name":"","type":"uint256","internalType":"uint256"}],"stateMutability":"view"},{"type":"function","name":"owner","inputs":[],"outputs":[{"name":"","type":"address","internalType":"address"}],"stateMutability":"view"},{"type":"function","name":"paused","inputs":[],"outputs":[{"name":"","type":"bool","internalType":"bool"}],"stateMutability":"view"},{"type":"function","name":"pendingChanges","inputs":[{"name":"","type":"bytes32","internalType":"bytes32"}],"outputs":[{"name":"","type":"uint256","internalType":"uint256"}],"stateMutability":"view"},{"type":"function","name":"poolFeeState","inputs":[{"name":"","type":"bytes32","internalType":"bytes32"}],"outputs":[{"name":"baseFee","type":"uint24","internalType":"uint24"},{"name":"currentDynamicFee","type":"uint24","internalType":"uint24"},{"name":"volatilityIndex","type":"uint256","internalType":"uint256"},{"name":"lastFeeUpdate","type":"uint256","internalType":"uint256"},{"name":"mevPremium","type":"uint256","internalType":"uint256"}],"stateMutability":"view"},{"type":"function","name":"poolManager","inputs":[],"outputs":[{"name":"","type":"address","internalType":"address"}],"stateMutability":"view"},{"type":"function","name":"poolTVLUSD","inputs":[{"name":"","type":"bytes32","internalType":"bytes32"}],"outputs":[{"name":"","type":"uint256","internalType":"uint256"}],"stateMutability":"view"},{"type":"function","name":"previewFee","inputs":[{"name":"poolId","type":"bytes32","internalType":"bytes32"},{"name":"swapAmountUSD","type":"uint256","internalType":"uint256"},{"name":"mevDetected","type":"bool","internalType":"bool"}],"outputs":[{"name":"","type":"uint24","internalType":"uint24"}],"stateMutability":"view"},{"type":"function","name":"queueOracleUpdate","inputs":[{"name":"newOracle","type":"address","internalType":"address"}],"outputs":[],"stateMutability":"nonpayable"},{"type":"function","name":"targetVolBps","inputs":[],"outputs":[{"name":"","type":"uint256","internalType":"uint256"}],"stateMutability":"view"},{"type":"function","name":"updatePoolTVL","inputs":[{"name":"poolId","type":"bytes32","internalType":"bytes32"},{"name":"tvlUSD","type":"uint256","internalType":"uint256"}],"outputs":[],"stateMutability":"nonpayable"},{"type":"event","name":"EmergencyPause","inputs":[{"name":"paused","type":"bool","indexed":false,"internalType":"bool"}],"anonymous":false},{"type":"event","name":"FeeUpdated","inputs":[{"name":"poolId","type":"bytes32","indexed":true,"internalType":"bytes32"},{"name":"oldFee","type":"uint24","indexed":false,"internalType":"uint24"},{"name":"newFee","type":"uint24","indexed":false,"internalType":"uint24"}],"anonymous":false},{"type":"event","name":"MEVDetected","inputs":[{"name":"poolId","type":"bytes32","indexed":true,"internalType":"bytes32"},{"name":"swapper","type":"address","indexed":true,"internalType":"address"},{"name":"premiumBps","type":"uint256","indexed":false,"internalType":"uint256"}],"anonymous":false},{"type":"event","name":"OracleUpdated","inputs":[{"name":"oldOracle","type":"address","indexed":true,"internalType":"address"},{"name":"newOracle","type":"address","indexed":true,"internalType":"address"}],"anonymous":false},{"type":"event","name":"ParameterQueued","inputs":[{"name":"paramHash","type":"bytes32","indexed":true,"internalType":"bytes32"},{"name":"executeTime","type":"uint256","indexed":false,"internalType":"uint256"}],"anonymous":false},{"type":"error","name":"Xenorize__EmergencyPaused","inputs":[]},{"type":"error","name":"Xenorize__TimelockNotElapsed","inputs":[{"name":"available","type":"uint256","internalType":"uint256"},{"name":"current","type":"uint256","internalType":"uint256"}]},{"type":"error","name":"Xenorize__Unauthorized","inputs":[{"name":"caller","type":"address","internalType":"address"},{"name":"required","type":"address","internalType":"address"}]},{"type":"error","name":"Xenorize__ZeroAddress","inputs":[]}],"bytecode":{"object":"0x60e06040526005805462ffffff1916601e179055610bb8600655610e10600755603260085534801561003057600080fd5b50604051610f77380380610f7783398101604081905261004f916100fa565b6001600160a01b038516158061006c57506001600160a01b038416155b8061007e57506001600160a01b038316155b1561009c57604051630aaffdf760e31b815260040160405180910390fd5b6001600160a01b0394851660805292841660a05290831660c052600080549184166001600160a01b03199283161790556001805492909316911617905561015f565b80516001600160a01b03811681146100f557600080fd5b919050565b600080600080600060a0868803121561011257600080fd5b61011b866100de565b9450610129602087016100de565b9350610137604087016100de565b9250610145606087016100de565b9150610153608087016100de565b90509295509295909350565b60805160a05160c051610da36101d4600039600061028a0152600081816103580152818161043e0152818161048001528181610778015281816107ba0152818161094401526109860152600081816103c40152818161058c015281816105ce015281816108a301526108e50152610da36000f3fe608060405234801561001057600080fd5b506004361061014d5760003560e01c80635c975abb116100c3578063992d845e1161007c578063992d845e1461037a5780639c1f9c03146103835780639c56b272146103af578063c4e833ce146103b8578063dc4c90d3146103bf578063e8f6940e146103e657600080fd5b80635c975abb146102ee5780636824e93e1461030b5780636ef25c3a1461031e5780637dc0d1d01461032d5780638009b7bd146103405780638da5cb5b1461035357600080fd5b80631e1dee8f116101155780631e1dee8f146101ea578063365ceaa3146101fd5780633acaa8561461027257806346904840146102855780634dda5518146102c45780635ba1c1a9146102e457600080fd5b8063016ef12414610152578063098487951461017e5780630cffe820146101a05780630dfc229e146101b35780630fac2e98146101ca575b600080fd5b610165610160366004610bb4565b6103f9565b60405162ffffff90911681526020015b60405180910390f35b61019e61018c366004610be9565b60009182526003602052604090912055565b005b61019e6101ae366004610c22565b610433565b6101bc60085481565b604051908152602001610175565b6101bc6101d8366004610c44565b60036020526000908152604090205481565b6101656101f8366004610c5d565b61057f565b61024361020b366004610c44565b6002602081905260009182526040909120805460018201549282015460039092015462ffffff80831694630100000090930416929085565b6040805162ffffff9687168152959094166020860152928401919091526060830152608082015260a001610175565b61019e610280366004610c22565b61076d565b6102ac7f000000000000000000000000000000000000000000000000000000000000000081565b6040516001600160a01b039091168152602001610175565b6101bc6102d2366004610c44565b60046020526000908152604090205481565b6101bc6202a30081565b6009546102fb9060ff1681565b6040519015158152602001610175565b61019e610319366004610c44565b610898565b6005546101659062ffffff1681565b6000546102ac906001600160a01b031681565b6001546102ac906001600160a01b031681565b6102ac7f000000000000000000000000000000000000000000000000000000000000000081565b6101bc60065481565b610165610391366004610c44565b6000908152600260205260409020546301000000900462ffffff1690565b6101bc60075481565b60c06101bc565b6102ac7f000000000000000000000000000000000000000000000000000000000000000081565b61019e6103f4366004610c93565b610939565b60055460009061042b9062ffffff16610411866109fa565b600654600088815260036020526040902054879087610a8c565b949350505050565b336001600160a01b037f000000000000000000000000000000000000000000000000000000000000000016146104b257604051630cc657bb60e41b81523360048201526001600160a01b037f00000000000000000000000000000000000000000000000000000000000000001660248201526044015b60405180910390fd5b6000816040516020016104c59190610cae565b60408051601f198184030181529181528151602092830120600081815260049093529120549091508015806104f957508042105b1561052057604051630fdffeaf60e11b8152600481018290524260248201526044016104a9565b60008281526004602052604080822082905581546001600160a01b038681166001600160a01b0319831681178555925191169283917f078c3b417dadf69374a59793b829c52001247130433427049317bde56607b1b79190a350505050565b6000336001600160a01b037f000000000000000000000000000000000000000000000000000000000000000016146105fb57604051630cc657bb60e41b81523360048201526001600160a01b037f00000000000000000000000000000000000000000000000000000000000000001660248201526044016104a9565b60095460ff161561061f576040516311b6a2fb60e31b815260040160405180910390fd5b600061062a856109fa565b905060006106388685610b42565b6005546006546000898152600360205260409020549293506106679262ffffff90921691859190889086610a8c565b6000878152600260208190526040909120805462ffffff808516630100000090810265ffffff000000198416178455600184018890554294840194909455939650909291900416826106ba5760006106bd565b60325b60ff16600383015562ffffff85811690821614610716576040805162ffffff80841682528716602082015289917f96a011a1e8a72dbc16d5af5d8f0db6bf107a76580682a94073bb6ffec86a0872910160405180910390a25b821561076257866001600160a01b0316887fb7e199befe76eeec86702c95ffe7f47470b63887e3d1355fb728d9ded3d9c3ca603260405161075991815260200190565b60405180910390a35b505050509392505050565b336001600160a01b037f000000000000000000000000000000000000000000000000000000000000000016146107e757604051630cc657bb60e41b81523360048201526001600160a01b037f00000000000000000000000000000000000000000000000000000000000000001660248201526044016104a9565b6001600160a01b03811661080e57604051630aaffdf760e31b815260040160405180910390fd5b6000816040516020016108219190610cae565b6040516020818303038152906040528051906020012090506202a300426108489190610cf5565b600082815260046020526040908190208290555182917fdad4f872e8a68f7f8b3b57e2d403321c10a2f79c9f992a5a2a3500023ec5ed5e9161088c91815260200190565b60405180910390a25050565b336001600160a01b037f0000000000000000000000000000000000000000000000000000000000000000161461091257604051630cc657bb60e41b81523360048201526001600160a01b037f00000000000000000000000000000000000000000000000000000000000000001660248201526044016104a9565b60095460ff1615610936576040516311b6a2fb60e31b815260040160405180910390fd5b50565b336001600160a01b037f000000000000000000000000000000000000000000000000000000000000000016146109b357604051630cc657bb60e41b81523360048201526001600160a01b037f00000000000000000000000000000000000000000000000000000000000000001660248201526044016104a9565b6009805460ff19168215159081179091556040519081527fb80d1ae5628c2af91424c54c87acfd15016be4bebeef0425b328238702f348319060200160405180910390a150565b600080546001600160a01b031615610a84576000546040516305fd633360e21b8152600481018490526001600160a01b03909116906317f58ccc90602401602060405180830381865afa925050508015610a71575060408051601f3d908101601f19168201909252610a6e91810190610d08565b60015b15610a84578015610a825792915050565b505b505060065490565b600062ffffff871685871115610abf576002610aa88789610d21565b610ab29190610d34565b610abc9082610cf5565b90505b8315610b0f57600084610ad461271088610d56565b610ade9190610d34565b90506064811115610b0d576005610af6606483610d21565b610b009190610d34565b610b0a9083610cf5565b91505b505b8215610b2357610b20603282610cf5565b90505b6127108111610b325780610b36565b6127105b98975050505050505050565b6000828152600360205260408120548103610b5f57506000610b99565b600083815260036020526040812054610b7a61271085610d56565b610b849190610d34565b9050600854600a610b959190610d56565b1090505b92915050565b80358015158114610baf57600080fd5b919050565b600080600060608486031215610bc957600080fd5b8335925060208401359150610be060408501610b9f565b90509250925092565b60008060408385031215610bfc57600080fd5b50508035926020909101359150565b80356001600160a01b0381168114610baf57600080fd5b600060208284031215610c3457600080fd5b610c3d82610c0b565b9392505050565b600060208284031215610c5657600080fd5b5035919050565b600080600060608486031215610c7257600080fd5b83359250610c8260208501610c0b565b929592945050506040919091013590565b600060208284031215610ca557600080fd5b610c3d82610b9f565b6040808252600690820152656f7261636c6560d01b60608201526001600160a01b0391909116602082015260800190565b634e487b7160e01b600052601160045260246000fd5b80820180821115610b9957610b99610cdf565b600060208284031215610d1a57600080fd5b5051919050565b81810381811115610b9957610b99610cdf565b600082610d5157634e487b7160e01b600052601260045260246000fd5b500490565b8082028115828204841417610b9957610b99610cdf56fea2646970667358221220dd42af17805c7e15f674ffeab7fc02c6018ff4e93b43f66fa86591aa44b266d164736f6c634300081a0033","linkReferences":{}},"methodIdentifiers":{"TIMELOCK_DELAY()":"5ba1c1a9","afterSwap(bytes32)":"6824e93e","baseFee()":"6ef25c3a","beforeSwap(bytes32,address,uint256)":"1e1dee8f","emergencyPause(bool)":"e8f6940e","ethUsdFeed()":"8009b7bd","executeOracleUpdate(address)":"0cffe820","feeRecipient()":"46904840","getCurrentFee(bytes32)":"9c1f9c03","getHookPermissions()":"c4e833ce","mevThresholdBps()":"0dfc229e","oracle()":"7dc0d1d0","oracleMaxAge()":"9c56b272","owner()":"8da5cb5b","paused()":"5c975abb","pendingChanges(bytes32)":"4dda5518","poolFeeState(bytes32)":"365ceaa3","poolManager()":"dc4c90d3","poolTVLUSD(bytes32)":"0fac2e98","previewFee(bytes32,uint256,bool)":"016ef124","queueOracleUpdate(address)":"3acaa856","targetVolBps()":"992d845e","updatePoolTVL(bytes32,uint256)":"09848795"},"id":30}